{
	"data": {
		"bytecode": {
			"linkReferences": {},
			"object": "6010805460ff1916905560a060408190526000608081905262000025916015916200026c565b506016805461ffff19166001179055670de0b6b3a76400006017556064601855600a6019556005601a553480156200005c57600080fd5b50604080518082018252600b81526a57656233446f6d61696e7360a81b60208083019182528351808501909452600384526215ccd160ea1b908401528151919291620000ab916000916200026c565b508051620000c19060019060208401906200026c565b505050620000de620000d8620000ef60201b60201c565b620000f3565b620000e93362000145565b6200034f565b3390565b600b80546001600160a01b038381166001600160a01b0319831681179093556040519116919082907f8be0079c531659141344cd1fd0a4f28419497f9722a3daafe3b4186f6b6457e090600090a35050565b6200016081600c6200016360201b62002ca91790919060201c565b50565b6200016f8282620001e7565b15620001c25760405162461bcd60e51b815260206004820152601f60248201527f526f6c65733a206163636f756e7420616c72656164792068617320726f6c650060448201526064015b60405180910390fd5b6001600160a01b0316600090815260209190915260409020805460ff19166001179055565b60006001600160a01b0382166200024c5760405162461bcd60e51b815260206004820152602260248201527f526f6c65733a206163636f756e7420697320746865207a65726f206164647265604482015261737360f01b6064820152608401620001b9565b506001600160a01b03166000908152602091909152604090205460ff1690565b8280546200027a9062000312565b90600052602060002090601f0160209004810192826200029e5760008555620002e9565b82601f10620002b957805160ff1916838001178555620002e9565b82800160010185558215620002e9579182015b82811115620002e9578251825591602001919060010190620002cc565b50620002f7929150620002fb565b5090565b5b80821115620002f75760008155600101620002fc565b600181811c908216806200032757607f821691505b602082108114156200034957634e487b7160e01b600052602260045260246000fd5b50919050565b615342806200035f6000396000f3fe6080604052600436106104475760003560e01c80636506437011610234578063ab3b87fe1161012e578063ce92b33e116100b6578063ec129eea1161007a578063ec129eea14610d6a578063eceb7d5214610d8a578063f25eb5c114610daa578063f2fde38b14610dbf578063f5c1f76e14610ddf57600080fd5b8063ce92b33e14610c91578063d231563014610cb1578063d439daa214610cc6578063e5f9da8814610d01578063e985e9c514610d2157600080fd5b8063bb5b27e1116100fd578063bb5b27e114610bee578063bc7c8ceb14610c0e578063c479a80414610c3c578063c6438cb814610c5c578063c87b56dd14610c7157600080fd5b8063ab3b87fe14610b60578063ad59e22614610b80578063b85afd2814610ba0578063b88d4fde14610bce57600080fd5b80637ef09bca116101bc57806398a602431161018057806398a6024314610ab257806398d5fdca14610ad25780639cbf529d14610ae7578063a22cb46514610b07578063a736868b14610b2757600080fd5b80637ef09bca14610a1f5780638da5cb5b14610a3f5780638f704aec14610a5d57806391b7f5ed14610a7d57806395d89b4114610a9d57600080fd5b806370a082311161020357806370a082311461098a578063715018a6146109aa57806376f909ae146109bf57806377e9d00b146109df5780637e37479e146109ff57600080fd5b80636506437014610914578063672b9f811461092757806369e2f0fb146109555780636bc2290f1461097557600080fd5b8063384e9a55116103455780634aaf4a12116102cd57806350b3a1441161029157806350b3a1441461088057806355f804b3146108a0578063573f5dae146108c05780635d893ba0146108da5780636352211e146108f457600080fd5b80634aaf4a12146107eb5780634cd637b51461080b5780634f558e79146108205780634f6ccce71461084057806350382c1a1461086057600080fd5b806342966c681161031457806342966c6814610756578063430c2081146107765780634500d4491461079657806347c81699146107ab5780634a72584d146107cb57600080fd5b8063384e9a55146106ee5780633ccfd60b1461070e5780633dd1eb611461071657806342842e0e1461073657600080fd5b806318160ddd116103d357806327f189751161039757806327f18975146106595780632dc50d9a146106795780632f745c5914610699578063310bd74b146106b9578063358deb1c146106d957600080fd5b806318160ddd146105c25780631bd8cc1a146105d75780631be5e7ed146106045780631ed405591461062457806323b872dd1461063957600080fd5b80630826a0bd1161041a5780630826a0bd1461051d578063095ea7b31461053f5780630bb78ec11461055f5780630cf891451461057f578063157c61381461059f57600080fd5b806301ffc9a71461044c57806305d60ffb1461048157806306fdde03146104c3578063081812fc146104e5575b600080fd5b34801561045857600080fd5b5061046c6104673660046144cc565b610dff565b60405190151581526020015b60405180910390f35b34801561048d57600080fd5b506104b161049c366004614505565b600f6020526000908152604090205460ff1681565b60405160ff9091168152602001610478565b3480156104cf57600080fd5b506104d8610e10565b6040516104789190614578565b3480156104f157600080fd5b5061050561050036600461458b565b610ea2565b6040516001600160a01b039091168152602001610478565b34801561052957600080fd5b5061053d6105383660046145b5565b610f2f565b005b34801561054b57600080fd5b5061053d61055a3660046145df565b610f81565b34801561056b57600080fd5b506104d861057a36600461458b565b611097565b34801561058b57600080fd5b5061053d61059a366004614654565b611131565b3480156105ab57600080fd5b506105b46111d0565b604051908152602001610478565b3480156105ce57600080fd5b506008546105b4565b3480156105e357600080fd5b506105f76105f23660046146a7565b6111ec565b6040516104789190614744565b34801561061057600080fd5b506104d861061f366004614798565b6112e2565b34801561063057600080fd5b5061053d61132d565b34801561064557600080fd5b5061053d6106543660046147cf565b61136b565b34801561066557600080fd5b5061053d61067436600461480b565b6113a6565b34801561068557600080fd5b506105b461069436600461487e565b6113ce565b3480156106a557600080fd5b506105b46106b43660046145df565b611403565b3480156106c557600080fd5b5061053d6106d436600461458b565b611499565b3480156106e557600080fd5b506019546105b4565b3480156106fa57600080fd5b5061053d61070936600461458b565b6114b9565b61053d6114fa565b34801561072257600080fd5b5061053d610731366004614505565b61154a565b34801561074257600080fd5b5061053d6107513660046147cf565b611580565b34801561076257600080fd5b5061053d61077136600461458b565b61159b565b34801561078257600080fd5b5061046c6107913660046145df565b611678565b3480156107a257600080fd5b5061053d611684565b3480156107b757600080fd5b5061053d6107c63660046148a0565b6116cb565b3480156107d757600080fd5b5061053d6107e6366004614901565b6116eb565b3480156107f757600080fd5b506105056108063660046149fe565b611711565b34801561081757600080fd5b506105b4611756565b34801561082c57600080fd5b5061046c61083b36600461458b565b611767565b34801561084c57600080fd5b506105b461085b36600461458b565b611772565b34801561086c57600080fd5b5061053d61087b3660046149fe565b611805565b34801561088c57600080fd5b506105b461089b3660046149fe565b611838565b3480156108ac57600080fd5b5061053d6108bb3660046149fe565b611878565b3480156108cc57600080fd5b5060105461046c9060ff1681565b3480156108e657600080fd5b5060165461046c9060ff1681565b34801561090057600080fd5b5061050561090f36600461458b565b6118b5565b61053d610922366004614a32565b61192c565b34801561093357600080fd5b5061094761094236600461487e565b611e0d565b604051610478929190614a95565b34801561096157600080fd5b5061053d610970366004614505565b611e25565b34801561098157600080fd5b506018546105b4565b34801561099657600080fd5b506105b46109a5366004614505565b611e58565b3480156109b657600080fd5b5061053d611edf565b3480156109cb57600080fd5b506105b46109da36600461458b565b611f13565b3480156109eb57600080fd5b5061053d6109fa366004614ac3565b611f3e565b348015610a0b57600080fd5b506104d8610a1a366004614505565b61215d565b348015610a2b57600080fd5b5061046c610a3a366004614505565b6122a5565b348015610a4b57600080fd5b50600b546001600160a01b0316610505565b348015610a6957600080fd5b5061053d610a78366004614b36565b6122b2565b348015610a8957600080fd5b5061053d610a9836600461458b565b6122ea565b348015610aa957600080fd5b506104d8612319565b348015610abe57600080fd5b5061053d610acd366004614b62565b612328565b348015610ade57600080fd5b506017546105b4565b348015610af357600080fd5b5061053d610b023660046149fe565b612356565b348015610b1357600080fd5b5061053d610b22366004614bbe565b6123a5565b348015610b3357600080fd5b506104b1610b42366004614505565b6001600160a01b03166000908152600f602052604090205460ff1690565b348015610b6c57600080fd5b5061053d610b7b3660046145df565b61246a565b348015610b8c57600080fd5b5061053d610b9b3660046149fe565b612490565b348015610bac57600080fd5b50610bc0610bbb3660046146a7565b6124e9565b604051610478929190614be8565b348015610bda57600080fd5b5061053d610be9366004614c0d565b61260b565b348015610bfa57600080fd5b506104d8610c0936600461458b565b612646565b348015610c1a57600080fd5b50610c2e610c29366004614505565b6126e8565b604051610478929190614c88565b348015610c4857600080fd5b5061053d610c57366004614cdf565b6128cb565b348015610c6857600080fd5b506105b46128e8565b348015610c7d57600080fd5b506104d8610c8c36600461458b565b6128f9565b348015610c9d57600080fd5b5061053d610cac36600461480b565b612a63565b348015610cbd57600080fd5b50601a546105b4565b348015610cd257600080fd5b5061046c610ce1366004614505565b6001600160a01b03166000908152600f602052604090205460ff16151590565b348015610d0d57600080fd5b5061046c610d1c3660046149fe565b612a83565b348015610d2d57600080fd5b5061046c610d3c366004614d1b565b6001600160a01b03918216600090815260056020908152604080832093909416825291909152205460ff1690565b348015610d7657600080fd5b5061053d610d8536600461480b565b612ac0565b348015610d9657600080fd5b5061053d610da5366004614d45565b612ae0565b348015610db657600080fd5b5061053d612b1d565b348015610dcb57600080fd5b5061053d610dda366004614505565b612b65565b348015610deb57600080fd5b506105f7610dfa366004614d60565b612bfd565b6000610e0a82612d25565b92915050565b606060008054610e1f90614da1565b80601f0160208091040260200160405190810160405280929190818152602001828054610e4b90614da1565b8015610e985780601f10610e6d57610100808354040283529160200191610e98565b820191906000526020600020905b815481529060010190602001808311610e7b57829003601f168201915b5050505050905090565b6000610ead82612d4a565b610f135760405162461bcd60e51b815260206004820152602c60248201527f4552433732313a20617070726f76656420717565727920666f72206e6f6e657860448201526b34b9ba32b73a103a37b5b2b760a11b60648201526084015b60405180910390fd5b506000908152600460205260409020546001600160a01b031690565b610f38336122a5565b610f545760405162461bcd60e51b8152600401610f0a90614ddc565b6001600160a01b03919091166000908152600f60205260409020805460ff191660ff909216919091179055565b6000610f8c826118b5565b9050806001600160a01b0316836001600160a01b03161415610ffa5760405162461bcd60e51b815260206004820152602160248201527f4552433732313a20617070726f76616c20746f2063757272656e74206f776e656044820152603960f91b6064820152608401610f0a565b336001600160a01b038216148061101657506110168133610d3c565b6110885760405162461bcd60e51b815260206004820152603860248201527f4552433732313a20617070726f76652063616c6c6572206973206e6f74206f7760448201527f6e6572206e6f7220617070726f76656420666f7220616c6c00000000000000006064820152608401610f0a565b6110928383612d67565b505050565b601260205260009081526040902080546110b090614da1565b80601f01602080910402602001604051908101604052809291908181526020018280546110dc90614da1565b80156111295780601f106110fe57610100808354040283529160200191611129565b820191906000526020600020905b81548152906001019060200180831161110c57829003601f168201915b505050505081565b61113a336122a5565b6111565760405162461bcd60e51b8152600401610f0a90614ddc565b60005b828110156111ca5781600f600086868581811061117857611178614e26565b905060200201602081019061118d9190614505565b6001600160a01b031681526020810191909152604001600020805460ff191660ff92909216919091179055806111c281614e52565b915050611159565b50505050565b60006111e76018546111e160175490565b90612dd5565b905090565b6060826001600160401b0381111561120657611206614953565b60405190808252806020026020018201604052801561123957816020015b60608152602001906001900390816112245790505b50905060005b838110156112da576112aa85858381811061125c5761125c614e26565b905060200281019061126e9190614e6d565b8080601f016020809104026020016040519081016040528093929190818152602001838380828437600092019190915250879250612de1915050565b8282815181106112bc576112bc614e26565b602002602001018190525080806112d290614e52565b91505061123f565b509392505050565b606061132584848080601f016020809104026020016040519081016040528093929190818152602001838380828437600092019190915250869250612de1915050565b949350505050565b600b546001600160a01b031633146113575760405162461bcd60e51b8152600401610f0a90614eb3565b6016805460ff19811660ff90911615179055565b611376335b82612e16565b6113925760405162461bcd60e51b8152600401610f0a90614ee8565b61139b81612efc565b611092838383612f69565b806113b033611370565b6113b957600080fd5b6113c68686868686613114565b505050505050565b6000816113da84611f13565b116113e457600080fd5b60008381526011602052604090206113fc9083613177565b9392505050565b600061140e83611e58565b82106114705760405162461bcd60e51b815260206004820152602b60248201527f455243373231456e756d657261626c653a206f776e657220696e646578206f7560448201526a74206f6620626f756e647360a81b6064820152608401610f0a565b506001600160a01b03919091166000908152600660209081526040808320938352929052205490565b806114a333611370565b6114ac57600080fd5b6114b582612efc565b5050565b336114c48183612e16565b6114e05760405162461bcd60e51b8152600401610f0a90614f39565b6001600160a01b0316600090815260136020526040902055565b600b546001600160a01b031633146115245760405162461bcd60e51b8152600401610f0a90614eb3565b60405133904780156108fc02916000818181858888f1935050505061154857600080fd5b565b600b546001600160a01b031633146115745760405162461bcd60e51b8152600401610f0a90614eb3565b61157d81613183565b50565b6110928383836040518060200160405280600081525061260b565b6115a433611370565b6116095760405162461bcd60e51b815260206004820152603060248201527f4552433732314275726e61626c653a2063616c6c6572206973206e6f74206f7760448201526f1b995c881b9bdc88185c1c1c9bdd995960821b6064820152608401610f0a565b6000818152601260205260409020805461162290614da1565b159050611640576000818152601260205260408120611640916143eb565b336000908152601360205260409020541561166657336000908152601360205260408120555b61166f81612efc565b61157d8161318e565b60006113fc8383612e16565b600b546001600160a01b031633146116ae5760405162461bcd60e51b8152600401610f0a90614eb3565b6016805461ff001981166101009182900460ff1615909102179055565b806116d533611370565b6116de57600080fd5b6113c68686868686613235565b806116f533611370565b6116fe57600080fd5b61170a85858585613314565b5050505050565b60008061171d836133b4565b90506000816040516020016117329190614f89565b6040516020818303038152906040528051906020012060001c9050611325816118b5565b60006111e7601a546111e160175490565b6000610e0a82612d4a565b600061177d60085490565b82106117e05760405162461bcd60e51b815260206004820152602c60248201527f455243373231456e756d657261626c653a20676c6f62616c20696e646578206f60448201526b7574206f6620626f756e647360a01b6064820152608401610f0a565b600882815481106117f3576117f3614e26565b90600052602060002001549050919050565b61157d816040516020016118199190614f89565b6040516020818303038152906040528051906020012060001c8261350e565b600081516000141561184957600080fd5b8160405160200161185a9190614f89565b60408051601f19818403018152919052805160209091012092915050565b600b546001600160a01b031633146118a25760405162461bcd60e51b8152600401610f0a90614eb3565b80516114b5906015906020840190614425565b6000818152600260205260408120546001600160a01b031680610e0a5760405162461bcd60e51b815260206004820152602960248201527f4552433732313a206f776e657220717565727920666f72206e6f6e657869737460448201526832b73a103a37b5b2b760b91b6064820152608401610f0a565b60165460ff1661197e5760405162461bcd60e51b815260206004820152601a60248201527f53616c65206d7573742062652061637469766520746f206275790000000000006044820152606401610f0a565b805161199c5760405162461bcd60e51b8152600401610f0a90614fa5565b6119a581612a83565b15156001146119f65760405162461bcd60e51b815260206004820152601a60248201527f546f70206c6576656c20646f6d61696e206e6f742065786973740000000000006044820152606401610f0a565b6119ff8261353a565b15611a4c5760405162461bcd60e51b815260206004820152601a60248201527f446f6d61696e732063616e6e6f7420636f6e7461696e20646f740000000000006044820152606401610f0a565b815180611a965760405162461bcd60e51b8152602060048201526018602482015277446f6d61696e206d757374206265206e6f6e2d656d70747960401b6044820152606401610f0a565b6002811015611af55760405162461bcd60e51b815260206004820152602560248201527f446f6d61696e207265717569726573206174206c656173742032206368617261604482015264637465727360d81b6064820152608401610f0a565b60105460ff16151560011415611bd957336000908152600f602052604090205460ff1680611b715760405162461bcd60e51b815260206004820152602360248201527f5468652061646472657373206973206e6f7420696e207468652057686974656c6044820152621a5cdd60ea1b6064820152608401610f0a565b611b7a33611e58565b8160ff161015611bd75760405162461bcd60e51b815260206004820152602260248201527f4578636565646564206d617820617661696c61626c6520746f20707572636861604482015261736560f01b6064820152608401610f0a565b505b8060021415611c885760165460ff610100909104161515600114611c5a5760405162461bcd60e51b815260206004820152603260248201527f322043686172616374657220646f6d61696e206e616d6573206e65656420746f60448201527120626520616c6c6f77656420746f2062757960701b6064820152608401610f0a565b611c696018546111e160175490565b341015611c885760405162461bcd60e51b8152600401610f0a90614fe7565b8060031415611cbf57611ca06019546111e160175490565b341015611cbf5760405162461bcd60e51b8152600401610f0a90614fe7565b8060041415611cf657611cd7601a546111e160175490565b341015611cf65760405162461bcd60e51b8152600401610f0a90614fe7565b60058110611d2057601754341015611d205760405162461bcd60e51b8152600401610f0a90614fe7565b6000611d2b846133b4565b90506000611d38846133b4565b90508181604051602001611d4d92919061503c565b60405160208183030381529060405291506000611d6983611838565b9050611d7481612d4a565b15611db95760405162461bcd60e51b8152602060048201526015602482015274446f6d61696e20616c72656164792065786973747360581b6044820152606401610f0a565b611dc33382613599565b611dcd81846135b3565b807fc5beef08f693b11c316c0c8394a377a0033c9cf701b8cd8afd79cecef60c395284604051611dfd9190614578565b60405180910390a2505050505050565b606080611e1a848461363c565b909590945092505050565b600b546001600160a01b03163314611e4f5760405162461bcd60e51b8152600401610f0a90614eb3565b61157d8161365d565b60006001600160a01b038216611ec35760405162461bcd60e51b815260206004820152602a60248201527f4552433732313a2062616c616e636520717565727920666f7220746865207a65604482015269726f206164647265737360b01b6064820152608401610f0a565b506001600160a01b031660009081526003602052604090205490565b600b546001600160a01b03163314611f095760405162461bcd60e51b8152600401610f0a90614eb3565b6115486000613668565b6000611f1e82612d4a565b611f2757600080fd5b6000828152601160205260409020610e0a906136ba565b611f47336122a5565b611f635760405162461bcd60e51b8152600401610f0a90614ddc565b6001600160a01b038316611fae5760405162461bcd60e51b8152602060048201526012602482015271151bc81859191c995cdcc81a5cc81b9d5b1b60721b6044820152606401610f0a565b8051611fcc5760405162461bcd60e51b8152600401610f0a90614fa5565b611fd581612a83565b15156001146120265760405162461bcd60e51b815260206004820152601a60248201527f546f70206c6576656c20646f6d61696e206e6f742065786973740000000000006044820152606401610f0a565b815161206f5760405162461bcd60e51b8152602060048201526018602482015277446f6d61696e206d757374206265206e6f6e2d656d70747960401b6044820152606401610f0a565b6120788261353a565b156120ba5760405162461bcd60e51b8152602060048201526012602482015271111bdb585a5b881b9bdd081cdd5c1c1bdc9d60721b6044820152606401610f0a565b60006120c5836133b4565b905060006120d2836133b4565b905081816040516020016120e792919061503c565b6040516020818303038152906040529150600061210383611838565b905061210e81612d4a565b156121535760405162461bcd60e51b8152602060048201526015602482015274446f6d61696e20616c72656164792065786973747360581b6044820152606401610f0a565b611dc38682613599565b6001600160a01b038116600090815260136020526040902054606090806121965760405162461bcd60e51b8152600401610f0a90615078565b6121a08382612e16565b6122065760405162461bcd60e51b815260206004820152603160248201527f526576657273655265736f6c7665723a204143434f554e545f49535f4e4f545f60448201527020a8282927ab22a22fa7a92fa7aba722a960791b6064820152608401610f0a565b6000818152601260205260409020805461221f90614da1565b80601f016020809104026020016040519081016040528092919081815260200182805461224b90614da1565b80156122985780601f1061226d57610100808354040283529160200191612298565b820191906000526020600020905b81548152906001019060200180831161227b57829003601f168201915b5050505050915050919050565b6000610e0a600c836136c4565b600b546001600160a01b031633146122dc5760405162461bcd60e51b8152600401610f0a90614eb3565b601892909255601955601a55565b600b546001600160a01b031633146123145760405162461bcd60e51b8152600401610f0a90614eb3565b601755565b606060018054610e1f90614da1565b8161233233611370565b61233b57600080fd5b6111ca84848460405180602001604052806000815250613747565b600061236182611838565b90503361236e8183612e16565b61238a5760405162461bcd60e51b8152600401610f0a90614f39565b6001600160a01b031660009081526013602052604090205550565b6001600160a01b0382163314156123fe5760405162461bcd60e51b815260206004820152601960248201527f4552433732313a20617070726f766520746f2063616c6c6572000000000000006044820152606401610f0a565b3360008181526005602090815260408083206001600160a01b03871680855290835292819020805460ff191686151590811790915590519081529192917f17307eab39ab6107e8899845ad3d59bd9653f200f220920489ca2b5937696c31910160405180910390a35050565b8061247433611370565b61247d57600080fd5b611092612489836118b5565b8484612f69565b600b546001600160a01b031633146124ba5760405162461bcd60e51b8152600401610f0a90614eb3565b60006124c582611838565b60008181526014602090815260409091208451929350611092929091850190614425565b606080836001600160401b0381111561250457612504614953565b60405190808252806020026020018201604052801561253757816020015b60608152602001906001900390816125225790505b509150836001600160401b0381111561255257612552614953565b60405190808252806020026020018201604052801561258557816020015b60608152602001906001900390816125705790505b50905060005b84811015612602576125b58686838181106125a8576125a8614e26565b905060200201358561363c565b8483815181106125c7576125c7614e26565b602002602001018484815181106125e0576125e0614e26565b60200260200101829052829052505080806125fa90614e52565b91505061258b565b50935093915050565b6126153383612e16565b6126315760405162461bcd60e51b8152600401610f0a90614ee8565b61263a82612efc565b6111ca84848484613914565b6000818152600a6020526040902080546060919061266390614da1565b80601f016020809104026020016040519081016040528092919081815260200182805461268f90614da1565b80156126dc5780601f106126b1576101008083540402835291602001916126dc565b820191906000526020600020905b8154815290600101906020018083116126bf57829003601f168201915b50505050509050919050565b60608060006126f684611e58565b9050600081116127225760405162461bcd60e51b81526020600482015260006024820152604401610f0a565b6000816001600160401b0381111561273c5761273c614953565b604051908082528060200260200182016040528015612765578160200160208202803683370190505b5090506000826001600160401b0381111561278257612782614953565b6040519080825280602002602001820160405280156127b557816020015b60608152602001906001900390816127a05790505b50905060005b838110156128bf5760006127cf8883611403565b6000818152601260205260408120805492935090916127ed90614da1565b80601f016020809104026020016040519081016040528092919081815260200182805461281990614da1565b80156128665780601f1061283b57610100808354040283529160200191612866565b820191906000526020600020905b81548152906001019060200180831161284957829003601f168201915b505050505090508185848151811061288057612880614e26565b6020026020010181815250508084848151811061289f5761289f614e26565b6020026020010181905250505080806128b790614e52565b9150506127bb565b50909590945092505050565b816128d533611370565b6128de57600080fd5b6110928383613947565b60006111e76019546111e160175490565b606061290482612d4a565b6129685760405162461bcd60e51b815260206004820152602f60248201527f4552433732314d657461646174613a2055524920717565727920666f72206e6f60448201526e3732bc34b9ba32b73a103a37b5b2b760891b6064820152608401610f0a565b6000828152601260205260408120805461298190614da1565b80601f01602080910402602001604051908101604052809291908181526020018280546129ad90614da1565b80156129fa5780601f106129cf576101008083540402835291602001916129fa565b820191906000526020600020905b8154815290600101906020018083116129dd57829003601f168201915b505050505090506000612a0b6139f3565b9050805160001415612a1e575092915050565b815115612a50578082604051602001612a389291906150c0565b60405160208183030381529060405292505050919050565b8084604051602001612a389291906150ef565b80612a6d33611370565b612a7657600080fd5b6113c68686868686613a02565b60008080612a9084611838565b6000818152601460205260409020805491925090612aad90614da1565b159050612ab957600191505b5092915050565b80612aca33611370565b612ad357600080fd5b6113c68686868686613a70565b600b546001600160a01b03163314612b0a5760405162461bcd60e51b8152600401610f0a90614eb3565b6010805460ff1916911515919091179055565b3360008181526013602052604090205480612b4a5760405162461bcd60e51b8152600401610f0a90615078565b506001600160a01b0316600090815260136020526040812055565b600b546001600160a01b03163314612b8f5760405162461bcd60e51b8152600401610f0a90614eb3565b6001600160a01b038116612bf45760405162461bcd60e51b815260206004820152602660248201527f4f776e61626c653a206e6577206f776e657220697320746865207a65726f206160448201526564647265737360d01b6064820152608401610f0a565b61157d81613668565b6060816001600160401b03811115612c1757612c17614953565b604051908082528060200260200182016040528015612c4a57816020015b6060815260200190600190039081612c355790505b50905060005b82811015612ab957612c79848483818110612c6d57612c6d614e26565b90506020020135612646565b828281518110612c8b57612c8b614e26565b60200260200101819052508080612ca190614e52565b915050612c50565b612cb382826136c4565b15612d005760405162461bcd60e51b815260206004820152601f60248201527f526f6c65733a206163636f756e7420616c72656164792068617320726f6c65006044820152606401610f0a565b6001600160a01b0316600090815260209190915260409020805460ff19166001179055565b60006001600160e01b0319821663780e9d6360e01b1480610e0a5750610e0a82613a86565b6000908152600260205260409020546001600160a01b0316151590565b600081815260046020526040902080546001600160a01b0319166001600160a01b0384169081179091558190612d9c826118b5565b6001600160a01b03167f8c5be1e5ebec7d5bd14f71427d1e84f3dd0314c0f7b2291e5b200ac8c7c3b92560405160405180910390a45050565b60006113fc8284615111565b60606113fc83604051602001612df79190614f89565b6040516020818303038152906040528051906020012060001c83613ad6565b6000612e2182612d4a565b612e825760405162461bcd60e51b815260206004820152602c60248201527f4552433732313a206f70657261746f7220717565727920666f72206e6f6e657860448201526b34b9ba32b73a103a37b5b2b760a11b6064820152608401610f0a565b6000612e8d836118b5565b9050806001600160a01b0316846001600160a01b03161480612ec85750836001600160a01b0316612ebd84610ea2565b6001600160a01b0316145b8061132557506001600160a01b0380821660009081526005602090815260408083209388168352929052205460ff16611325565b612f0581613b95565b604051602001612f1791815260200190565b60408051601f1981840301815282825280516020918201206000858152600e9092529181209190915582917f185c30856dadb58bf097c1f665a52ada7029752dbcad008ea3fefc73bee8c9fe9190a250565b826001600160a01b0316612f7c826118b5565b6001600160a01b031614612fe45760405162461bcd60e51b815260206004820152602960248201527f4552433732313a207472616e73666572206f6620746f6b656e2074686174206960448201526839903737ba1037bbb760b91b6064820152608401610f0a565b6001600160a01b0382166130465760405162461bcd60e51b8152602060048201526024808201527f4552433732313a207472616e7366657220746f20746865207a65726f206164646044820152637265737360e01b6064820152608401610f0a565b613051838383613bc1565b61305c600082612d67565b6001600160a01b0383166000908152600360205260408120805460019290613085908490615130565b90915550506001600160a01b03821660009081526003602052604081208054600192906130b3908490615147565b909155505060008181526002602052604080822080546001600160a01b0319166001600160a01b0386811691821790925591518493918716917fddf252ad1be2c89b69c2b068fc378daa952ba7f163c4a11628f55a4df523b3ef91a4505050565b60005b848110156113c65761316586868381811061313457613134614e26565b9050602002013585858481811061314d5761314d614e26565b905060200281019061315f9190614e6d565b85613314565b8061316f81614e52565b915050613117565b60006113fc8383613bcc565b61157d600c82612ca9565b6000613199826118b5565b90506131a781600084613bc1565b6131b2600083612d67565b6001600160a01b03811660009081526003602052604081208054600192906131db908490615130565b909155505060008281526002602052604080822080546001600160a01b0319169055518391906001600160a01b038416907fddf252ad1be2c89b69c2b068fc378daa952ba7f163c4a11628f55a4df523b3ef908390a45050565b6000858560405160200161324a92919061515f565b60408051601f198184030181528282528051602091820120601f890182900482028401820190925287835290925061329e918391899089908190840183828082843760009201919091525061350e92505050565b6113c68187878080601f01602080910402602001604051908101604052809392919081815260200183838082843760009201919091525050604080516020601f8b018190048102820181019092528981529250899150889081908401838280828437600092019190915250889250613bf6915050565b61331d84613d31565b6133695760405162461bcd60e51b815260206004820152601c60248201527f5265636f726453746f726167653a204b45595f4e4f545f464f554e44000000006044820152606401610f0a565b6111ca8461337686612646565b85858080601f016020809104026020016040519081016040528093929190818152602001838380828437600092019190915250879250613bf6915050565b60606000829050600081516001600160401b038111156133d6576133d6614953565b6040519080825280601f01601f191660200182016040528015613400576020820181803683370190505b50905060005b82518110156112da57604183828151811061342357613423614e26565b016020015160f81c108015906134535750605a83828151811061344857613448614e26565b016020015160f81c11155b156134b55782818151811061346a5761346a614e26565b602001015160f81c60f81b60f81c6020613484919061516f565b60f81b82828151811061349957613499614e26565b60200101906001600160f81b031916908160001a9053506134fc565b8281815181106134c7576134c7614e26565b602001015160f81c60f81b8282815181106134e4576134e4614e26565b60200101906001600160f81b031916908160001a9053505b8061350681614e52565b915050613406565b61351782613d31565b6114b5576000828152600a60209081526040909120825161109292840190614425565b805160009060018381019184010182805b8284101561359057835160ff16602e81141561356f5761356c600184615147565b92505b61357a600186615147565b945050808061358890614e52565b91505061354b565b50949350505050565b6114b5828260405180602001604052806000815250613d57565b6135bc82612d4a565b61361d5760405162461bcd60e51b815260206004820152602c60248201527f4552433732314d657461646174613a2055524920736574206f66206e6f6e657860448201526b34b9ba32b73a103a37b5b2b760a11b6064820152608401610f0a565b6000828152601260209081526040909120825161109292840190614425565b60608061364884612646565b91506136548484613ad6565b90509250929050565b61157d600c82613d8a565b600b80546001600160a01b038381166001600160a01b0319831681179093556040519116919082907f8be0079c531659141344cd1fd0a4f28419497f9722a3daafe3b4186f6b6457e090600090a35050565b6000610e0a825490565b60006001600160a01b0382166137275760405162461bcd60e51b815260206004820152602260248201527f526f6c65733a206163636f756e7420697320746865207a65726f206164647265604482015261737360f01b6064820152608401610f0a565b506001600160a01b03166000908152602091909152604090205460ff1690565b6001600160a01b03841661375a57600080fd5b815161376557600080fd5b61376e8261353a565b1561377857600080fd5b61378183612d4a565b61378a57600080fd5b6000613795836133b4565b9050600081601260008781526020019081526020016000206040516020016137be929190615194565b604051602081830303815290604052905060006137da82611838565b905060006138826012600089815260200190815260200160002080546137ff90614da1565b80601f016020809104026020016040519081016040528092919081815260200182805461382b90614da1565b80156138785780601f1061384d57610100808354040283529160200191613878565b820191906000526020600020905b81548152906001019060200180831161385b57829003601f168201915b505050505061353a565b905080600114156138a75760008781526011602052604090206138a59083613e0c565b505b8451156138be576138b9888387613d57565b6138c8565b6138c88883613599565b6138d282846135b3565b817fc5beef08f693b11c316c0c8394a377a0033c9cf701b8cd8afd79cecef60c3952846040516139029190614578565b60405180910390a25050505050505050565b61391f848484612f69565b61392b84848484613e18565b6111ca5760405162461bcd60e51b8152600401610f0a90615254565b6000613952826133b4565b90506000816012600086815260200190815260200160002060405160200161397b929190615194565b6040516020818303038152906040529050600061399782611838565b60008681526011602052604090209091506139b29082613f16565b50600081815260126020526040902080546139cc90614da1565b1590506139ea5760008181526012602052604081206139ea916143eb565b61170a8161318e565b606060158054610e1f90614da1565b60005b848110156113c657613a5e868683818110613a2257613a22614e26565b9050602002810190613a349190614e6d565b868685818110613a4657613a46614e26565b9050602002810190613a589190614e6d565b86613235565b80613a6881614e52565b915050613a05565b613a7981612efc565b61170a8585858585613a02565b60006001600160e01b031982166380ac58cd60e01b1480613ab757506001600160e01b03198216635b5e139f60e01b145b80610e0a57506301ffc9a760e01b6001600160e01b0319831614610e0a565b6060600d6000613ae584613b95565b815260200190815260200160002060008481526020019081526020016000208054613b0f90614da1565b80601f0160208091040260200160405190810160405280929190818152602001828054613b3b90614da1565b8015613b885780601f10613b5d57610100808354040283529160200191613b88565b820191906000526020600020905b815481529060010190602001808311613b6b57829003601f168201915b5050505050905092915050565b6000818152600e602052604081205415613bbd576000828152600e6020526040902054610e0a565b5090565b611092838383613f22565b6000826000018281548110613be357613be3614e26565b9060005260206000200154905092915050565b600d6000613c0383613b95565b815260200190815260200160002060008581526020019081526020016000208054613c2d90614da1565b15159050613c845782604051613c439190614f89565b6040518091039020817f7ae4f661958fbecc2f77be6b0eb280d2a6f604b29e1e7221c82b9da0c4af7f8685604051613c7b9190614578565b60405180910390a35b81600d6000613c9284613b95565b815260200190815260200160002060008681526020019081526020016000209080519060200190613cc4929190614425565b5081604051613cd39190614f89565b604051809103902083604051613ce99190614f89565b6040518091039020827f851ffe8e74d5015261dba0a1f9e1b0e5d42c5af5d2ad1908fee897c7d80a0d928686604051613d23929190614a95565b60405180910390a450505050565b6000818152600a602052604081208054829190613d4d90614da1565b9050119050919050565b613d618383613fda565b613d6e6000848484613e18565b6110925760405162461bcd60e51b8152600401610f0a90615254565b613d9482826136c4565b613dea5760405162461bcd60e51b815260206004820152602160248201527f526f6c65733a206163636f756e7420646f6573206e6f74206861766520726f6c6044820152606560f81b6064820152608401610f0a565b6001600160a01b0316600090815260209190915260409020805460ff19169055565b60006113fc8383614119565b60006001600160a01b0384163b15613f0b57604051630a85bd0160e11b81526001600160a01b0385169063150b7a0290613e5c9033908990889088906004016152a6565b6020604051808303816000875af1925050508015613e97575060408051601f3d908101601f19168201909252613e94918101906152d9565b60015b613ef1573d808015613ec5576040519150601f19603f3d011682016040523d82523d6000602084013e613eca565b606091505b508051613ee95760405162461bcd60e51b8152600401610f0a90615254565b805181602001fd5b6001600160e01b031916630a85bd0160e11b149050611325565b506001949350505050565b60006113fc8383614168565b6001600160a01b038316613f7d57613f7881600880546000838152600960205260408120829055600182018355919091527ff3f7a9fe364faab93b216da50a3214154f22a0a2b415b23a84c8169e8b636ee30155565b613fa0565b816001600160a01b0316836001600160a01b031614613fa057613fa0838261425b565b6001600160a01b038216613fb757611092816142f8565b826001600160a01b0316826001600160a01b0316146110925761109282826143a7565b6001600160a01b0382166140305760405162461bcd60e51b815260206004820181905260248201527f4552433732313a206d696e7420746f20746865207a65726f20616464726573736044820152606401610f0a565b61403981612d4a565b156140865760405162461bcd60e51b815260206004820152601c60248201527f4552433732313a20746f6b656e20616c7265616479206d696e746564000000006044820152606401610f0a565b61409260008383613bc1565b6001600160a01b03821660009081526003602052604081208054600192906140bb908490615147565b909155505060008181526002602052604080822080546001600160a01b0319166001600160a01b03861690811790915590518392907fddf252ad1be2c89b69c2b068fc378daa952ba7f163c4a11628f55a4df523b3ef908290a45050565b600081815260018301602052604081205461416057508154600181810184556000848152602080822090930184905584548482528286019093526040902091909155610e0a565b506000610e0a565b6000818152600183016020526040812054801561425157600061418c600183615130565b85549091506000906141a090600190615130565b90508181146142055760008660000182815481106141c0576141c0614e26565b90600052602060002001549050808760000184815481106141e3576141e3614e26565b6000918252602080832090910192909255918252600188019052604090208390555b8554869080614216576142166152f6565b600190038181906000526020600020016000905590558560010160008681526020019081526020016000206000905560019350505050610e0a565b6000915050610e0a565b6000600161426884611e58565b6142729190615130565b6000838152600760205260409020549091508082146142c5576001600160a01b03841660009081526006602090815260408083208584528252808320548484528184208190558352600790915290208190555b5060009182526007602090815260408084208490556001600160a01b039094168352600681528383209183525290812055565b60085460009061430a90600190615130565b6000838152600960205260408120546008805493945090928490811061433257614332614e26565b90600052602060002001549050806008838154811061435357614353614e26565b600091825260208083209091019290925582815260099091526040808220849055858252812055600880548061438b5761438b6152f6565b6001900381819060005260206000200160009055905550505050565b60006143b283611e58565b6001600160a01b039093166000908152600660209081526040808320868452825280832085905593825260079052919091209190915550565b5080546143f790614da1565b6000825580601f10614407575050565b601f01602090049060005260206000209081019061157d91906144a1565b82805461443190614da1565b90600052602060002090601f0160209004810192826144535760008555614499565b82601f1061446c57805160ff1916838001178555614499565b82800160010185558215614499579182015b8281111561449957825182559160200191906001019061447e565b50613bbd9291505b5b80821115613bbd57600081556001016144a2565b6001600160e01b03198116811461157d57600080fd5b6000602082840312156144de57600080fd5b81356113fc816144b6565b80356001600160a01b038116811461450057600080fd5b919050565b60006020828403121561451757600080fd5b6113fc826144e9565b60005b8381101561453b578181015183820152602001614523565b838111156111ca5750506000910152565b60008151808452614564816020860160208601614520565b601f01601f19169290920160200192915050565b6020815260006113fc602083018461454c565b60006020828403121561459d57600080fd5b5035919050565b803560ff8116811461450057600080fd5b600080604083850312156145c857600080fd5b6145d1836144e9565b9150613654602084016145a4565b600080604083850312156145f257600080fd5b6145fb836144e9565b946020939093013593505050565b60008083601f84011261461b57600080fd5b5081356001600160401b0381111561463257600080fd5b6020830191508360208260051b850101111561464d57600080fd5b9250929050565b60008060006040848603121561466957600080fd5b83356001600160401b0381111561467f57600080fd5b61468b86828701614609565b909450925061469e9050602085016145a4565b90509250925092565b6000806000604084860312156146bc57600080fd5b83356001600160401b038111156146d257600080fd5b6146de86828701614609565b909790965060209590950135949350505050565b6000815180845260208085019450848260051b860182860160005b8581101561473757838303895261472583835161454c565b9885019892509084019060010161470d565b5090979650505050505050565b6020815260006113fc60208301846146f2565b60008083601f84011261476957600080fd5b5081356001600160401b0381111561478057600080fd5b60208301915083602082850101111561464d57600080fd5b6000806000604084860312156147ad57600080fd5b83356001600160401b038111156147c357600080fd5b6146de86828701614757565b6000806000606084860312156147e457600080fd5b6147ed846144e9565b92506147fb602085016144e9565b9150604084013590509250925092565b60008060008060006060868803121561482357600080fd5b85356001600160401b038082111561483a57600080fd5b61484689838a01614609565b9097509550602088013591508082111561485f57600080fd5b5061486c88828901614609565b96999598509660400135949350505050565b6000806040838503121561489157600080fd5b50508035926020909101359150565b6000806000806000606086880312156148b857600080fd5b85356001600160401b03808211156148cf57600080fd5b6148db89838a01614757565b909750955060208801359150808211156148f457600080fd5b5061486c88828901614757565b6000806000806060858703121561491757600080fd5b8435935060208501356001600160401b0381111561493457600080fd5b61494087828801614757565b9598909750949560400135949350505050565b634e487b7160e01b600052604160045260246000fd5b60006001600160401b038084111561498357614983614953565b604051601f8501601f19908116603f011681019082821181831017156149ab576149ab614953565b816040528093508581528686860111156149c457600080fd5b858560208301376000602087830101525050509392505050565b600082601f8301126149ef57600080fd5b6113fc83833560208501614969565b600060208284031215614a1057600080fd5b81356001600160401b03811115614a2657600080fd5b611325848285016149de565b60008060408385031215614a4557600080fd5b82356001600160401b0380821115614a5c57600080fd5b614a68868387016149de565b93506020850135915080821115614a7e57600080fd5b50614a8b858286016149de565b9150509250929050565b604081526000614aa8604083018561454c565b8281036020840152614aba818561454c565b95945050505050565b600080600060608486031215614ad857600080fd5b614ae1846144e9565b925060208401356001600160401b0380821115614afd57600080fd5b614b09878388016149de565b93506040860135915080821115614b1f57600080fd5b50614b2c868287016149de565b9150509250925092565b600080600060608486031215614b4b57600080fd5b505081359360208301359350604090920135919050565b600080600060608486031215614b7757600080fd5b614b80846144e9565b92506020840135915060408401356001600160401b03811115614ba257600080fd5b614b2c868287016149de565b8035801515811461450057600080fd5b60008060408385031215614bd157600080fd5b614bda836144e9565b915061365460208401614bae565b604081526000614bfb60408301856146f2565b8281036020840152614aba81856146f2565b60008060008060808587031215614c2357600080fd5b614c2c856144e9565b9350614c3a602086016144e9565b92506040850135915060608501356001600160401b03811115614c5c57600080fd5b8501601f81018713614c6d57600080fd5b614c7c87823560208401614969565b91505092959194509250565b604080825283519082018190526000906020906060840190828701845b82811015614cc157815184529284019290840190600101614ca5565b50505083810382850152614cd581866146f2565b9695505050505050565b60008060408385031215614cf257600080fd5b8235915060208301356001600160401b03811115614d0f57600080fd5b614a8b858286016149de565b60008060408385031215614d2e57600080fd5b614d37836144e9565b9150613654602084016144e9565b600060208284031215614d5757600080fd5b6113fc82614bae565b60008060208385031215614d7357600080fd5b82356001600160401b03811115614d8957600080fd5b614d9585828601614609565b90969095509350505050565b600181811c90821680614db557607f821691505b60208210811415614dd657634e487b7160e01b600052602260045260246000fd5b50919050565b6020808252602a908201527f41646d696e436f6e74726f6c3a2073656e646572206d75737420686173206d696040820152696e74696e6720726f6c6560b01b606082015260800190565b634e487b7160e01b600052603260045260246000fd5b634e487b7160e01b600052601160045260246000fd5b6000600019821415614e6657614e66614e3c565b5060010190565b6000808335601e19843603018112614e8457600080fd5b8301803591506001600160401b03821115614e9e57600080fd5b60200191503681900382131561464d57600080fd5b6020808252818101527f4f776e61626c653a2063616c6c6572206973206e6f7420746865206f776e6572604082015260600190565b60208082526031908201527f4552433732313a207472616e736665722063616c6c6572206973206e6f74206f6040820152701ddb995c881b9bdc88185c1c1c9bdd9959607a1b606082015260800190565b60208082526030908201527f526576657273655265736f6c7665723a2053454e4445525f49535f4e4f545f4160408201526f28282927ab22a22fa7a92fa7aba722a960811b606082015260800190565b60008251614f9b818460208701614520565b9190910192915050565b60208082526022908201527f546f70206c6576656c20646f6d61696e206d757374206265206e6f6e2d656d70604082015261747960f01b606082015260800190565b60208082526035908201527f496e73756666696369656e7420546f6b656e206f7220546f6b656e2076616c7560408201527419481cd95b9d081a5cc81b9bdd0818dbdc9c9958dd605a1b606082015260800190565b6000835161504e818460208801614520565b601760f91b908301908152835161506c816001840160208801614520565b01600101949350505050565b60208082526028908201527f526576657273655265736f6c7665723a20524556455253455f5245434f52445f60408201526749535f454d50545960c01b606082015260800190565b600083516150d2818460208801614520565b8351908301906150e6818360208801614520565b01949350505050565b60008351615101818460208801614520565b9190910191825250602001919050565b600081600019048311821515161561512b5761512b614e3c565b500290565b60008282101561514257615142614e3c565b500390565b6000821982111561515a5761515a614e3c565b500190565b8183823760009101908152919050565b600060ff821660ff84168060ff0382111561518c5761518c614e3c565b019392505050565b6000835160206151a78285838901614520565b601760f91b918401918252845460019060009080831c818416806151cc57607f821691505b8582108114156151ea57634e487b7160e01b84526022600452602484fd5b8080156151fe576001811461521357615244565b60ff1984168887015282880186019450615244565b60008b81526020902060005b8481101561523a5781548a820189015290870190880161521f565b5050858389010194505b50929a9950505050505050505050565b60208082526032908201527f4552433732313a207472616e7366657220746f206e6f6e20455243373231526560408201527131b2b4bb32b91034b6b83632b6b2b73a32b960711b606082015260800190565b6001600160a01b0385811682528416602082015260408101839052608060608201819052600090614cd59083018461454c565b6000602082840312156152eb57600080fd5b81516113fc816144b6565b634e487b7160e01b600052603160045260246000fdfea2646970667358221220c11462c2c5adc6a42e4610ee74b2bbf3e6384b77a34069967dfe83cfef5eb9b564736f6c634300080c0033",
			"opcodes": "PUSH1 0x10 DUP1 SLOAD PUSH1 0xFF NOT AND SWAP1 SSTORE PUSH1 0xA0 PUSH1 0x40 DUP2 SWAP1 MSTORE PUSH1 0x0 PUSH1 0x80 DUP2 SWAP1 MSTORE PUSH3 0x25 SWAP2 PUSH1 0x15 SWAP2 PUSH3 0x26C JUMP JUMPDEST POP PUSH1 0x16 DUP1 SLOAD PUSH2 0xFFFF NOT AND PUSH1 0x1 OR SWAP1 SSTORE PUSH8 0xDE0B6B3A7640000 PUSH1 0x17 SSTORE PUSH1 0x64 PUSH1 0x18 SSTORE PUSH1 0xA PUSH1 0x19 SSTORE PUSH1 0x5 PUSH1 0x1A SSTORE CALLVALUE DUP1 ISZERO PUSH3 0x5C JUMPI PUSH1 0x0 DUP1 REVERT JUMPDEST POP PUSH1 0x40 DUP1 MLOAD DUP1 DUP3 ADD DUP3 MSTORE PUSH1 0xB DUP2 MSTORE PUSH11 0x57656233446F6D61696E73 PUSH1 0xA8 SHL PUSH1 0x20 DUP1 DUP4 ADD SWAP2 DUP3 MSTORE DUP4 MLOAD DUP1 DUP6 ADD SWAP1 SWAP5 MSTORE PUSH1 0x3 DUP5 MSTORE PUSH3 0x15CCD1 PUSH1 0xEA SHL SWAP1 DUP5 ADD MSTORE DUP2 MLOAD SWAP2 SWAP3 SWAP2 PUSH3 0xAB SWAP2 PUSH1 0x0 SWAP2 PUSH3 0x26C JUMP JUMPDEST POP DUP1 MLOAD PUSH3 0xC1 SWAP1 PUSH1 0x1 SWAP1 PUSH1 0x20 DUP5 ADD SWAP1 PUSH3 0x26C JUMP JUMPDEST POP POP POP PUSH3 0xDE PUSH3 0xD8 PUSH3 0xEF PUSH1 0x20 SHL PUSH1 0x20 SHR JUMP JUMPDEST PUSH3 0xF3 JUMP JUMPDEST PUSH3 0xE9 CALLER PUSH3 0x145 JUMP JUMPDEST PUSH3 0x34F JUMP JUMPDEST CALLER SWAP1 JUMP JUMPDEST PUSH1 0xB DUP1 SLOAD PUSH1 0x1 PUSH1 0x1 PUSH1 0xA0 SHL SUB DUP4 DUP2 AND PUSH1 0x1 PUSH1 0x1 PUSH1 0xA0 SHL SUB NOT DUP4 AND DUP2 OR SWAP1 SWAP4 SSTORE PUSH1 0x40 MLOAD SWAP2 AND SWAP2 SWAP1 DUP3 SWAP1 PUSH32 0x8BE0079C531659141344CD1FD0A4F28419497F9722A3DAAFE3B4186F6B6457E0 SWAP1 PUSH1 0x0 SWAP1 LOG3 POP POP JUMP JUMPDEST PUSH3 0x160 DUP2 PUSH1 0xC PUSH3 0x163 PUSH1 0x20 SHL PUSH3 0x2CA9 OR SWAP1 SWAP2 SWAP1 PUSH1 0x20 SHR JUMP JUMPDEST POP JUMP JUMPDEST PUSH3 0x16F DUP3 DUP3 PUSH3 0x1E7 JUMP JUMPDEST ISZERO PUSH3 0x1C2 JUMPI PUSH1 0x40 MLOAD PUSH3 0x461BCD PUSH1 0xE5 SHL DUP2 MSTORE PUSH1 0x20 PUSH1 0x4 DUP3 ADD MSTORE PUSH1 0x1F PUSH1 0x24 DUP3 ADD MSTORE PUSH32 0x526F6C65733A206163636F756E7420616C72656164792068617320726F6C6500 PUSH1 0x44 DUP3 ADD MSTORE PUSH1 0x64 ADD JUMPDEST PUSH1 0x40 MLOAD DUP1 SWAP2 SUB SWAP1 REVERT JUMPDEST PUSH1 0x1 PUSH1 0x1 PUSH1 0xA0 SHL SUB AND PUSH1 0x0 SWAP1 DUP2 MSTORE PUSH1 0x20 SWAP2 SWAP1 SWAP2 MSTORE PUSH1 0x40 SWAP1 KECCAK256 DUP1 SLOAD PUSH1 0xFF NOT AND PUSH1 0x1 OR SWAP1 SSTORE JUMP JUMPDEST PUSH1 0x0 PUSH1 0x1 PUSH1 0x1 PUSH1 0xA0 SHL SUB DUP3 AND PUSH3 0x24C JUMPI PUSH1 0x40 MLOAD PUSH3 0x461BCD PUSH1 0xE5 SHL DUP2 MSTORE PUSH1 0x20 PUSH1 0x4 DUP3 ADD MSTORE PUSH1 0x22 PUSH1 0x24 DUP3 ADD MSTORE PUSH32 0x526F6C65733A206163636F756E7420697320746865207A65726F206164647265 PUSH1 0x44 DUP3 ADD MSTORE PUSH2 0x7373 PUSH1 0xF0 SHL PUSH1 0x64 DUP3 ADD MSTORE PUSH1 0x84 ADD PUSH3 0x1B9 JUMP JUMPDEST POP PUSH1 0x1 PUSH1 0x1 PUSH1 0xA0 SHL SUB AND PUSH1 0x0 SWAP1 DUP2 MSTORE PUSH1 0x20 SWAP2 SWAP1 SWAP2 MSTORE PUSH1 0x40 SWAP1 KECCAK256 SLOAD PUSH1 0xFF AND SWAP1 JUMP JUMPDEST DUP3 DUP1 SLOAD PUSH3 0x27A SWAP1 PUSH3 0x312 JUMP JUMPDEST SWAP1 PUSH1 0x0 MSTORE PUSH1 0x20 PUSH1 0x0 KECCAK256 SWAP1 PUSH1 0x1F ADD PUSH1 0x20 SWAP1 DIV DUP2 ADD SWAP3 DUP3 PUSH3 0x29E JUMPI PUSH1 0x0 DUP6 SSTORE PUSH3 0x2E9 JUMP JUMPDEST DUP3 PUSH1 0x1F LT PUSH3 0x2B9 JUMPI DUP1 MLOAD PUSH1 0xFF NOT AND DUP4 DUP1 ADD OR DUP6 SSTORE PUSH3 0x2E9 JUMP JUMPDEST DUP3 DUP1 ADD PUSH1 0x1 ADD DUP6 SSTORE DUP3 ISZERO PUSH3 0x2E9 JUMPI SWAP2 DUP3 ADD JUMPDEST DUP3 DUP2 GT ISZERO PUSH3 0x2E9 JUMPI DUP3 MLOAD DUP3 SSTORE SWAP2 PUSH1 0x20 ADD SWAP2 SWAP1 PUSH1 0x1 ADD SWAP1 PUSH3 0x2CC JUMP JUMPDEST POP PUSH3 0x2F7 SWAP3 SWAP2 POP PUSH3 0x2FB JUMP JUMPDEST POP SWAP1 JUMP JUMPDEST JUMPDEST DUP1 DUP3 GT ISZERO PUSH3 0x2F7 JUMPI PUSH1 0x0 DUP2 SSTORE PUSH1 0x1 ADD PUSH3 0x2FC JUMP JUMPDEST PUSH1 0x1 DUP2 DUP2 SHR SWAP1 DUP3 AND DUP1 PUSH3 0x327 JUMPI PUSH1 0x7F DUP3 AND SWAP2 POP JUMPDEST PUSH1 0x20 DUP3 LT DUP2 EQ ISZERO PUSH3 0x349 JUMPI PUSH4 0x4E487B71 PUSH1 0xE0 SHL PUSH1 0x0 MSTORE PUSH1 0x22 PUSH1 0x4 MSTORE PUSH1 0x24 PUSH1 0x0 REVERT JUMPDEST POP SWAP2 SWAP1 POP JUMP JUMPDEST PUSH2 0x5342 DUP1 PUSH3 0x35F PUSH1 0x0 CODECOPY PUSH1 0x0 RETURN INVALID PUSH1 0x80 PUSH1 0x40 MSTORE PUSH1 0x4 CALLDATASIZE LT PUSH2 0x447 JUMPI PUSH1 0x0 CALLDATALOAD PUSH1 0xE0 SHR DUP1 PUSH4 0x65064370 GT PUSH2 0x234 JUMPI DUP1 PUSH4 0xAB3B87FE GT PUSH2 0x12E JUMPI DUP1 PUSH4 0xCE92B33E GT PUSH2 0xB6 JUMPI DUP1 PUSH4 0xEC129EEA GT PUSH2 0x7A JUMPI DUP1 PUSH4 0xEC129EEA EQ PUSH2 0xD6A JUMPI DUP1 PUSH4 0xECEB7D52 EQ PUSH2 0xD8A JUMPI DUP1 PUSH4 0xF25EB5C1 EQ PUSH2 0xDAA JUMPI DUP1 PUSH4 0xF2FDE38B EQ PUSH2 0xDBF JUMPI DUP1 PUSH4 0xF5C1F76E EQ PUSH2 0xDDF JUMPI PUSH1 0x0 DUP1 REVERT JUMPDEST DUP1 PUSH4 0xCE92B33E EQ PUSH2 0xC91 JUMPI DUP1 PUSH4 0xD2315630 EQ PUSH2 0xCB1 JUMPI DUP1 PUSH4 0xD439DAA2 EQ PUSH2 0xCC6 JUMPI DUP1 PUSH4 0xE5F9DA88 EQ PUSH2 0xD01 JUMPI DUP1 PUSH4 0xE985E9C5 EQ PUSH2 0xD21 JUMPI PUSH1 0x0 DUP1 REVERT JUMPDEST DUP1 PUSH4 0xBB5B27E1 GT PUSH2 0xFD JUMPI DUP1 PUSH4 0xBB5B27E1 EQ PUSH2 0xBEE JUMPI DUP1 PUSH4 0xBC7C8CEB EQ PUSH2 0xC0E JUMPI DUP1 PUSH4 0xC479A804 EQ PUSH2 0xC3C JUMPI DUP1 PUSH4 0xC6438CB8 EQ PUSH2 0xC5C JUMPI DUP1 PUSH4 0xC87B56DD EQ PUSH2 0xC71 JUMPI PUSH1 0x0 DUP1 REVERT JUMPDEST DUP1 PUSH4 0xAB3B87FE EQ PUSH2 0xB60 JUMPI DUP1 PUSH4 0xAD59E226 EQ PUSH2 0xB80 JUMPI DUP1 PUSH4 0xB85AFD28 EQ PUSH2 0xBA0 JUMPI DUP1 PUSH4 0xB88D4FDE EQ PUSH2 0xBCE JUMPI PUSH1 0x0 DUP1 REVERT JUMPDEST DUP1 PUSH4 0x7EF09BCA GT PUSH2 0x1BC JUMPI DUP1 PUSH4 0x98A60243 GT PUSH2 0x180 JUMPI DUP1 PUSH4 0x98A60243 EQ PUSH2 0xAB2 JUMPI DUP1 PUSH4 0x98D5FDCA EQ PUSH2 0xAD2 JUMPI DUP1 PUSH4 0x9CBF529D EQ PUSH2 0xAE7 JUMPI DUP1 PUSH4 0xA22CB465 EQ PUSH2 0xB07 JUMPI DUP1 PUSH4 0xA736868B EQ PUSH2 0xB27 JUMPI PUSH1 0x0 DUP1 REVERT JUMPDEST DUP1 PUSH4 0x7EF09BCA EQ PUSH2 0xA1F JUMPI DUP1 PUSH4 0x8DA5CB5B EQ PUSH2 0xA3F JUMPI DUP1 PUSH4 0x8F704AEC EQ PUSH2 0xA5D JUMPI DUP1 PUSH4 0x91B7F5ED EQ PUSH2 0xA7D JUMPI DUP1 PUSH4 0x95D89B41 EQ PUSH2 0xA9D JUMPI PUSH1 0x0 DUP1 REVERT JUMPDEST DUP1 PUSH4 0x70A08231 GT PUSH2 0x203 JUMPI DUP1 PUSH4 0x70A08231 EQ PUSH2 0x98A JUMPI DUP1 PUSH4 0x715018A6 EQ PUSH2 0x9AA JUMPI DUP1 PUSH4 0x76F909AE EQ PUSH2 0x9BF JUMPI DUP1 PUSH4 0x77E9D00B EQ PUSH2 0x9DF JUMPI DUP1 PUSH4 0x7E37479E EQ PUSH2 0x9FF JUMPI PUSH1 0x0 DUP1 REVERT JUMPDEST DUP1 PUSH4 0x65064370 EQ PUSH2 0x914 JUMPI DUP1 PUSH4 0x672B9F81 EQ PUSH2 0x927 JUMPI DUP1 PUSH4 0x69E2F0FB EQ PUSH2 0x955 JUMPI DUP1 PUSH4 0x6BC2290F EQ PUSH2 0x975 JUMPI PUSH1 0x0 DUP1 REVERT JUMPDEST DUP1 PUSH4 0x384E9A55 GT PUSH2 0x345 JUMPI DUP1 PUSH4 0x4AAF4A12 GT PUSH2 0x2CD JUMPI DUP1 PUSH4 0x50B3A144 GT PUSH2 0x291 JUMPI DUP1 PUSH4 0x50B3A144 EQ PUSH2 0x880 JUMPI DUP1 PUSH4 0x55F804B3 EQ PUSH2 0x8A0 JUMPI DUP1 PUSH4 0x573F5DAE EQ PUSH2 0x8C0 JUMPI DUP1 PUSH4 0x5D893BA0 EQ PUSH2 0x8DA JUMPI DUP1 PUSH4 0x6352211E EQ PUSH2 0x8F4 JUMPI PUSH1 0x0 DUP1 REVERT JUMPDEST DUP1 PUSH4 0x4AAF4A12 EQ PUSH2 0x7EB JUMPI DUP1 PUSH4 0x4CD637B5 EQ PUSH2 0x80B JUMPI DUP1 PUSH4 0x4F558E79 EQ PUSH2 0x820 JUMPI DUP1 PUSH4 0x4F6CCCE7 EQ PUSH2 0x840 JUMPI DUP1 PUSH4 0x50382C1A EQ PUSH2 0x860 JUMPI PUSH1 0x0 DUP1 REVERT JUMPDEST DUP1 PUSH4 0x42966C68 GT PUSH2 0x314 JUMPI DUP1 PUSH4 0x42966C68 EQ PUSH2 0x756 JUMPI DUP1 PUSH4 0x430C2081 EQ PUSH2 0x776 JUMPI DUP1 PUSH4 0x4500D449 EQ PUSH2 0x796 JUMPI DUP1 PUSH4 0x47C81699 EQ PUSH2 0x7AB JUMPI DUP1 PUSH4 0x4A72584D EQ PUSH2 0x7CB JUMPI PUSH1 0x0 DUP1 REVERT JUMPDEST DUP1 PUSH4 0x384E9A55 EQ PUSH2 0x6EE JUMPI DUP1 PUSH4 0x3CCFD60B EQ PUSH2 0x70E JUMPI DUP1 PUSH4 0x3DD1EB61 EQ PUSH2 0x716 JUMPI DUP1 PUSH4 0x42842E0E EQ PUSH2 0x736 JUMPI PUSH1 0x0 DUP1 REVERT JUMPDEST DUP1 PUSH4 0x18160DDD GT PUSH2 0x3D3 JUMPI DUP1 PUSH4 0x27F18975 GT PUSH2 0x397 JUMPI DUP1 PUSH4 0x27F18975 EQ PUSH2 0x659 JUMPI DUP1 PUSH4 0x2DC50D9A EQ PUSH2 0x679 JUMPI DUP1 PUSH4 0x2F745C59 EQ PUSH2 0x699 JUMPI DUP1 PUSH4 0x310BD74B EQ PUSH2 0x6B9 JUMPI DUP1 PUSH4 0x358DEB1C EQ PUSH2 0x6D9 JUMPI PUSH1 0x0 DUP1 REVERT JUMPDEST DUP1 PUSH4 0x18160DDD EQ PUSH2 0x5C2 JUMPI DUP1 PUSH4 0x1BD8CC1A EQ PUSH2 0x5D7 JUMPI DUP1 PUSH4 0x1BE5E7ED EQ PUSH2 0x604 JUMPI DUP1 PUSH4 0x1ED40559 EQ PUSH2 0x624 JUMPI DUP1 PUSH4 0x23B872DD EQ PUSH2 0x639 JUMPI PUSH1 0x0 DUP1 REVERT JUMPDEST DUP1 PUSH4 0x826A0BD GT PUSH2 0x41A JUMPI DUP1 PUSH4 0x826A0BD EQ PUSH2 0x51D JUMPI DUP1 PUSH4 0x95EA7B3 EQ PUSH2 0x53F JUMPI DUP1 PUSH4 0xBB78EC1 EQ PUSH2 0x55F JUMPI DUP1 PUSH4 0xCF89145 EQ PUSH2 0x57F JUMPI DUP1 PUSH4 0x157C6138 EQ PUSH2 0x59F JUMPI PUSH1 0x0 DUP1 REVERT JUMPDEST DUP1 PUSH4 0x1FFC9A7 EQ PUSH2 0x44C JUMPI DUP1 PUSH4 0x5D60FFB EQ PUSH2 0x481 JUMPI DUP1 PUSH4 0x6FDDE03 EQ PUSH2 0x4C3 JUMPI DUP1 PUSH4 0x81812FC EQ PUSH2 0x4E5 JUMPI JUMPDEST PUSH1 0x0 DUP1 REVERT JUMPDEST CALLVALUE DUP1 ISZERO PUSH2 0x458 JUMPI PUSH1 0x0 DUP1 REVERT JUMPDEST POP PUSH2 0x46C PUSH2 0x467 CALLDATASIZE PUSH1 0x4 PUSH2 0x44CC JUMP JUMPDEST PUSH2 0xDFF JUMP JUMPDEST PUSH1 0x40 MLOAD SWAP1 ISZERO ISZERO DUP2 MSTORE PUSH1 0x20 ADD JUMPDEST PUSH1 0x40 MLOAD DUP1 SWAP2 SUB SWAP1 RETURN JUMPDEST CALLVALUE DUP1 ISZERO PUSH2 0x48D JUMPI PUSH1 0x0 DUP1 REVERT JUMPDEST POP PUSH2 0x4B1 PUSH2 0x49C CALLDATASIZE PUSH1 0x4 PUSH2 0x4505 JUMP JUMPDEST PUSH1 0xF PUSH1 0x20 MSTORE PUSH1 0x0 SWAP1 DUP2 MSTORE PUSH1 0x40 SWAP1 KECCAK256 SLOAD PUSH1 0xFF AND DUP2 JUMP JUMPDEST PUSH1 0x40 MLOAD PUSH1 0xFF SWAP1 SWAP2 AND DUP2 MSTORE PUSH1 0x20 ADD PUSH2 0x478 JUMP JUMPDEST CALLVALUE DUP1 ISZERO PUSH2 0x4CF JUMPI PUSH1 0x0 DUP1 REVERT JUMPDEST POP PUSH2 0x4D8 PUSH2 0xE10 JUMP JUMPDEST PUSH1 0x40 MLOAD PUSH2 0x478 SWAP2 SWAP1 PUSH2 0x4578 JUMP JUMPDEST CALLVALUE DUP1 ISZERO PUSH2 0x4F1 JUMPI PUSH1 0x0 DUP1 REVERT JUMPDEST POP PUSH2 0x505 PUSH2 0x500 CALLDATASIZE PUSH1 0x4 PUSH2 0x458B JUMP JUMPDEST PUSH2 0xEA2 JUMP JUMPDEST PUSH1 0x40 MLOAD PUSH1 0x1 PUSH1 0x1 PUSH1 0xA0 SHL SUB SWAP1 SWAP2 AND DUP2 MSTORE PUSH1 0x20 ADD PUSH2 0x478 JUMP JUMPDEST CALLVALUE DUP1 ISZERO PUSH2 0x529 JUMPI PUSH1 0x0 DUP1 REVERT JUMPDEST POP PUSH2 0x53D PUSH2 0x538 CALLDATASIZE PUSH1 0x4 PUSH2 0x45B5 JUMP JUMPDEST PUSH2 0xF2F JUMP JUMPDEST STOP JUMPDEST CALLVALUE DUP1 ISZERO PUSH2 0x54B JUMPI PUSH1 0x0 DUP1 REVERT JUMPDEST POP PUSH2 0x53D PUSH2 0x55A CALLDATASIZE PUSH1 0x4 PUSH2 0x45DF JUMP JUMPDEST PUSH2 0xF81 JUMP JUMPDEST CALLVALUE DUP1 ISZERO PUSH2 0x56B JUMPI PUSH1 0x0 DUP1 REVERT JUMPDEST POP PUSH2 0x4D8 PUSH2 0x57A CALLDATASIZE PUSH1 0x4 PUSH2 0x458B JUMP JUMPDEST PUSH2 0x1097 JUMP JUMPDEST CALLVALUE DUP1 ISZERO PUSH2 0x58B JUMPI PUSH1 0x0 DUP1 REVERT JUMPDEST POP PUSH2 0x53D PUSH2 0x59A CALLDATASIZE PUSH1 0x4 PUSH2 0x4654 JUMP JUMPDEST PUSH2 0x1131 JUMP JUMPDEST CALLVALUE DUP1 ISZERO PUSH2 0x5AB JUMPI PUSH1 0x0 DUP1 REVERT JUMPDEST POP PUSH2 0x5B4 PUSH2 0x11D0 JUMP JUMPDEST PUSH1 0x40 MLOAD SWAP1 DUP2 MSTORE PUSH1 0x20 ADD PUSH2 0x478 JUMP JUMPDEST CALLVALUE DUP1 ISZERO PUSH2 0x5CE JUMPI PUSH1 0x0 DUP1 REVERT JUMPDEST POP PUSH1 0x8 SLOAD PUSH2 0x5B4 JUMP JUMPDEST CALLVALUE DUP1 ISZERO PUSH2 0x5E3 JUMPI PUSH1 0x0 DUP1 REVERT JUMPDEST POP PUSH2 0x5F7 PUSH2 0x5F2 CALLDATASIZE PUSH1 0x4 PUSH2 0x46A7 JUMP JUMPDEST PUSH2 0x11EC JUMP JUMPDEST PUSH1 0x40 MLOAD PUSH2 0x478 SWAP2 SWAP1 PUSH2 0x4744 JUMP JUMPDEST CALLVALUE DUP1 ISZERO PUSH2 0x610 JUMPI PUSH1 0x0 DUP1 REVERT JUMPDEST POP PUSH2 0x4D8 PUSH2 0x61F CALLDATASIZE PUSH1 0x4 PUSH2 0x4798 JUMP JUMPDEST PUSH2 0x12E2 JUMP JUMPDEST CALLVALUE DUP1 ISZERO PUSH2 0x630 JUMPI PUSH1 0x0 DUP1 REVERT JUMPDEST POP PUSH2 0x53D PUSH2 0x132D JUMP JUMPDEST CALLVALUE DUP1 ISZERO PUSH2 0x645 JUMPI PUSH1 0x0 DUP1 REVERT JUMPDEST POP PUSH2 0x53D PUSH2 0x654 CALLDATASIZE PUSH1 0x4 PUSH2 0x47CF JUMP JUMPDEST PUSH2 0x136B JUMP JUMPDEST CALLVALUE DUP1 ISZERO PUSH2 0x665 JUMPI PUSH1 0x0 DUP1 REVERT JUMPDEST POP PUSH2 0x53D PUSH2 0x674 CALLDATASIZE PUSH1 0x4 PUSH2 0x480B JUMP JUMPDEST PUSH2 0x13A6 JUMP JUMPDEST CALLVALUE DUP1 ISZERO PUSH2 0x685 JUMPI PUSH1 0x0 DUP1 REVERT JUMPDEST POP PUSH2 0x5B4 PUSH2 0x694 CALLDATASIZE PUSH1 0x4 PUSH2 0x487E JUMP JUMPDEST PUSH2 0x13CE JUMP JUMPDEST CALLVALUE DUP1 ISZERO PUSH2 0x6A5 JUMPI PUSH1 0x0 DUP1 REVERT JUMPDEST POP PUSH2 0x5B4 PUSH2 0x6B4 CALLDATASIZE PUSH1 0x4 PUSH2 0x45DF JUMP JUMPDEST PUSH2 0x1403 JUMP JUMPDEST CALLVALUE DUP1 ISZERO PUSH2 0x6C5 JUMPI PUSH1 0x0 DUP1 REVERT JUMPDEST POP PUSH2 0x53D PUSH2 0x6D4 CALLDATASIZE PUSH1 0x4 PUSH2 0x458B JUMP JUMPDEST PUSH2 0x1499 JUMP JUMPDEST CALLVALUE DUP1 ISZERO PUSH2 0x6E5 JUMPI PUSH1 0x0 DUP1 REVERT JUMPDEST POP PUSH1 0x19 SLOAD PUSH2 0x5B4 JUMP JUMPDEST CALLVALUE DUP1 ISZERO PUSH2 0x6FA JUMPI PUSH1 0x0 DUP1 REVERT JUMPDEST POP PUSH2 0x53D PUSH2 0x709 CALLDATASIZE PUSH1 0x4 PUSH2 0x458B JUMP JUMPDEST PUSH2 0x14B9 JUMP JUMPDEST PUSH2 0x53D PUSH2 0x14FA JUMP JUMPDEST CALLVALUE DUP1 ISZERO PUSH2 0x722 JUMPI PUSH1 0x0 DUP1 REVERT JUMPDEST POP PUSH2 0x53D PUSH2 0x731 CALLDATASIZE PUSH1 0x4 PUSH2 0x4505 JUMP JUMPDEST PUSH2 0x154A JUMP JUMPDEST CALLVALUE DUP1 ISZERO PUSH2 0x742 JUMPI PUSH1 0x0 DUP1 REVERT JUMPDEST POP PUSH2 0x53D PUSH2 0x751 CALLDATASIZE PUSH1 0x4 PUSH2 0x47CF JUMP JUMPDEST PUSH2 0x1580 JUMP JUMPDEST CALLVALUE DUP1 ISZERO PUSH2 0x762 JUMPI PUSH1 0x0 DUP1 REVERT JUMPDEST POP PUSH2 0x53D PUSH2 0x771 CALLDATASIZE PUSH1 0x4 PUSH2 0x458B JUMP JUMPDEST PUSH2 0x159B JUMP JUMPDEST CALLVALUE DUP1 ISZERO PUSH2 0x782 JUMPI PUSH1 0x0 DUP1 REVERT JUMPDEST POP PUSH2 0x46C PUSH2 0x791 CALLDATASIZE PUSH1 0x4 PUSH2 0x45DF JUMP JUMPDEST PUSH2 0x1678 JUMP JUMPDEST CALLVALUE DUP1 ISZERO PUSH2 0x7A2 JUMPI PUSH1 0x0 DUP1 REVERT JUMPDEST POP PUSH2 0x53D PUSH2 0x1684 JUMP JUMPDEST CALLVALUE DUP1 ISZERO PUSH2 0x7B7 JUMPI PUSH1 0x0 DUP1 REVERT JUMPDEST POP PUSH2 0x53D PUSH2 0x7C6 CALLDATASIZE PUSH1 0x4 PUSH2 0x48A0 JUMP JUMPDEST PUSH2 0x16CB JUMP JUMPDEST CALLVALUE DUP1 ISZERO PUSH2 0x7D7 JUMPI PUSH1 0x0 DUP1 REVERT JUMPDEST POP PUSH2 0x53D PUSH2 0x7E6 CALLDATASIZE PUSH1 0x4 PUSH2 0x4901 JUMP JUMPDEST PUSH2 0x16EB JUMP JUMPDEST CALLVALUE DUP1 ISZERO PUSH2 0x7F7 JUMPI PUSH1 0x0 DUP1 REVERT JUMPDEST POP PUSH2 0x505 PUSH2 0x806 CALLDATASIZE PUSH1 0x4 PUSH2 0x49FE JUMP JUMPDEST PUSH2 0x1711 JUMP JUMPDEST CALLVALUE DUP1 ISZERO PUSH2 0x817 JUMPI PUSH1 0x0 DUP1 REVERT JUMPDEST POP PUSH2 0x5B4 PUSH2 0x1756 JUMP JUMPDEST CALLVALUE DUP1 ISZERO PUSH2 0x82C JUMPI PUSH1 0x0 DUP1 REVERT JUMPDEST POP PUSH2 0x46C PUSH2 0x83B CALLDATASIZE PUSH1 0x4 PUSH2 0x458B JUMP JUMPDEST PUSH2 0x1767 JUMP JUMPDEST CALLVALUE DUP1 ISZERO PUSH2 0x84C JUMPI PUSH1 0x0 DUP1 REVERT JUMPDEST POP PUSH2 0x5B4 PUSH2 0x85B CALLDATASIZE PUSH1 0x4 PUSH2 0x458B JUMP JUMPDEST PUSH2 0x1772 JUMP JUMPDEST CALLVALUE DUP1 ISZERO PUSH2 0x86C JUMPI PUSH1 0x0 DUP1 REVERT JUMPDEST POP PUSH2 0x53D PUSH2 0x87B CALLDATASIZE PUSH1 0x4 PUSH2 0x49FE JUMP JUMPDEST PUSH2 0x1805 JUMP JUMPDEST CALLVALUE DUP1 ISZERO PUSH2 0x88C JUMPI PUSH1 0x0 DUP1 REVERT JUMPDEST POP PUSH2 0x5B4 PUSH2 0x89B CALLDATASIZE PUSH1 0x4 PUSH2 0x49FE JUMP JUMPDEST PUSH2 0x1838 JUMP JUMPDEST CALLVALUE DUP1 ISZERO PUSH2 0x8AC JUMPI PUSH1 0x0 DUP1 REVERT JUMPDEST POP PUSH2 0x53D PUSH2 0x8BB CALLDATASIZE PUSH1 0x4 PUSH2 0x49FE JUMP JUMPDEST PUSH2 0x1878 JUMP JUMPDEST CALLVALUE DUP1 ISZERO PUSH2 0x8CC JUMPI PUSH1 0x0 DUP1 REVERT JUMPDEST POP PUSH1 0x10 SLOAD PUSH2 0x46C SWAP1 PUSH1 0xFF AND DUP2 JUMP JUMPDEST CALLVALUE DUP1 ISZERO PUSH2 0x8E6 JUMPI PUSH1 0x0 DUP1 REVERT JUMPDEST POP PUSH1 0x16 SLOAD PUSH2 0x46C SWAP1 PUSH1 0xFF AND DUP2 JUMP JUMPDEST CALLVALUE DUP1 ISZERO PUSH2 0x900 JUMPI PUSH1 0x0 DUP1 REVERT JUMPDEST POP PUSH2 0x505 PUSH2 0x90F CALLDATASIZE PUSH1 0x4 PUSH2 0x458B JUMP JUMPDEST PUSH2 0x18B5 JUMP JUMPDEST PUSH2 0x53D PUSH2 0x922 CALLDATASIZE PUSH1 0x4 PUSH2 0x4A32 JUMP JUMPDEST PUSH2 0x192C JUMP JUMPDEST CALLVALUE DUP1 ISZERO PUSH2 0x933 JUMPI PUSH1 0x0 DUP1 REVERT JUMPDEST POP PUSH2 0x947 PUSH2 0x942 CALLDATASIZE PUSH1 0x4 PUSH2 0x487E JUMP JUMPDEST PUSH2 0x1E0D JUMP JUMPDEST PUSH1 0x40 MLOAD PUSH2 0x478 SWAP3 SWAP2 SWAP1 PUSH2 0x4A95 JUMP JUMPDEST CALLVALUE DUP1 ISZERO PUSH2 0x961 JUMPI PUSH1 0x0 DUP1 REVERT JUMPDEST POP PUSH2 0x53D PUSH2 0x970 CALLDATASIZE PUSH1 0x4 PUSH2 0x4505 JUMP JUMPDEST PUSH2 0x1E25 JUMP JUMPDEST CALLVALUE DUP1 ISZERO PUSH2 0x981 JUMPI PUSH1 0x0 DUP1 REVERT JUMPDEST POP PUSH1 0x18 SLOAD PUSH2 0x5B4 JUMP JUMPDEST CALLVALUE DUP1 ISZERO PUSH2 0x996 JUMPI PUSH1 0x0 DUP1 REVERT JUMPDEST POP PUSH2 0x5B4 PUSH2 0x9A5 CALLDATASIZE PUSH1 0x4 PUSH2 0x4505 JUMP JUMPDEST PUSH2 0x1E58 JUMP JUMPDEST CALLVALUE DUP1 ISZERO PUSH2 0x9B6 JUMPI PUSH1 0x0 DUP1 REVERT JUMPDEST POP PUSH2 0x53D PUSH2 0x1EDF JUMP JUMPDEST CALLVALUE DUP1 ISZERO PUSH2 0x9CB JUMPI PUSH1 0x0 DUP1 REVERT JUMPDEST POP PUSH2 0x5B4 PUSH2 0x9DA CALLDATASIZE PUSH1 0x4 PUSH2 0x458B JUMP JUMPDEST PUSH2 0x1F13 JUMP JUMPDEST CALLVALUE DUP1 ISZERO PUSH2 0x9EB JUMPI PUSH1 0x0 DUP1 REVERT JUMPDEST POP PUSH2 0x53D PUSH2 0x9FA CALLDATASIZE PUSH1 0x4 PUSH2 0x4AC3 JUMP JUMPDEST PUSH2 0x1F3E JUMP JUMPDEST CALLVALUE DUP1 ISZERO PUSH2 0xA0B JUMPI PUSH1 0x0 DUP1 REVERT JUMPDEST POP PUSH2 0x4D8 PUSH2 0xA1A CALLDATASIZE PUSH1 0x4 PUSH2 0x4505 JUMP JUMPDEST PUSH2 0x215D JUMP JUMPDEST CALLVALUE DUP1 ISZERO PUSH2 0xA2B JUMPI PUSH1 0x0 DUP1 REVERT JUMPDEST POP PUSH2 0x46C PUSH2 0xA3A CALLDATASIZE PUSH1 0x4 PUSH2 0x4505 JUMP JUMPDEST PUSH2 0x22A5 JUMP JUMPDEST CALLVALUE DUP1 ISZERO PUSH2 0xA4B JUMPI PUSH1 0x0 DUP1 REVERT JUMPDEST POP PUSH1 0xB SLOAD PUSH1 0x1 PUSH1 0x1 PUSH1 0xA0 SHL SUB AND PUSH2 0x505 JUMP JUMPDEST CALLVALUE DUP1 ISZERO PUSH2 0xA69 JUMPI PUSH1 0x0 DUP1 REVERT JUMPDEST POP PUSH2 0x53D PUSH2 0xA78 CALLDATASIZE PUSH1 0x4 PUSH2 0x4B36 JUMP JUMPDEST PUSH2 0x22B2 JUMP JUMPDEST CALLVALUE DUP1 ISZERO PUSH2 0xA89 JUMPI PUSH1 0x0 DUP1 REVERT JUMPDEST POP PUSH2 0x53D PUSH2 0xA98 CALLDATASIZE PUSH1 0x4 PUSH2 0x458B JUMP JUMPDEST PUSH2 0x22EA JUMP JUMPDEST CALLVALUE DUP1 ISZERO PUSH2 0xAA9 JUMPI PUSH1 0x0 DUP1 REVERT JUMPDEST POP PUSH2 0x4D8 PUSH2 0x2319 JUMP JUMPDEST CALLVALUE DUP1 ISZERO PUSH2 0xABE JUMPI PUSH1 0x0 DUP1 REVERT JUMPDEST POP PUSH2 0x53D PUSH2 0xACD CALLDATASIZE PUSH1 0x4 PUSH2 0x4B62 JUMP JUMPDEST PUSH2 0x2328 JUMP JUMPDEST CALLVALUE DUP1 ISZERO PUSH2 0xADE JUMPI PUSH1 0x0 DUP1 REVERT JUMPDEST POP PUSH1 0x17 SLOAD PUSH2 0x5B4 JUMP JUMPDEST CALLVALUE DUP1 ISZERO PUSH2 0xAF3 JUMPI PUSH1 0x0 DUP1 REVERT JUMPDEST POP PUSH2 0x53D PUSH2 0xB02 CALLDATASIZE PUSH1 0x4 PUSH2 0x49FE JUMP JUMPDEST PUSH2 0x2356 JUMP JUMPDEST CALLVALUE DUP1 ISZERO PUSH2 0xB13 JUMPI PUSH1 0x0 DUP1 REVERT JUMPDEST POP PUSH2 0x53D PUSH2 0xB22 CALLDATASIZE PUSH1 0x4 PUSH2 0x4BBE JUMP JUMPDEST PUSH2 0x23A5 JUMP JUMPDEST CALLVALUE DUP1 ISZERO PUSH2 0xB33 JUMPI PUSH1 0x0 DUP1 REVERT JUMPDEST POP PUSH2 0x4B1 PUSH2 0xB42 CALLDATASIZE PUSH1 0x4 PUSH2 0x4505 JUMP JUMPDEST PUSH1 0x1 PUSH1 0x1 PUSH1 0xA0 SHL SUB AND PUSH1 0x0 SWAP1 DUP2 MSTORE PUSH1 0xF PUSH1 0x20 MSTORE PUSH1 0x40 SWAP1 KECCAK256 SLOAD PUSH1 0xFF AND SWAP1 JUMP JUMPDEST CALLVALUE DUP1 ISZERO PUSH2 0xB6C JUMPI PUSH1 0x0 DUP1 REVERT JUMPDEST POP PUSH2 0x53D PUSH2 0xB7B CALLDATASIZE PUSH1 0x4 PUSH2 0x45DF JUMP JUMPDEST PUSH2 0x246A JUMP JUMPDEST CALLVALUE DUP1 ISZERO PUSH2 0xB8C JUMPI PUSH1 0x0 DUP1 REVERT JUMPDEST POP PUSH2 0x53D PUSH2 0xB9B CALLDATASIZE PUSH1 0x4 PUSH2 0x49FE JUMP JUMPDEST PUSH2 0x2490 JUMP JUMPDEST CALLVALUE DUP1 ISZERO PUSH2 0xBAC JUMPI PUSH1 0x0 DUP1 REVERT JUMPDEST POP PUSH2 0xBC0 PUSH2 0xBBB CALLDATASIZE PUSH1 0x4 PUSH2 0x46A7 JUMP JUMPDEST PUSH2 0x24E9 JUMP JUMPDEST PUSH1 0x40 MLOAD PUSH2 0x478 SWAP3 SWAP2 SWAP1 PUSH2 0x4BE8 JUMP JUMPDEST CALLVALUE DUP1 ISZERO PUSH2 0xBDA JUMPI PUSH1 0x0 DUP1 REVERT JUMPDEST POP PUSH2 0x53D PUSH2 0xBE9 CALLDATASIZE PUSH1 0x4 PUSH2 0x4C0D JUMP JUMPDEST PUSH2 0x260B JUMP JUMPDEST CALLVALUE DUP1 ISZERO PUSH2 0xBFA JUMPI PUSH1 0x0 DUP1 REVERT JUMPDEST POP PUSH2 0x4D8 PUSH2 0xC09 CALLDATASIZE PUSH1 0x4 PUSH2 0x458B JUMP JUMPDEST PUSH2 0x2646 JUMP JUMPDEST CALLVALUE DUP1 ISZERO PUSH2 0xC1A JUMPI PUSH1 0x0 DUP1 REVERT JUMPDEST POP PUSH2 0xC2E PUSH2 0xC29 CALLDATASIZE PUSH1 0x4 PUSH2 0x4505 JUMP JUMPDEST PUSH2 0x26E8 JUMP JUMPDEST PUSH1 0x40 MLOAD PUSH2 0x478 SWAP3 SWAP2 SWAP1 PUSH2 0x4C88 JUMP JUMPDEST CALLVALUE DUP1 ISZERO PUSH2 0xC48 JUMPI PUSH1 0x0 DUP1 REVERT JUMPDEST POP PUSH2 0x53D PUSH2 0xC57 CALLDATASIZE PUSH1 0x4 PUSH2 0x4CDF JUMP JUMPDEST PUSH2 0x28CB JUMP JUMPDEST CALLVALUE DUP1 ISZERO PUSH2 0xC68 JUMPI PUSH1 0x0 DUP1 REVERT JUMPDEST POP PUSH2 0x5B4 PUSH2 0x28E8 JUMP JUMPDEST CALLVALUE DUP1 ISZERO PUSH2 0xC7D JUMPI PUSH1 0x0 DUP1 REVERT JUMPDEST POP PUSH2 0x4D8 PUSH2 0xC8C CALLDATASIZE PUSH1 0x4 PUSH2 0x458B JUMP JUMPDEST PUSH2 0x28F9 JUMP JUMPDEST CALLVALUE DUP1 ISZERO PUSH2 0xC9D JUMPI PUSH1 0x0 DUP1 REVERT JUMPDEST POP PUSH2 0x53D PUSH2 0xCAC CALLDATASIZE PUSH1 0x4 PUSH2 0x480B JUMP JUMPDEST PUSH2 0x2A63 JUMP JUMPDEST CALLVALUE DUP1 ISZERO PUSH2 0xCBD JUMPI PUSH1 0x0 DUP1 REVERT JUMPDEST POP PUSH1 0x1A SLOAD PUSH2 0x5B4 JUMP JUMPDEST CALLVALUE DUP1 ISZERO PUSH2 0xCD2 JUMPI PUSH1 0x0 DUP1 REVERT JUMPDEST POP PUSH2 0x46C PUSH2 0xCE1 CALLDATASIZE PUSH1 0x4 PUSH2 0x4505 JUMP JUMPDEST PUSH1 0x1 PUSH1 0x1 PUSH1 0xA0 SHL SUB AND PUSH1 0x0 SWAP1 DUP2 MSTORE PUSH1 0xF PUSH1 0x20 MSTORE PUSH1 0x40 SWAP1 KECCAK256 SLOAD PUSH1 0xFF AND ISZERO ISZERO SWAP1 JUMP JUMPDEST CALLVALUE DUP1 ISZERO PUSH2 0xD0D JUMPI PUSH1 0x0 DUP1 REVERT JUMPDEST POP PUSH2 0x46C PUSH2 0xD1C CALLDATASIZE PUSH1 0x4 PUSH2 0x49FE JUMP JUMPDEST PUSH2 0x2A83 JUMP JUMPDEST CALLVALUE DUP1 ISZERO PUSH2 0xD2D JUMPI PUSH1 0x0 DUP1 REVERT JUMPDEST POP PUSH2 0x46C PUSH2 0xD3C CALLDATASIZE PUSH1 0x4 PUSH2 0x4D1B JUMP JUMPDEST PUSH1 0x1 PUSH1 0x1 PUSH1 0xA0 SHL SUB SWAP2 DUP3 AND PUSH1 0x0 SWAP1 DUP2 MSTORE PUSH1 0x5 PUSH1 0x20 SWAP1 DUP2 MSTORE PUSH1 0x40 DUP1 DUP4 KECCAK256 SWAP4 SWAP1 SWAP5 AND DUP3 MSTORE SWAP2 SWAP1 SWAP2 MSTORE KECCAK256 SLOAD PUSH1 0xFF AND SWAP1 JUMP JUMPDEST CALLVALUE DUP1 ISZERO PUSH2 0xD76 JUMPI PUSH1 0x0 DUP1 REVERT JUMPDEST POP PUSH2 0x53D PUSH2 0xD85 CALLDATASIZE PUSH1 0x4 PUSH2 0x480B JUMP JUMPDEST PUSH2 0x2AC0 JUMP JUMPDEST CALLVALUE DUP1 ISZERO PUSH2 0xD96 JUMPI PUSH1 0x0 DUP1 REVERT JUMPDEST POP PUSH2 0x53D PUSH2 0xDA5 CALLDATASIZE PUSH1 0x4 PUSH2 0x4D45 JUMP JUMPDEST PUSH2 0x2AE0 JUMP JUMPDEST CALLVALUE DUP1 ISZERO PUSH2 0xDB6 JUMPI PUSH1 0x0 DUP1 REVERT JUMPDEST POP PUSH2 0x53D PUSH2 0x2B1D JUMP JUMPDEST CALLVALUE DUP1 ISZERO PUSH2 0xDCB JUMPI PUSH1 0x0 DUP1 REVERT JUMPDEST POP PUSH2 0x53D PUSH2 0xDDA CALLDATASIZE PUSH1 0x4 PUSH2 0x4505 JUMP JUMPDEST PUSH2 0x2B65 JUMP JUMPDEST CALLVALUE DUP1 ISZERO PUSH2 0xDEB JUMPI PUSH1 0x0 DUP1 REVERT JUMPDEST POP PUSH2 0x5F7 PUSH2 0xDFA CALLDATASIZE PUSH1 0x4 PUSH2 0x4D60 JUMP JUMPDEST PUSH2 0x2BFD JUMP JUMPDEST PUSH1 0x0 PUSH2 0xE0A DUP3 PUSH2 0x2D25 JUMP JUMPDEST SWAP3 SWAP2 POP POP JUMP JUMPDEST PUSH1 0x60 PUSH1 0x0 DUP1 SLOAD PUSH2 0xE1F SWAP1 PUSH2 0x4DA1 JUMP JUMPDEST DUP1 PUSH1 0x1F ADD PUSH1 0x20 DUP1 SWAP2 DIV MUL PUSH1 0x20 ADD PUSH1 0x40 MLOAD SWAP1 DUP2 ADD PUSH1 0x40 MSTORE DUP1 SWAP3 SWAP2 SWAP1 DUP2 DUP2 MSTORE PUSH1 0x20 ADD DUP3 DUP1 SLOAD PUSH2 0xE4B SWAP1 PUSH2 0x4DA1 JUMP JUMPDEST DUP1 ISZERO PUSH2 0xE98 JUMPI DUP1 PUSH1 0x1F LT PUSH2 0xE6D JUMPI PUSH2 0x100 DUP1 DUP4 SLOAD DIV MUL DUP4 MSTORE SWAP2 PUSH1 0x20 ADD SWAP2 PUSH2 0xE98 JUMP JUMPDEST DUP3 ADD SWAP2 SWAP1 PUSH1 0x0 MSTORE PUSH1 0x20 PUSH1 0x0 KECCAK256 SWAP1 JUMPDEST DUP2 SLOAD DUP2 MSTORE SWAP1 PUSH1 0x1 ADD SWAP1 PUSH1 0x20 ADD DUP1 DUP4 GT PUSH2 0xE7B JUMPI DUP3 SWAP1 SUB PUSH1 0x1F AND DUP3 ADD SWAP2 JUMPDEST POP POP POP POP POP SWAP1 POP SWAP1 JUMP JUMPDEST PUSH1 0x0 PUSH2 0xEAD DUP3 PUSH2 0x2D4A JUMP JUMPDEST PUSH2 0xF13 JUMPI PUSH1 0x40 MLOAD PUSH3 0x461BCD PUSH1 0xE5 SHL DUP2 MSTORE PUSH1 0x20 PUSH1 0x4 DUP3 ADD MSTORE PUSH1 0x2C PUSH1 0x24 DUP3 ADD MSTORE PUSH32 0x4552433732313A20617070726F76656420717565727920666F72206E6F6E6578 PUSH1 0x44 DUP3 ADD MSTORE PUSH12 0x34B9BA32B73A103A37B5B2B7 PUSH1 0xA1 SHL PUSH1 0x64 DUP3 ADD MSTORE PUSH1 0x84 ADD JUMPDEST PUSH1 0x40 MLOAD DUP1 SWAP2 SUB SWAP1 REVERT JUMPDEST POP PUSH1 0x0 SWAP1 DUP2 MSTORE PUSH1 0x4 PUSH1 0x20 MSTORE PUSH1 0x40 SWAP1 KECCAK256 SLOAD PUSH1 0x1 PUSH1 0x1 PUSH1 0xA0 SHL SUB AND SWAP1 JUMP JUMPDEST PUSH2 0xF38 CALLER PUSH2 0x22A5 JUMP JUMPDEST PUSH2 0xF54 JUMPI PUSH1 0x40 MLOAD PUSH3 0x461BCD PUSH1 0xE5 SHL DUP2 MSTORE PUSH1 0x4 ADD PUSH2 0xF0A SWAP1 PUSH2 0x4DDC JUMP JUMPDEST PUSH1 0x1 PUSH1 0x1 PUSH1 0xA0 SHL SUB SWAP2 SWAP1 SWAP2 AND PUSH1 0x0 SWAP1 DUP2 MSTORE PUSH1 0xF PUSH1 0x20 MSTORE PUSH1 0x40 SWAP1 KECCAK256 DUP1 SLOAD PUSH1 0xFF NOT AND PUSH1 0xFF SWAP1 SWAP3 AND SWAP2 SWAP1 SWAP2 OR SWAP1 SSTORE JUMP JUMPDEST PUSH1 0x0 PUSH2 0xF8C DUP3 PUSH2 0x18B5 JUMP JUMPDEST SWAP1 POP DUP1 PUSH1 0x1 PUSH1 0x1 PUSH1 0xA0 SHL SUB AND DUP4 PUSH1 0x1 PUSH1 0x1 PUSH1 0xA0 SHL SUB AND EQ ISZERO PUSH2 0xFFA JUMPI PUSH1 0x40 MLOAD PUSH3 0x461BCD PUSH1 0xE5 SHL DUP2 MSTORE PUSH1 0x20 PUSH1 0x4 DUP3 ADD MSTORE PUSH1 0x21 PUSH1 0x24 DUP3 ADD MSTORE PUSH32 0x4552433732313A20617070726F76616C20746F2063757272656E74206F776E65 PUSH1 0x44 DUP3 ADD MSTORE PUSH1 0x39 PUSH1 0xF9 SHL PUSH1 0x64 DUP3 ADD MSTORE PUSH1 0x84 ADD PUSH2 0xF0A JUMP JUMPDEST CALLER PUSH1 0x1 PUSH1 0x1 PUSH1 0xA0 SHL SUB DUP3 AND EQ DUP1 PUSH2 0x1016 JUMPI POP PUSH2 0x1016 DUP2 CALLER PUSH2 0xD3C JUMP JUMPDEST PUSH2 0x1088 JUMPI PUSH1 0x40 MLOAD PUSH3 0x461BCD PUSH1 0xE5 SHL DUP2 MSTORE PUSH1 0x20 PUSH1 0x4 DUP3 ADD MSTORE PUSH1 0x38 PUSH1 0x24 DUP3 ADD MSTORE PUSH32 0x4552433732313A20617070726F76652063616C6C6572206973206E6F74206F77 PUSH1 0x44 DUP3 ADD MSTORE PUSH32 0x6E6572206E6F7220617070726F76656420666F7220616C6C0000000000000000 PUSH1 0x64 DUP3 ADD MSTORE PUSH1 0x84 ADD PUSH2 0xF0A JUMP JUMPDEST PUSH2 0x1092 DUP4 DUP4 PUSH2 0x2D67 JUMP JUMPDEST POP POP POP JUMP JUMPDEST PUSH1 0x12 PUSH1 0x20 MSTORE PUSH1 0x0 SWAP1 DUP2 MSTORE PUSH1 0x40 SWAP1 KECCAK256 DUP1 SLOAD PUSH2 0x10B0 SWAP1 PUSH2 0x4DA1 JUMP JUMPDEST DUP1 PUSH1 0x1F ADD PUSH1 0x20 DUP1 SWAP2 DIV MUL PUSH1 0x20 ADD PUSH1 0x40 MLOAD SWAP1 DUP2 ADD PUSH1 0x40 MSTORE DUP1 SWAP3 SWAP2 SWAP1 DUP2 DUP2 MSTORE PUSH1 0x20 ADD DUP3 DUP1 SLOAD PUSH2 0x10DC SWAP1 PUSH2 0x4DA1 JUMP JUMPDEST DUP1 ISZERO PUSH2 0x1129 JUMPI DUP1 PUSH1 0x1F LT PUSH2 0x10FE JUMPI PUSH2 0x100 DUP1 DUP4 SLOAD DIV MUL DUP4 MSTORE SWAP2 PUSH1 0x20 ADD SWAP2 PUSH2 0x1129 JUMP JUMPDEST DUP3 ADD SWAP2 SWAP1 PUSH1 0x0 MSTORE PUSH1 0x20 PUSH1 0x0 KECCAK256 SWAP1 JUMPDEST DUP2 SLOAD DUP2 MSTORE SWAP1 PUSH1 0x1 ADD SWAP1 PUSH1 0x20 ADD DUP1 DUP4 GT PUSH2 0x110C JUMPI DUP3 SWAP1 SUB PUSH1 0x1F AND DUP3 ADD SWAP2 JUMPDEST POP POP POP POP POP DUP2 JUMP JUMPDEST PUSH2 0x113A CALLER PUSH2 0x22A5 JUMP JUMPDEST PUSH2 0x1156 JUMPI PUSH1 0x40 MLOAD PUSH3 0x461BCD PUSH1 0xE5 SHL DUP2 MSTORE PUSH1 0x4 ADD PUSH2 0xF0A SWAP1 PUSH2 0x4DDC JUMP JUMPDEST PUSH1 0x0 JUMPDEST DUP3 DUP2 LT ISZERO PUSH2 0x11CA JUMPI DUP2 PUSH1 0xF PUSH1 0x0 DUP7 DUP7 DUP6 DUP2 DUP2 LT PUSH2 0x1178 JUMPI PUSH2 0x1178 PUSH2 0x4E26 JUMP JUMPDEST SWAP1 POP PUSH1 0x20 MUL ADD PUSH1 0x20 DUP2 ADD SWAP1 PUSH2 0x118D SWAP2 SWAP1 PUSH2 0x4505 JUMP JUMPDEST PUSH1 0x1 PUSH1 0x1 PUSH1 0xA0 SHL SUB AND DUP2 MSTORE PUSH1 0x20 DUP2 ADD SWAP2 SWAP1 SWAP2 MSTORE PUSH1 0x40 ADD PUSH1 0x0 KECCAK256 DUP1 SLOAD PUSH1 0xFF NOT AND PUSH1 0xFF SWAP3 SWAP1 SWAP3 AND SWAP2 SWAP1 SWAP2 OR SWAP1 SSTORE DUP1 PUSH2 0x11C2 DUP2 PUSH2 0x4E52 JUMP JUMPDEST SWAP2 POP POP PUSH2 0x1159 JUMP JUMPDEST POP POP POP POP JUMP JUMPDEST PUSH1 0x0 PUSH2 0x11E7 PUSH1 0x18 SLOAD PUSH2 0x11E1 PUSH1 0x17 SLOAD SWAP1 JUMP JUMPDEST SWAP1 PUSH2 0x2DD5 JUMP JUMPDEST SWAP1 POP SWAP1 JUMP JUMPDEST PUSH1 0x60 DUP3 PUSH1 0x1 PUSH1 0x1 PUSH1 0x40 SHL SUB DUP2 GT ISZERO PUSH2 0x1206 JUMPI PUSH2 0x1206 PUSH2 0x4953 JUMP JUMPDEST PUSH1 0x40 MLOAD SWAP1 DUP1 DUP3 MSTORE DUP1 PUSH1 0x20 MUL PUSH1 0x20 ADD DUP3 ADD PUSH1 0x40 MSTORE DUP1 ISZERO PUSH2 0x1239 JUMPI DUP2 PUSH1 0x20 ADD JUMPDEST PUSH1 0x60 DUP2 MSTORE PUSH1 0x20 ADD SWAP1 PUSH1 0x1 SWAP1 SUB SWAP1 DUP2 PUSH2 0x1224 JUMPI SWAP1 POP JUMPDEST POP SWAP1 POP PUSH1 0x0 JUMPDEST DUP4 DUP2 LT ISZERO PUSH2 0x12DA JUMPI PUSH2 0x12AA DUP6 DUP6 DUP4 DUP2 DUP2 LT PUSH2 0x125C JUMPI PUSH2 0x125C PUSH2 0x4E26 JUMP JUMPDEST SWAP1 POP PUSH1 0x20 MUL DUP2 ADD SWAP1 PUSH2 0x126E SWAP2 SWAP1 PUSH2 0x4E6D JUMP JUMPDEST DUP1 DUP1 PUSH1 0x1F ADD PUSH1 0x20 DUP1 SWAP2 DIV MUL PUSH1 0x20 ADD PUSH1 0x40 MLOAD SWAP1 DUP2 ADD PUSH1 0x40 MSTORE DUP1 SWAP4 SWAP3 SWAP2 SWAP1 DUP2 DUP2 MSTORE PUSH1 0x20 ADD DUP4 DUP4 DUP1 DUP3 DUP5 CALLDATACOPY PUSH1 0x0 SWAP3 ADD SWAP2 SWAP1 SWAP2 MSTORE POP DUP8 SWAP3 POP PUSH2 0x2DE1 SWAP2 POP POP JUMP JUMPDEST DUP3 DUP3 DUP2 MLOAD DUP2 LT PUSH2 0x12BC JUMPI PUSH2 0x12BC PUSH2 0x4E26 JUMP JUMPDEST PUSH1 0x20 MUL PUSH1 0x20 ADD ADD DUP2 SWAP1 MSTORE POP DUP1 DUP1 PUSH2 0x12D2 SWAP1 PUSH2 0x4E52 JUMP JUMPDEST SWAP2 POP POP PUSH2 0x123F JUMP JUMPDEST POP SWAP4 SWAP3 POP POP POP JUMP JUMPDEST PUSH1 0x60 PUSH2 0x1325 DUP5 DUP5 DUP1 DUP1 PUSH1 0x1F ADD PUSH1 0x20 DUP1 SWAP2 DIV MUL PUSH1 0x20 ADD PUSH1 0x40 MLOAD SWAP1 DUP2 ADD PUSH1 0x40 MSTORE DUP1 SWAP4 SWAP3 SWAP2 SWAP1 DUP2 DUP2 MSTORE PUSH1 0x20 ADD DUP4 DUP4 DUP1 DUP3 DUP5 CALLDATACOPY PUSH1 0x0 SWAP3 ADD SWAP2 SWAP1 SWAP2 MSTORE POP DUP7 SWAP3 POP PUSH2 0x2DE1 SWAP2 POP POP JUMP JUMPDEST SWAP5 SWAP4 POP POP POP POP JUMP JUMPDEST PUSH1 0xB SLOAD PUSH1 0x1 PUSH1 0x1 PUSH1 0xA0 SHL SUB AND CALLER EQ PUSH2 0x1357 JUMPI PUSH1 0x40 MLOAD PUSH3 0x461BCD PUSH1 0xE5 SHL DUP2 MSTORE PUSH1 0x4 ADD PUSH2 0xF0A SWAP1 PUSH2 0x4EB3 JUMP JUMPDEST PUSH1 0x16 DUP1 SLOAD PUSH1 0xFF NOT DUP2 AND PUSH1 0xFF SWAP1 SWAP2 AND ISZERO OR SWAP1 SSTORE JUMP JUMPDEST PUSH2 0x1376 CALLER JUMPDEST DUP3 PUSH2 0x2E16 JUMP JUMPDEST PUSH2 0x1392 JUMPI PUSH1 0x40 MLOAD PUSH3 0x461BCD PUSH1 0xE5 SHL DUP2 MSTORE PUSH1 0x4 ADD PUSH2 0xF0A SWAP1 PUSH2 0x4EE8 JUMP JUMPDEST PUSH2 0x139B DUP2 PUSH2 0x2EFC JUMP JUMPDEST PUSH2 0x1092 DUP4 DUP4 DUP4 PUSH2 0x2F69 JUMP JUMPDEST DUP1 PUSH2 0x13B0 CALLER PUSH2 0x1370 JUMP JUMPDEST PUSH2 0x13B9 JUMPI PUSH1 0x0 DUP1 REVERT JUMPDEST PUSH2 0x13C6 DUP7 DUP7 DUP7 DUP7 DUP7 PUSH2 0x3114 JUMP JUMPDEST POP POP POP POP POP POP JUMP JUMPDEST PUSH1 0x0 DUP2 PUSH2 0x13DA DUP5 PUSH2 0x1F13 JUMP JUMPDEST GT PUSH2 0x13E4 JUMPI PUSH1 0x0 DUP1 REVERT JUMPDEST PUSH1 0x0 DUP4 DUP2 MSTORE PUSH1 0x11 PUSH1 0x20 MSTORE PUSH1 0x40 SWAP1 KECCAK256 PUSH2 0x13FC SWAP1 DUP4 PUSH2 0x3177 JUMP JUMPDEST SWAP4 SWAP3 POP POP POP JUMP JUMPDEST PUSH1 0x0 PUSH2 0x140E DUP4 PUSH2 0x1E58 JUMP JUMPDEST DUP3 LT PUSH2 0x1470 JUMPI PUSH1 0x40 MLOAD PUSH3 0x461BCD PUSH1 0xE5 SHL DUP2 MSTORE PUSH1 0x20 PUSH1 0x4 DUP3 ADD MSTORE PUSH1 0x2B PUSH1 0x24 DUP3 ADD MSTORE PUSH32 0x455243373231456E756D657261626C653A206F776E657220696E646578206F75 PUSH1 0x44 DUP3 ADD MSTORE PUSH11 0x74206F6620626F756E6473 PUSH1 0xA8 SHL PUSH1 0x64 DUP3 ADD MSTORE PUSH1 0x84 ADD PUSH2 0xF0A JUMP JUMPDEST POP PUSH1 0x1 PUSH1 0x1 PUSH1 0xA0 SHL SUB SWAP2 SWAP1 SWAP2 AND PUSH1 0x0 SWAP1 DUP2 MSTORE PUSH1 0x6 PUSH1 0x20 SWAP1 DUP2 MSTORE PUSH1 0x40 DUP1 DUP4 KECCAK256 SWAP4 DUP4 MSTORE SWAP3 SWAP1 MSTORE KECCAK256 SLOAD SWAP1 JUMP JUMPDEST DUP1 PUSH2 0x14A3 CALLER PUSH2 0x1370 JUMP JUMPDEST PUSH2 0x14AC JUMPI PUSH1 0x0 DUP1 REVERT JUMPDEST PUSH2 0x14B5 DUP3 PUSH2 0x2EFC JUMP JUMPDEST POP POP JUMP JUMPDEST CALLER PUSH2 0x14C4 DUP2 DUP4 PUSH2 0x2E16 JUMP JUMPDEST PUSH2 0x14E0 JUMPI PUSH1 0x40 MLOAD PUSH3 0x461BCD PUSH1 0xE5 SHL DUP2 MSTORE PUSH1 0x4 ADD PUSH2 0xF0A SWAP1 PUSH2 0x4F39 JUMP JUMPDEST PUSH1 0x1 PUSH1 0x1 PUSH1 0xA0 SHL SUB AND PUSH1 0x0 SWAP1 DUP2 MSTORE PUSH1 0x13 PUSH1 0x20 MSTORE PUSH1 0x40 SWAP1 KECCAK256 SSTORE JUMP JUMPDEST PUSH1 0xB SLOAD PUSH1 0x1 PUSH1 0x1 PUSH1 0xA0 SHL SUB AND CALLER EQ PUSH2 0x1524 JUMPI PUSH1 0x40 MLOAD PUSH3 0x461BCD PUSH1 0xE5 SHL DUP2 MSTORE PUSH1 0x4 ADD PUSH2 0xF0A SWAP1 PUSH2 0x4EB3 JUMP JUMPDEST PUSH1 0x40 MLOAD CALLER SWAP1 SELFBALANCE DUP1 ISZERO PUSH2 0x8FC MUL SWAP2 PUSH1 0x0 DUP2 DUP2 DUP2 DUP6 DUP9 DUP9 CALL SWAP4 POP POP POP POP PUSH2 0x1548 JUMPI PUSH1 0x0 DUP1 REVERT JUMPDEST JUMP JUMPDEST PUSH1 0xB SLOAD PUSH1 0x1 PUSH1 0x1 PUSH1 0xA0 SHL SUB AND CALLER EQ PUSH2 0x1574 JUMPI PUSH1 0x40 MLOAD PUSH3 0x461BCD PUSH1 0xE5 SHL DUP2 MSTORE PUSH1 0x4 ADD PUSH2 0xF0A SWAP1 PUSH2 0x4EB3 JUMP JUMPDEST PUSH2 0x157D DUP2 PUSH2 0x3183 JUMP JUMPDEST POP JUMP JUMPDEST PUSH2 0x1092 DUP4 DUP4 DUP4 PUSH1 0x40 MLOAD DUP1 PUSH1 0x20 ADD PUSH1 0x40 MSTORE DUP1 PUSH1 0x0 DUP2 MSTORE POP PUSH2 0x260B JUMP JUMPDEST PUSH2 0x15A4 CALLER PUSH2 0x1370 JUMP JUMPDEST PUSH2 0x1609 JUMPI PUSH1 0x40 MLOAD PUSH3 0x461BCD PUSH1 0xE5 SHL DUP2 MSTORE PUSH1 0x20 PUSH1 0x4 DUP3 ADD MSTORE PUSH1 0x30 PUSH1 0x24 DUP3 ADD MSTORE PUSH32 0x4552433732314275726E61626C653A2063616C6C6572206973206E6F74206F77 PUSH1 0x44 DUP3 ADD MSTORE PUSH16 0x1B995C881B9BDC88185C1C1C9BDD9959 PUSH1 0x82 SHL PUSH1 0x64 DUP3 ADD MSTORE PUSH1 0x84 ADD PUSH2 0xF0A JUMP JUMPDEST PUSH1 0x0 DUP2 DUP2 MSTORE PUSH1 0x12 PUSH1 0x20 MSTORE PUSH1 0x40 SWAP1 KECCAK256 DUP1 SLOAD PUSH2 0x1622 SWAP1 PUSH2 0x4DA1 JUMP JUMPDEST ISZERO SWAP1 POP PUSH2 0x1640 JUMPI PUSH1 0x0 DUP2 DUP2 MSTORE PUSH1 0x12 PUSH1 0x20 MSTORE PUSH1 0x40 DUP2 KECCAK256 PUSH2 0x1640 SWAP2 PUSH2 0x43EB JUMP JUMPDEST CALLER PUSH1 0x0 SWAP1 DUP2 MSTORE PUSH1 0x13 PUSH1 0x20 MSTORE PUSH1 0x40 SWAP1 KECCAK256 SLOAD ISZERO PUSH2 0x1666 JUMPI CALLER PUSH1 0x0 SWAP1 DUP2 MSTORE PUSH1 0x13 PUSH1 0x20 MSTORE PUSH1 0x40 DUP2 KECCAK256 SSTORE JUMPDEST PUSH2 0x166F DUP2 PUSH2 0x2EFC JUMP JUMPDEST PUSH2 0x157D DUP2 PUSH2 0x318E JUMP JUMPDEST PUSH1 0x0 PUSH2 0x13FC DUP4 DUP4 PUSH2 0x2E16 JUMP JUMPDEST PUSH1 0xB SLOAD PUSH1 0x1 PUSH1 0x1 PUSH1 0xA0 SHL SUB AND CALLER EQ PUSH2 0x16AE JUMPI PUSH1 0x40 MLOAD PUSH3 0x461BCD PUSH1 0xE5 SHL DUP2 MSTORE PUSH1 0x4 ADD PUSH2 0xF0A SWAP1 PUSH2 0x4EB3 JUMP JUMPDEST PUSH1 0x16 DUP1 SLOAD PUSH2 0xFF00 NOT DUP2 AND PUSH2 0x100 SWAP2 DUP3 SWAP1 DIV PUSH1 0xFF AND ISZERO SWAP1 SWAP2 MUL OR SWAP1 SSTORE JUMP JUMPDEST DUP1 PUSH2 0x16D5 CALLER PUSH2 0x1370 JUMP JUMPDEST PUSH2 0x16DE JUMPI PUSH1 0x0 DUP1 REVERT JUMPDEST PUSH2 0x13C6 DUP7 DUP7 DUP7 DUP7 DUP7 PUSH2 0x3235 JUMP JUMPDEST DUP1 PUSH2 0x16F5 CALLER PUSH2 0x1370 JUMP JUMPDEST PUSH2 0x16FE JUMPI PUSH1 0x0 DUP1 REVERT JUMPDEST PUSH2 0x170A DUP6 DUP6 DUP6 DUP6 PUSH2 0x3314 JUMP JUMPDEST POP POP POP POP POP JUMP JUMPDEST PUSH1 0x0 DUP1 PUSH2 0x171D DUP4 PUSH2 0x33B4 JUMP JUMPDEST SWAP1 POP PUSH1 0x0 DUP2 PUSH1 0x40 MLOAD PUSH1 0x20 ADD PUSH2 0x1732 SWAP2 SWAP1 PUSH2 0x4F89 JUMP JUMPDEST PUSH1 0x40 MLOAD PUSH1 0x20 DUP2 DUP4 SUB SUB DUP2 MSTORE SWAP1 PUSH1 0x40 MSTORE DUP1 MLOAD SWAP1 PUSH1 0x20 ADD KECCAK256 PUSH1 0x0 SHR SWAP1 POP PUSH2 0x1325 DUP2 PUSH2 0x18B5 JUMP JUMPDEST PUSH1 0x0 PUSH2 0x11E7 PUSH1 0x1A SLOAD PUSH2 0x11E1 PUSH1 0x17 SLOAD SWAP1 JUMP JUMPDEST PUSH1 0x0 PUSH2 0xE0A DUP3 PUSH2 0x2D4A JUMP JUMPDEST PUSH1 0x0 PUSH2 0x177D PUSH1 0x8 SLOAD SWAP1 JUMP JUMPDEST DUP3 LT PUSH2 0x17E0 JUMPI PUSH1 0x40 MLOAD PUSH3 0x461BCD PUSH1 0xE5 SHL DUP2 MSTORE PUSH1 0x20 PUSH1 0x4 DUP3 ADD MSTORE PUSH1 0x2C PUSH1 0x24 DUP3 ADD MSTORE PUSH32 0x455243373231456E756D657261626C653A20676C6F62616C20696E646578206F PUSH1 0x44 DUP3 ADD MSTORE PUSH12 0x7574206F6620626F756E6473 PUSH1 0xA0 SHL PUSH1 0x64 DUP3 ADD MSTORE PUSH1 0x84 ADD PUSH2 0xF0A JUMP JUMPDEST PUSH1 0x8 DUP3 DUP2 SLOAD DUP2 LT PUSH2 0x17F3 JUMPI PUSH2 0x17F3 PUSH2 0x4E26 JUMP JUMPDEST SWAP1 PUSH1 0x0 MSTORE PUSH1 0x20 PUSH1 0x0 KECCAK256 ADD SLOAD SWAP1 POP SWAP2 SWAP1 POP JUMP JUMPDEST PUSH2 0x157D DUP2 PUSH1 0x40 MLOAD PUSH1 0x20 ADD PUSH2 0x1819 SWAP2 SWAP1 PUSH2 0x4F89 JUMP JUMPDEST PUSH1 0x40 MLOAD PUSH1 0x20 DUP2 DUP4 SUB SUB DUP2 MSTORE SWAP1 PUSH1 0x40 MSTORE DUP1 MLOAD SWAP1 PUSH1 0x20 ADD KECCAK256 PUSH1 0x0 SHR DUP3 PUSH2 0x350E JUMP JUMPDEST PUSH1 0x0 DUP2 MLOAD PUSH1 0x0 EQ ISZERO PUSH2 0x1849 JUMPI PUSH1 0x0 DUP1 REVERT JUMPDEST DUP2 PUSH1 0x40 MLOAD PUSH1 0x20 ADD PUSH2 0x185A SWAP2 SWAP1 PUSH2 0x4F89 JUMP JUMPDEST PUSH1 0x40 DUP1 MLOAD PUSH1 0x1F NOT DUP2 DUP5 SUB ADD DUP2 MSTORE SWAP2 SWAP1 MSTORE DUP1 MLOAD PUSH1 0x20 SWAP1 SWAP2 ADD KECCAK256 SWAP3 SWAP2 POP POP JUMP JUMPDEST PUSH1 0xB SLOAD PUSH1 0x1 PUSH1 0x1 PUSH1 0xA0 SHL SUB AND CALLER EQ PUSH2 0x18A2 JUMPI PUSH1 0x40 MLOAD PUSH3 0x461BCD PUSH1 0xE5 SHL DUP2 MSTORE PUSH1 0x4 ADD PUSH2 0xF0A SWAP1 PUSH2 0x4EB3 JUMP JUMPDEST DUP1 MLOAD PUSH2 0x14B5 SWAP1 PUSH1 0x15 SWAP1 PUSH1 0x20 DUP5 ADD SWAP1 PUSH2 0x4425 JUMP JUMPDEST PUSH1 0x0 DUP2 DUP2 MSTORE PUSH1 0x2 PUSH1 0x20 MSTORE PUSH1 0x40 DUP2 KECCAK256 SLOAD PUSH1 0x1 PUSH1 0x1 PUSH1 0xA0 SHL SUB AND DUP1 PUSH2 0xE0A JUMPI PUSH1 0x40 MLOAD PUSH3 0x461BCD PUSH1 0xE5 SHL DUP2 MSTORE PUSH1 0x20 PUSH1 0x4 DUP3 ADD MSTORE PUSH1 0x29 PUSH1 0x24 DUP3 ADD MSTORE PUSH32 0x4552433732313A206F776E657220717565727920666F72206E6F6E6578697374 PUSH1 0x44 DUP3 ADD MSTORE PUSH9 0x32B73A103A37B5B2B7 PUSH1 0xB9 SHL PUSH1 0x64 DUP3 ADD MSTORE PUSH1 0x84 ADD PUSH2 0xF0A JUMP JUMPDEST PUSH1 0x16 SLOAD PUSH1 0xFF AND PUSH2 0x197E JUMPI PUSH1 0x40 MLOAD PUSH3 0x461BCD PUSH1 0xE5 SHL DUP2 MSTORE PUSH1 0x20 PUSH1 0x4 DUP3 ADD MSTORE PUSH1 0x1A PUSH1 0x24 DUP3 ADD MSTORE PUSH32 0x53616C65206D7573742062652061637469766520746F20627579000000000000 PUSH1 0x44 DUP3 ADD MSTORE PUSH1 0x64 ADD PUSH2 0xF0A JUMP JUMPDEST DUP1 MLOAD PUSH2 0x199C JUMPI PUSH1 0x40 MLOAD PUSH3 0x461BCD PUSH1 0xE5 SHL DUP2 MSTORE PUSH1 0x4 ADD PUSH2 0xF0A SWAP1 PUSH2 0x4FA5 JUMP JUMPDEST PUSH2 0x19A5 DUP2 PUSH2 0x2A83 JUMP JUMPDEST ISZERO ISZERO PUSH1 0x1 EQ PUSH2 0x19F6 JUMPI PUSH1 0x40 MLOAD PUSH3 0x461BCD PUSH1 0xE5 SHL DUP2 MSTORE PUSH1 0x20 PUSH1 0x4 DUP3 ADD MSTORE PUSH1 0x1A PUSH1 0x24 DUP3 ADD MSTORE PUSH32 0x546F70206C6576656C20646F6D61696E206E6F74206578697374000000000000 PUSH1 0x44 DUP3 ADD MSTORE PUSH1 0x64 ADD PUSH2 0xF0A JUMP JUMPDEST PUSH2 0x19FF DUP3 PUSH2 0x353A JUMP JUMPDEST ISZERO PUSH2 0x1A4C JUMPI PUSH1 0x40 MLOAD PUSH3 0x461BCD PUSH1 0xE5 SHL DUP2 MSTORE PUSH1 0x20 PUSH1 0x4 DUP3 ADD MSTORE PUSH1 0x1A PUSH1 0x24 DUP3 ADD MSTORE PUSH32 0x446F6D61696E732063616E6E6F7420636F6E7461696E20646F74000000000000 PUSH1 0x44 DUP3 ADD MSTORE PUSH1 0x64 ADD PUSH2 0xF0A JUMP JUMPDEST DUP2 MLOAD DUP1 PUSH2 0x1A96 JUMPI PUSH1 0x40 MLOAD PUSH3 0x461BCD PUSH1 0xE5 SHL DUP2 MSTORE PUSH1 0x20 PUSH1 0x4 DUP3 ADD MSTORE PUSH1 0x18 PUSH1 0x24 DUP3 ADD MSTORE PUSH24 0x446F6D61696E206D757374206265206E6F6E2D656D707479 PUSH1 0x40 SHL PUSH1 0x44 DUP3 ADD MSTORE PUSH1 0x64 ADD PUSH2 0xF0A JUMP JUMPDEST PUSH1 0x2 DUP2 LT ISZERO PUSH2 0x1AF5 JUMPI PUSH1 0x40 MLOAD PUSH3 0x461BCD PUSH1 0xE5 SHL DUP2 MSTORE PUSH1 0x20 PUSH1 0x4 DUP3 ADD MSTORE PUSH1 0x25 PUSH1 0x24 DUP3 ADD MSTORE PUSH32 0x446F6D61696E207265717569726573206174206C656173742032206368617261 PUSH1 0x44 DUP3 ADD MSTORE PUSH5 0x6374657273 PUSH1 0xD8 SHL PUSH1 0x64 DUP3 ADD MSTORE PUSH1 0x84 ADD PUSH2 0xF0A JUMP JUMPDEST PUSH1 0x10 SLOAD PUSH1 0xFF AND ISZERO ISZERO PUSH1 0x1 EQ ISZERO PUSH2 0x1BD9 JUMPI CALLER PUSH1 0x0 SWAP1 DUP2 MSTORE PUSH1 0xF PUSH1 0x20 MSTORE PUSH1 0x40 SWAP1 KECCAK256 SLOAD PUSH1 0xFF AND DUP1 PUSH2 0x1B71 JUMPI PUSH1 0x40 MLOAD PUSH3 0x461BCD PUSH1 0xE5 SHL DUP2 MSTORE PUSH1 0x20 PUSH1 0x4 DUP3 ADD MSTORE PUSH1 0x23 PUSH1 0x24 DUP3 ADD MSTORE PUSH32 0x5468652061646472657373206973206E6F7420696E207468652057686974656C PUSH1 0x44 DUP3 ADD MSTORE PUSH3 0x1A5CDD PUSH1 0xEA SHL PUSH1 0x64 DUP3 ADD MSTORE PUSH1 0x84 ADD PUSH2 0xF0A JUMP JUMPDEST PUSH2 0x1B7A CALLER PUSH2 0x1E58 JUMP JUMPDEST DUP2 PUSH1 0xFF AND LT ISZERO PUSH2 0x1BD7 JUMPI PUSH1 0x40 MLOAD PUSH3 0x461BCD PUSH1 0xE5 SHL DUP2 MSTORE PUSH1 0x20 PUSH1 0x4 DUP3 ADD MSTORE PUSH1 0x22 PUSH1 0x24 DUP3 ADD MSTORE PUSH32 0x4578636565646564206D617820617661696C61626C6520746F20707572636861 PUSH1 0x44 DUP3 ADD MSTORE PUSH2 0x7365 PUSH1 0xF0 SHL PUSH1 0x64 DUP3 ADD MSTORE PUSH1 0x84 ADD PUSH2 0xF0A JUMP JUMPDEST POP JUMPDEST DUP1 PUSH1 0x2 EQ ISZERO PUSH2 0x1C88 JUMPI PUSH1 0x16 SLOAD PUSH1 0xFF PUSH2 0x100 SWAP1 SWAP2 DIV AND ISZERO ISZERO PUSH1 0x1 EQ PUSH2 0x1C5A JUMPI PUSH1 0x40 MLOAD PUSH3 0x461BCD PUSH1 0xE5 SHL DUP2 MSTORE PUSH1 0x20 PUSH1 0x4 DUP3 ADD MSTORE PUSH1 0x32 PUSH1 0x24 DUP3 ADD MSTORE PUSH32 0x322043686172616374657220646F6D61696E206E616D6573206E65656420746F PUSH1 0x44 DUP3 ADD MSTORE PUSH18 0x20626520616C6C6F77656420746F20627579 PUSH1 0x70 SHL PUSH1 0x64 DUP3 ADD MSTORE PUSH1 0x84 ADD PUSH2 0xF0A JUMP JUMPDEST PUSH2 0x1C69 PUSH1 0x18 SLOAD PUSH2 0x11E1 PUSH1 0x17 SLOAD SWAP1 JUMP JUMPDEST CALLVALUE LT ISZERO PUSH2 0x1C88 JUMPI PUSH1 0x40 MLOAD PUSH3 0x461BCD PUSH1 0xE5 SHL DUP2 MSTORE PUSH1 0x4 ADD PUSH2 0xF0A SWAP1 PUSH2 0x4FE7 JUMP JUMPDEST DUP1 PUSH1 0x3 EQ ISZERO PUSH2 0x1CBF JUMPI PUSH2 0x1CA0 PUSH1 0x19 SLOAD PUSH2 0x11E1 PUSH1 0x17 SLOAD SWAP1 JUMP JUMPDEST CALLVALUE LT ISZERO PUSH2 0x1CBF JUMPI PUSH1 0x40 MLOAD PUSH3 0x461BCD PUSH1 0xE5 SHL DUP2 MSTORE PUSH1 0x4 ADD PUSH2 0xF0A SWAP1 PUSH2 0x4FE7 JUMP JUMPDEST DUP1 PUSH1 0x4 EQ ISZERO PUSH2 0x1CF6 JUMPI PUSH2 0x1CD7 PUSH1 0x1A SLOAD PUSH2 0x11E1 PUSH1 0x17 SLOAD SWAP1 JUMP JUMPDEST CALLVALUE LT ISZERO PUSH2 0x1CF6 JUMPI PUSH1 0x40 MLOAD PUSH3 0x461BCD PUSH1 0xE5 SHL DUP2 MSTORE PUSH1 0x4 ADD PUSH2 0xF0A SWAP1 PUSH2 0x4FE7 JUMP JUMPDEST PUSH1 0x5 DUP2 LT PUSH2 0x1D20 JUMPI PUSH1 0x17 SLOAD CALLVALUE LT ISZERO PUSH2 0x1D20 JUMPI PUSH1 0x40 MLOAD PUSH3 0x461BCD PUSH1 0xE5 SHL DUP2 MSTORE PUSH1 0x4 ADD PUSH2 0xF0A SWAP1 PUSH2 0x4FE7 JUMP JUMPDEST PUSH1 0x0 PUSH2 0x1D2B DUP5 PUSH2 0x33B4 JUMP JUMPDEST SWAP1 POP PUSH1 0x0 PUSH2 0x1D38 DUP5 PUSH2 0x33B4 JUMP JUMPDEST SWAP1 POP DUP2 DUP2 PUSH1 0x40 MLOAD PUSH1 0x20 ADD PUSH2 0x1D4D SWAP3 SWAP2 SWAP1 PUSH2 0x503C JUMP JUMPDEST PUSH1 0x40 MLOAD PUSH1 0x20 DUP2 DUP4 SUB SUB DUP2 MSTORE SWAP1 PUSH1 0x40 MSTORE SWAP2 POP PUSH1 0x0 PUSH2 0x1D69 DUP4 PUSH2 0x1838 JUMP JUMPDEST SWAP1 POP PUSH2 0x1D74 DUP2 PUSH2 0x2D4A JUMP JUMPDEST ISZERO PUSH2 0x1DB9 JUMPI PUSH1 0x40 MLOAD PUSH3 0x461BCD PUSH1 0xE5 SHL DUP2 MSTORE PUSH1 0x20 PUSH1 0x4 DUP3 ADD MSTORE PUSH1 0x15 PUSH1 0x24 DUP3 ADD MSTORE PUSH21 0x446F6D61696E20616C726561647920657869737473 PUSH1 0x58 SHL PUSH1 0x44 DUP3 ADD MSTORE PUSH1 0x64 ADD PUSH2 0xF0A JUMP JUMPDEST PUSH2 0x1DC3 CALLER DUP3 PUSH2 0x3599 JUMP JUMPDEST PUSH2 0x1DCD DUP2 DUP5 PUSH2 0x35B3 JUMP JUMPDEST DUP1 PUSH32 0xC5BEEF08F693B11C316C0C8394A377A0033C9CF701B8CD8AFD79CECEF60C3952 DUP5 PUSH1 0x40 MLOAD PUSH2 0x1DFD SWAP2 SWAP1 PUSH2 0x4578 JUMP JUMPDEST PUSH1 0x40 MLOAD DUP1 SWAP2 SUB SWAP1 LOG2 POP POP POP POP POP POP JUMP JUMPDEST PUSH1 0x60 DUP1 PUSH2 0x1E1A DUP5 DUP5 PUSH2 0x363C JUMP JUMPDEST SWAP1 SWAP6 SWAP1 SWAP5 POP SWAP3 POP POP POP JUMP JUMPDEST PUSH1 0xB SLOAD PUSH1 0x1 PUSH1 0x1 PUSH1 0xA0 SHL SUB AND CALLER EQ PUSH2 0x1E4F JUMPI PUSH1 0x40 MLOAD PUSH3 0x461BCD PUSH1 0xE5 SHL DUP2 MSTORE PUSH1 0x4 ADD PUSH2 0xF0A SWAP1 PUSH2 0x4EB3 JUMP JUMPDEST PUSH2 0x157D DUP2 PUSH2 0x365D JUMP JUMPDEST PUSH1 0x0 PUSH1 0x1 PUSH1 0x1 PUSH1 0xA0 SHL SUB DUP3 AND PUSH2 0x1EC3 JUMPI PUSH1 0x40 MLOAD PUSH3 0x461BCD PUSH1 0xE5 SHL DUP2 MSTORE PUSH1 0x20 PUSH1 0x4 DUP3 ADD MSTORE PUSH1 0x2A PUSH1 0x24 DUP3 ADD MSTORE PUSH32 0x4552433732313A2062616C616E636520717565727920666F7220746865207A65 PUSH1 0x44 DUP3 ADD MSTORE PUSH10 0x726F2061646472657373 PUSH1 0xB0 SHL PUSH1 0x64 DUP3 ADD MSTORE PUSH1 0x84 ADD PUSH2 0xF0A JUMP JUMPDEST POP PUSH1 0x1 PUSH1 0x1 PUSH1 0xA0 SHL SUB AND PUSH1 0x0 SWAP1 DUP2 MSTORE PUSH1 0x3 PUSH1 0x20 MSTORE PUSH1 0x40 SWAP1 KECCAK256 SLOAD SWAP1 JUMP JUMPDEST PUSH1 0xB SLOAD PUSH1 0x1 PUSH1 0x1 PUSH1 0xA0 SHL SUB AND CALLER EQ PUSH2 0x1F09 JUMPI PUSH1 0x40 MLOAD PUSH3 0x461BCD PUSH1 0xE5 SHL DUP2 MSTORE PUSH1 0x4 ADD PUSH2 0xF0A SWAP1 PUSH2 0x4EB3 JUMP JUMPDEST PUSH2 0x1548 PUSH1 0x0 PUSH2 0x3668 JUMP JUMPDEST PUSH1 0x0 PUSH2 0x1F1E DUP3 PUSH2 0x2D4A JUMP JUMPDEST PUSH2 0x1F27 JUMPI PUSH1 0x0 DUP1 REVERT JUMPDEST PUSH1 0x0 DUP3 DUP2 MSTORE PUSH1 0x11 PUSH1 0x20 MSTORE PUSH1 0x40 SWAP1 KECCAK256 PUSH2 0xE0A SWAP1 PUSH2 0x36BA JUMP JUMPDEST PUSH2 0x1F47 CALLER PUSH2 0x22A5 JUMP JUMPDEST PUSH2 0x1F63 JUMPI PUSH1 0x40 MLOAD PUSH3 0x461BCD PUSH1 0xE5 SHL DUP2 MSTORE PUSH1 0x4 ADD PUSH2 0xF0A SWAP1 PUSH2 0x4DDC JUMP JUMPDEST PUSH1 0x1 PUSH1 0x1 PUSH1 0xA0 SHL SUB DUP4 AND PUSH2 0x1FAE JUMPI PUSH1 0x40 MLOAD PUSH3 0x461BCD PUSH1 0xE5 SHL DUP2 MSTORE PUSH1 0x20 PUSH1 0x4 DUP3 ADD MSTORE PUSH1 0x12 PUSH1 0x24 DUP3 ADD MSTORE PUSH18 0x151BC81859191C995CDCC81A5CC81B9D5B1B PUSH1 0x72 SHL PUSH1 0x44 DUP3 ADD MSTORE PUSH1 0x64 ADD PUSH2 0xF0A JUMP JUMPDEST DUP1 MLOAD PUSH2 0x1FCC JUMPI PUSH1 0x40 MLOAD PUSH3 0x461BCD PUSH1 0xE5 SHL DUP2 MSTORE PUSH1 0x4 ADD PUSH2 0xF0A SWAP1 PUSH2 0x4FA5 JUMP JUMPDEST PUSH2 0x1FD5 DUP2 PUSH2 0x2A83 JUMP JUMPDEST ISZERO ISZERO PUSH1 0x1 EQ PUSH2 0x2026 JUMPI PUSH1 0x40 MLOAD PUSH3 0x461BCD PUSH1 0xE5 SHL DUP2 MSTORE PUSH1 0x20 PUSH1 0x4 DUP3 ADD MSTORE PUSH1 0x1A PUSH1 0x24 DUP3 ADD MSTORE PUSH32 0x546F70206C6576656C20646F6D61696E206E6F74206578697374000000000000 PUSH1 0x44 DUP3 ADD MSTORE PUSH1 0x64 ADD PUSH2 0xF0A JUMP JUMPDEST DUP2 MLOAD PUSH2 0x206F JUMPI PUSH1 0x40 MLOAD PUSH3 0x461BCD PUSH1 0xE5 SHL DUP2 MSTORE PUSH1 0x20 PUSH1 0x4 DUP3 ADD MSTORE PUSH1 0x18 PUSH1 0x24 DUP3 ADD MSTORE PUSH24 0x446F6D61696E206D757374206265206E6F6E2D656D707479 PUSH1 0x40 SHL PUSH1 0x44 DUP3 ADD MSTORE PUSH1 0x64 ADD PUSH2 0xF0A JUMP JUMPDEST PUSH2 0x2078 DUP3 PUSH2 0x353A JUMP JUMPDEST ISZERO PUSH2 0x20BA JUMPI PUSH1 0x40 MLOAD PUSH3 0x461BCD PUSH1 0xE5 SHL DUP2 MSTORE PUSH1 0x20 PUSH1 0x4 DUP3 ADD MSTORE PUSH1 0x12 PUSH1 0x24 DUP3 ADD MSTORE PUSH18 0x111BDB585A5B881B9BDD081CDD5C1C1BDC9D PUSH1 0x72 SHL PUSH1 0x44 DUP3 ADD MSTORE PUSH1 0x64 ADD PUSH2 0xF0A JUMP JUMPDEST PUSH1 0x0 PUSH2 0x20C5 DUP4 PUSH2 0x33B4 JUMP JUMPDEST SWAP1 POP PUSH1 0x0 PUSH2 0x20D2 DUP4 PUSH2 0x33B4 JUMP JUMPDEST SWAP1 POP DUP2 DUP2 PUSH1 0x40 MLOAD PUSH1 0x20 ADD PUSH2 0x20E7 SWAP3 SWAP2 SWAP1 PUSH2 0x503C JUMP JUMPDEST PUSH1 0x40 MLOAD PUSH1 0x20 DUP2 DUP4 SUB SUB DUP2 MSTORE SWAP1 PUSH1 0x40 MSTORE SWAP2 POP PUSH1 0x0 PUSH2 0x2103 DUP4 PUSH2 0x1838 JUMP JUMPDEST SWAP1 POP PUSH2 0x210E DUP2 PUSH2 0x2D4A JUMP JUMPDEST ISZERO PUSH2 0x2153 JUMPI PUSH1 0x40 MLOAD PUSH3 0x461BCD PUSH1 0xE5 SHL DUP2 MSTORE PUSH1 0x20 PUSH1 0x4 DUP3 ADD MSTORE PUSH1 0x15 PUSH1 0x24 DUP3 ADD MSTORE PUSH21 0x446F6D61696E20616C726561647920657869737473 PUSH1 0x58 SHL PUSH1 0x44 DUP3 ADD MSTORE PUSH1 0x64 ADD PUSH2 0xF0A JUMP JUMPDEST PUSH2 0x1DC3 DUP7 DUP3 PUSH2 0x3599 JUMP JUMPDEST PUSH1 0x1 PUSH1 0x1 PUSH1 0xA0 SHL SUB DUP2 AND PUSH1 0x0 SWAP1 DUP2 MSTORE PUSH1 0x13 PUSH1 0x20 MSTORE PUSH1 0x40 SWAP1 KECCAK256 SLOAD PUSH1 0x60 SWAP1 DUP1 PUSH2 0x2196 JUMPI PUSH1 0x40 MLOAD PUSH3 0x461BCD PUSH1 0xE5 SHL DUP2 MSTORE PUSH1 0x4 ADD PUSH2 0xF0A SWAP1 PUSH2 0x5078 JUMP JUMPDEST PUSH2 0x21A0 DUP4 DUP3 PUSH2 0x2E16 JUMP JUMPDEST PUSH2 0x2206 JUMPI PUSH1 0x40 MLOAD PUSH3 0x461BCD PUSH1 0xE5 SHL DUP2 MSTORE PUSH1 0x20 PUSH1 0x4 DUP3 ADD MSTORE PUSH1 0x31 PUSH1 0x24 DUP3 ADD MSTORE PUSH32 0x526576657273655265736F6C7665723A204143434F554E545F49535F4E4F545F PUSH1 0x44 DUP3 ADD MSTORE PUSH17 0x20A8282927AB22A22FA7A92FA7ABA722A9 PUSH1 0x79 SHL PUSH1 0x64 DUP3 ADD MSTORE PUSH1 0x84 ADD PUSH2 0xF0A JUMP JUMPDEST PUSH1 0x0 DUP2 DUP2 MSTORE PUSH1 0x12 PUSH1 0x20 MSTORE PUSH1 0x40 SWAP1 KECCAK256 DUP1 SLOAD PUSH2 0x221F SWAP1 PUSH2 0x4DA1 JUMP JUMPDEST DUP1 PUSH1 0x1F ADD PUSH1 0x20 DUP1 SWAP2 DIV MUL PUSH1 0x20 ADD PUSH1 0x40 MLOAD SWAP1 DUP2 ADD PUSH1 0x40 MSTORE DUP1 SWAP3 SWAP2 SWAP1 DUP2 DUP2 MSTORE PUSH1 0x20 ADD DUP3 DUP1 SLOAD PUSH2 0x224B SWAP1 PUSH2 0x4DA1 JUMP JUMPDEST DUP1 ISZERO PUSH2 0x2298 JUMPI DUP1 PUSH1 0x1F LT PUSH2 0x226D JUMPI PUSH2 0x100 DUP1 DUP4 SLOAD DIV MUL DUP4 MSTORE SWAP2 PUSH1 0x20 ADD SWAP2 PUSH2 0x2298 JUMP JUMPDEST DUP3 ADD SWAP2 SWAP1 PUSH1 0x0 MSTORE PUSH1 0x20 PUSH1 0x0 KECCAK256 SWAP1 JUMPDEST DUP2 SLOAD DUP2 MSTORE SWAP1 PUSH1 0x1 ADD SWAP1 PUSH1 0x20 ADD DUP1 DUP4 GT PUSH2 0x227B JUMPI DUP3 SWAP1 SUB PUSH1 0x1F AND DUP3 ADD SWAP2 JUMPDEST POP POP POP POP POP SWAP2 POP POP SWAP2 SWAP1 POP JUMP JUMPDEST PUSH1 0x0 PUSH2 0xE0A PUSH1 0xC DUP4 PUSH2 0x36C4 JUMP JUMPDEST PUSH1 0xB SLOAD PUSH1 0x1 PUSH1 0x1 PUSH1 0xA0 SHL SUB AND CALLER EQ PUSH2 0x22DC JUMPI PUSH1 0x40 MLOAD PUSH3 0x461BCD PUSH1 0xE5 SHL DUP2 MSTORE PUSH1 0x4 ADD PUSH2 0xF0A SWAP1 PUSH2 0x4EB3 JUMP JUMPDEST PUSH1 0x18 SWAP3 SWAP1 SWAP3 SSTORE PUSH1 0x19 SSTORE PUSH1 0x1A SSTORE JUMP JUMPDEST PUSH1 0xB SLOAD PUSH1 0x1 PUSH1 0x1 PUSH1 0xA0 SHL SUB AND CALLER EQ PUSH2 0x2314 JUMPI PUSH1 0x40 MLOAD PUSH3 0x461BCD PUSH1 0xE5 SHL DUP2 MSTORE PUSH1 0x4 ADD PUSH2 0xF0A SWAP1 PUSH2 0x4EB3 JUMP JUMPDEST PUSH1 0x17 SSTORE JUMP JUMPDEST PUSH1 0x60 PUSH1 0x1 DUP1 SLOAD PUSH2 0xE1F SWAP1 PUSH2 0x4DA1 JUMP JUMPDEST DUP2 PUSH2 0x2332 CALLER PUSH2 0x1370 JUMP JUMPDEST PUSH2 0x233B JUMPI PUSH1 0x0 DUP1 REVERT JUMPDEST PUSH2 0x11CA DUP5 DUP5 DUP5 PUSH1 0x40 MLOAD DUP1 PUSH1 0x20 ADD PUSH1 0x40 MSTORE DUP1 PUSH1 0x0 DUP2 MSTORE POP PUSH2 0x3747 JUMP JUMPDEST PUSH1 0x0 PUSH2 0x2361 DUP3 PUSH2 0x1838 JUMP JUMPDEST SWAP1 POP CALLER PUSH2 0x236E DUP2 DUP4 PUSH2 0x2E16 JUMP JUMPDEST PUSH2 0x238A JUMPI PUSH1 0x40 MLOAD PUSH3 0x461BCD PUSH1 0xE5 SHL DUP2 MSTORE PUSH1 0x4 ADD PUSH2 0xF0A SWAP1 PUSH2 0x4F39 JUMP JUMPDEST PUSH1 0x1 PUSH1 0x1 PUSH1 0xA0 SHL SUB AND PUSH1 0x0 SWAP1 DUP2 MSTORE PUSH1 0x13 PUSH1 0x20 MSTORE PUSH1 0x40 SWAP1 KECCAK256 SSTORE POP JUMP JUMPDEST PUSH1 0x1 PUSH1 0x1 PUSH1 0xA0 SHL SUB DUP3 AND CALLER EQ ISZERO PUSH2 0x23FE JUMPI PUSH1 0x40 MLOAD PUSH3 0x461BCD PUSH1 0xE5 SHL DUP2 MSTORE PUSH1 0x20 PUSH1 0x4 DUP3 ADD MSTORE PUSH1 0x19 PUSH1 0x24 DUP3 ADD MSTORE PUSH32 0x4552433732313A20617070726F766520746F2063616C6C657200000000000000 PUSH1 0x44 DUP3 ADD MSTORE PUSH1 0x64 ADD PUSH2 0xF0A JUMP JUMPDEST CALLER PUSH1 0x0 DUP2 DUP2 MSTORE PUSH1 0x5 PUSH1 0x20 SWAP1 DUP2 MSTORE PUSH1 0x40 DUP1 DUP4 KECCAK256 PUSH1 0x1 PUSH1 0x1 PUSH1 0xA0 SHL SUB DUP8 AND DUP1 DUP6 MSTORE SWAP1 DUP4 MSTORE SWAP3 DUP2 SWAP1 KECCAK256 DUP1 SLOAD PUSH1 0xFF NOT AND DUP7 ISZERO ISZERO SWAP1 DUP2 OR SWAP1 SWAP2 SSTORE SWAP1 MLOAD SWAP1 DUP2 MSTORE SWAP2 SWAP3 SWAP2 PUSH32 0x17307EAB39AB6107E8899845AD3D59BD9653F200F220920489CA2B5937696C31 SWAP2 ADD PUSH1 0x40 MLOAD DUP1 SWAP2 SUB SWAP1 LOG3 POP POP JUMP JUMPDEST DUP1 PUSH2 0x2474 CALLER PUSH2 0x1370 JUMP JUMPDEST PUSH2 0x247D JUMPI PUSH1 0x0 DUP1 REVERT JUMPDEST PUSH2 0x1092 PUSH2 0x2489 DUP4 PUSH2 0x18B5 JUMP JUMPDEST DUP5 DUP5 PUSH2 0x2F69 JUMP JUMPDEST PUSH1 0xB SLOAD PUSH1 0x1 PUSH1 0x1 PUSH1 0xA0 SHL SUB AND CALLER EQ PUSH2 0x24BA JUMPI PUSH1 0x40 MLOAD PUSH3 0x461BCD PUSH1 0xE5 SHL DUP2 MSTORE PUSH1 0x4 ADD PUSH2 0xF0A SWAP1 PUSH2 0x4EB3 JUMP JUMPDEST PUSH1 0x0 PUSH2 0x24C5 DUP3 PUSH2 0x1838 JUMP JUMPDEST PUSH1 0x0 DUP2 DUP2 MSTORE PUSH1 0x14 PUSH1 0x20 SWAP1 DUP2 MSTORE PUSH1 0x40 SWAP1 SWAP2 KECCAK256 DUP5 MLOAD SWAP3 SWAP4 POP PUSH2 0x1092 SWAP3 SWAP1 SWAP2 DUP6 ADD SWAP1 PUSH2 0x4425 JUMP JUMPDEST PUSH1 0x60 DUP1 DUP4 PUSH1 0x1 PUSH1 0x1 PUSH1 0x40 SHL SUB DUP2 GT ISZERO PUSH2 0x2504 JUMPI PUSH2 0x2504 PUSH2 0x4953 JUMP JUMPDEST PUSH1 0x40 MLOAD SWAP1 DUP1 DUP3 MSTORE DUP1 PUSH1 0x20 MUL PUSH1 0x20 ADD DUP3 ADD PUSH1 0x40 MSTORE DUP1 ISZERO PUSH2 0x2537 JUMPI DUP2 PUSH1 0x20 ADD JUMPDEST PUSH1 0x60 DUP2 MSTORE PUSH1 0x20 ADD SWAP1 PUSH1 0x1 SWAP1 SUB SWAP1 DUP2 PUSH2 0x2522 JUMPI SWAP1 POP JUMPDEST POP SWAP2 POP DUP4 PUSH1 0x1 PUSH1 0x1 PUSH1 0x40 SHL SUB DUP2 GT ISZERO PUSH2 0x2552 JUMPI PUSH2 0x2552 PUSH2 0x4953 JUMP JUMPDEST PUSH1 0x40 MLOAD SWAP1 DUP1 DUP3 MSTORE DUP1 PUSH1 0x20 MUL PUSH1 0x20 ADD DUP3 ADD PUSH1 0x40 MSTORE DUP1 ISZERO PUSH2 0x2585 JUMPI DUP2 PUSH1 0x20 ADD JUMPDEST PUSH1 0x60 DUP2 MSTORE PUSH1 0x20 ADD SWAP1 PUSH1 0x1 SWAP1 SUB SWAP1 DUP2 PUSH2 0x2570 JUMPI SWAP1 POP JUMPDEST POP SWAP1 POP PUSH1 0x0 JUMPDEST DUP5 DUP2 LT ISZERO PUSH2 0x2602 JUMPI PUSH2 0x25B5 DUP7 DUP7 DUP4 DUP2 DUP2 LT PUSH2 0x25A8 JUMPI PUSH2 0x25A8 PUSH2 0x4E26 JUMP JUMPDEST SWAP1 POP PUSH1 0x20 MUL ADD CALLDATALOAD DUP6 PUSH2 0x363C JUMP JUMPDEST DUP5 DUP4 DUP2 MLOAD DUP2 LT PUSH2 0x25C7 JUMPI PUSH2 0x25C7 PUSH2 0x4E26 JUMP JUMPDEST PUSH1 0x20 MUL PUSH1 0x20 ADD ADD DUP5 DUP5 DUP2 MLOAD DUP2 LT PUSH2 0x25E0 JUMPI PUSH2 0x25E0 PUSH2 0x4E26 JUMP JUMPDEST PUSH1 0x20 MUL PUSH1 0x20 ADD ADD DUP3 SWAP1 MSTORE DUP3 SWAP1 MSTORE POP POP DUP1 DUP1 PUSH2 0x25FA SWAP1 PUSH2 0x4E52 JUMP JUMPDEST SWAP2 POP POP PUSH2 0x258B JUMP JUMPDEST POP SWAP4 POP SWAP4 SWAP2 POP POP JUMP JUMPDEST PUSH2 0x2615 CALLER DUP4 PUSH2 0x2E16 JUMP JUMPDEST PUSH2 0x2631 JUMPI PUSH1 0x40 MLOAD PUSH3 0x461BCD PUSH1 0xE5 SHL DUP2 MSTORE PUSH1 0x4 ADD PUSH2 0xF0A SWAP1 PUSH2 0x4EE8 JUMP JUMPDEST PUSH2 0x263A DUP3 PUSH2 0x2EFC JUMP JUMPDEST PUSH2 0x11CA DUP5 DUP5 DUP5 DUP5 PUSH2 0x3914 JUMP JUMPDEST PUSH1 0x0 DUP2 DUP2 MSTORE PUSH1 0xA PUSH1 0x20 MSTORE PUSH1 0x40 SWAP1 KECCAK256 DUP1 SLOAD PUSH1 0x60 SWAP2 SWAP1 PUSH2 0x2663 SWAP1 PUSH2 0x4DA1 JUMP JUMPDEST DUP1 PUSH1 0x1F ADD PUSH1 0x20 DUP1 SWAP2 DIV MUL PUSH1 0x20 ADD PUSH1 0x40 MLOAD SWAP1 DUP2 ADD PUSH1 0x40 MSTORE DUP1 SWAP3 SWAP2 SWAP1 DUP2 DUP2 MSTORE PUSH1 0x20 ADD DUP3 DUP1 SLOAD PUSH2 0x268F SWAP1 PUSH2 0x4DA1 JUMP JUMPDEST DUP1 ISZERO PUSH2 0x26DC JUMPI DUP1 PUSH1 0x1F LT PUSH2 0x26B1 JUMPI PUSH2 0x100 DUP1 DUP4 SLOAD DIV MUL DUP4 MSTORE SWAP2 PUSH1 0x20 ADD SWAP2 PUSH2 0x26DC JUMP JUMPDEST DUP3 ADD SWAP2 SWAP1 PUSH1 0x0 MSTORE PUSH1 0x20 PUSH1 0x0 KECCAK256 SWAP1 JUMPDEST DUP2 SLOAD DUP2 MSTORE SWAP1 PUSH1 0x1 ADD SWAP1 PUSH1 0x20 ADD DUP1 DUP4 GT PUSH2 0x26BF JUMPI DUP3 SWAP1 SUB PUSH1 0x1F AND DUP3 ADD SWAP2 JUMPDEST POP POP POP POP POP SWAP1 POP SWAP2 SWAP1 POP JUMP JUMPDEST PUSH1 0x60 DUP1 PUSH1 0x0 PUSH2 0x26F6 DUP5 PUSH2 0x1E58 JUMP JUMPDEST SWAP1 POP PUSH1 0x0 DUP2 GT PUSH2 0x2722 JUMPI PUSH1 0x40 MLOAD PUSH3 0x461BCD PUSH1 0xE5 SHL DUP2 MSTORE PUSH1 0x20 PUSH1 0x4 DUP3 ADD MSTORE PUSH1 0x0 PUSH1 0x24 DUP3 ADD MSTORE PUSH1 0x44 ADD PUSH2 0xF0A JUMP JUMPDEST PUSH1 0x0 DUP2 PUSH1 0x1 PUSH1 0x1 PUSH1 0x40 SHL SUB DUP2 GT ISZERO PUSH2 0x273C JUMPI PUSH2 0x273C PUSH2 0x4953 JUMP JUMPDEST PUSH1 0x40 MLOAD SWAP1 DUP1 DUP3 MSTORE DUP1 PUSH1 0x20 MUL PUSH1 0x20 ADD DUP3 ADD PUSH1 0x40 MSTORE DUP1 ISZERO PUSH2 0x2765 JUMPI DUP2 PUSH1 0x20 ADD PUSH1 0x20 DUP3 MUL DUP1 CALLDATASIZE DUP4 CALLDATACOPY ADD SWAP1 POP JUMPDEST POP SWAP1 POP PUSH1 0x0 DUP3 PUSH1 0x1 PUSH1 0x1 PUSH1 0x40 SHL SUB DUP2 GT ISZERO PUSH2 0x2782 JUMPI PUSH2 0x2782 PUSH2 0x4953 JUMP JUMPDEST PUSH1 0x40 MLOAD SWAP1 DUP1 DUP3 MSTORE DUP1 PUSH1 0x20 MUL PUSH1 0x20 ADD DUP3 ADD PUSH1 0x40 MSTORE DUP1 ISZERO PUSH2 0x27B5 JUMPI DUP2 PUSH1 0x20 ADD JUMPDEST PUSH1 0x60 DUP2 MSTORE PUSH1 0x20 ADD SWAP1 PUSH1 0x1 SWAP1 SUB SWAP1 DUP2 PUSH2 0x27A0 JUMPI SWAP1 POP JUMPDEST POP SWAP1 POP PUSH1 0x0 JUMPDEST DUP4 DUP2 LT ISZERO PUSH2 0x28BF JUMPI PUSH1 0x0 PUSH2 0x27CF DUP9 DUP4 PUSH2 0x1403 JUMP JUMPDEST PUSH1 0x0 DUP2 DUP2 MSTORE PUSH1 0x12 PUSH1 0x20 MSTORE PUSH1 0x40 DUP2 KECCAK256 DUP1 SLOAD SWAP3 SWAP4 POP SWAP1 SWAP2 PUSH2 0x27ED SWAP1 PUSH2 0x4DA1 JUMP JUMPDEST DUP1 PUSH1 0x1F ADD PUSH1 0x20 DUP1 SWAP2 DIV MUL PUSH1 0x20 ADD PUSH1 0x40 MLOAD SWAP1 DUP2 ADD PUSH1 0x40 MSTORE DUP1 SWAP3 SWAP2 SWAP1 DUP2 DUP2 MSTORE PUSH1 0x20 ADD DUP3 DUP1 SLOAD PUSH2 0x2819 SWAP1 PUSH2 0x4DA1 JUMP JUMPDEST DUP1 ISZERO PUSH2 0x2866 JUMPI DUP1 PUSH1 0x1F LT PUSH2 0x283B JUMPI PUSH2 0x100 DUP1 DUP4 SLOAD DIV MUL DUP4 MSTORE SWAP2 PUSH1 0x20 ADD SWAP2 PUSH2 0x2866 JUMP JUMPDEST DUP3 ADD SWAP2 SWAP1 PUSH1 0x0 MSTORE PUSH1 0x20 PUSH1 0x0 KECCAK256 SWAP1 JUMPDEST DUP2 SLOAD DUP2 MSTORE SWAP1 PUSH1 0x1 ADD SWAP1 PUSH1 0x20 ADD DUP1 DUP4 GT PUSH2 0x2849 JUMPI DUP3 SWAP1 SUB PUSH1 0x1F AND DUP3 ADD SWAP2 JUMPDEST POP POP POP POP POP SWAP1 POP DUP2 DUP6 DUP5 DUP2 MLOAD DUP2 LT PUSH2 0x2880 JUMPI PUSH2 0x2880 PUSH2 0x4E26 JUMP JUMPDEST PUSH1 0x20 MUL PUSH1 0x20 ADD ADD DUP2 DUP2 MSTORE POP POP DUP1 DUP5 DUP5 DUP2 MLOAD DUP2 LT PUSH2 0x289F JUMPI PUSH2 0x289F PUSH2 0x4E26 JUMP JUMPDEST PUSH1 0x20 MUL PUSH1 0x20 ADD ADD DUP2 SWAP1 MSTORE POP POP POP DUP1 DUP1 PUSH2 0x28B7 SWAP1 PUSH2 0x4E52 JUMP JUMPDEST SWAP2 POP POP PUSH2 0x27BB JUMP JUMPDEST POP SWAP1 SWAP6 SWAP1 SWAP5 POP SWAP3 POP POP POP JUMP JUMPDEST DUP2 PUSH2 0x28D5 CALLER PUSH2 0x1370 JUMP JUMPDEST PUSH2 0x28DE JUMPI PUSH1 0x0 DUP1 REVERT JUMPDEST PUSH2 0x1092 DUP4 DUP4 PUSH2 0x3947 JUMP JUMPDEST PUSH1 0x0 PUSH2 0x11E7 PUSH1 0x19 SLOAD PUSH2 0x11E1 PUSH1 0x17 SLOAD SWAP1 JUMP JUMPDEST PUSH1 0x60 PUSH2 0x2904 DUP3 PUSH2 0x2D4A JUMP JUMPDEST PUSH2 0x2968 JUMPI PUSH1 0x40 MLOAD PUSH3 0x461BCD PUSH1 0xE5 SHL DUP2 MSTORE PUSH1 0x20 PUSH1 0x4 DUP3 ADD MSTORE PUSH1 0x2F PUSH1 0x24 DUP3 ADD MSTORE PUSH32 0x4552433732314D657461646174613A2055524920717565727920666F72206E6F PUSH1 0x44 DUP3 ADD MSTORE PUSH15 0x3732BC34B9BA32B73A103A37B5B2B7 PUSH1 0x89 SHL PUSH1 0x64 DUP3 ADD MSTORE PUSH1 0x84 ADD PUSH2 0xF0A JUMP JUMPDEST PUSH1 0x0 DUP3 DUP2 MSTORE PUSH1 0x12 PUSH1 0x20 MSTORE PUSH1 0x40 DUP2 KECCAK256 DUP1 SLOAD PUSH2 0x2981 SWAP1 PUSH2 0x4DA1 JUMP JUMPDEST DUP1 PUSH1 0x1F ADD PUSH1 0x20 DUP1 SWAP2 DIV MUL PUSH1 0x20 ADD PUSH1 0x40 MLOAD SWAP1 DUP2 ADD PUSH1 0x40 MSTORE DUP1 SWAP3 SWAP2 SWAP1 DUP2 DUP2 MSTORE PUSH1 0x20 ADD DUP3 DUP1 SLOAD PUSH2 0x29AD SWAP1 PUSH2 0x4DA1 JUMP JUMPDEST DUP1 ISZERO PUSH2 0x29FA JUMPI DUP1 PUSH1 0x1F LT PUSH2 0x29CF JUMPI PUSH2 0x100 DUP1 DUP4 SLOAD DIV MUL DUP4 MSTORE SWAP2 PUSH1 0x20 ADD SWAP2 PUSH2 0x29FA JUMP JUMPDEST DUP3 ADD SWAP2 SWAP1 PUSH1 0x0 MSTORE PUSH1 0x20 PUSH1 0x0 KECCAK256 SWAP1 JUMPDEST DUP2 SLOAD DUP2 MSTORE SWAP1 PUSH1 0x1 ADD SWAP1 PUSH1 0x20 ADD DUP1 DUP4 GT PUSH2 0x29DD JUMPI DUP3 SWAP1 SUB PUSH1 0x1F AND DUP3 ADD SWAP2 JUMPDEST POP POP POP POP POP SWAP1 POP PUSH1 0x0 PUSH2 0x2A0B PUSH2 0x39F3 JUMP JUMPDEST SWAP1 POP DUP1 MLOAD PUSH1 0x0 EQ ISZERO PUSH2 0x2A1E JUMPI POP SWAP3 SWAP2 POP POP JUMP JUMPDEST DUP2 MLOAD ISZERO PUSH2 0x2A50 JUMPI DUP1 DUP3 PUSH1 0x40 MLOAD PUSH1 0x20 ADD PUSH2 0x2A38 SWAP3 SWAP2 SWAP1 PUSH2 0x50C0 JUMP JUMPDEST PUSH1 0x40 MLOAD PUSH1 0x20 DUP2 DUP4 SUB SUB DUP2 MSTORE SWAP1 PUSH1 0x40 MSTORE SWAP3 POP POP POP SWAP2 SWAP1 POP JUMP JUMPDEST DUP1 DUP5 PUSH1 0x40 MLOAD PUSH1 0x20 ADD PUSH2 0x2A38 SWAP3 SWAP2 SWAP1 PUSH2 0x50EF JUMP JUMPDEST DUP1 PUSH2 0x2A6D CALLER PUSH2 0x1370 JUMP JUMPDEST PUSH2 0x2A76 JUMPI PUSH1 0x0 DUP1 REVERT JUMPDEST PUSH2 0x13C6 DUP7 DUP7 DUP7 DUP7 DUP7 PUSH2 0x3A02 JUMP JUMPDEST PUSH1 0x0 DUP1 DUP1 PUSH2 0x2A90 DUP5 PUSH2 0x1838 JUMP JUMPDEST PUSH1 0x0 DUP2 DUP2 MSTORE PUSH1 0x14 PUSH1 0x20 MSTORE PUSH1 0x40 SWAP1 KECCAK256 DUP1 SLOAD SWAP2 SWAP3 POP SWAP1 PUSH2 0x2AAD SWAP1 PUSH2 0x4DA1 JUMP JUMPDEST ISZERO SWAP1 POP PUSH2 0x2AB9 JUMPI PUSH1 0x1 SWAP2 POP JUMPDEST POP SWAP3 SWAP2 POP POP JUMP JUMPDEST DUP1 PUSH2 0x2ACA CALLER PUSH2 0x1370 JUMP JUMPDEST PUSH2 0x2AD3 JUMPI PUSH1 0x0 DUP1 REVERT JUMPDEST PUSH2 0x13C6 DUP7 DUP7 DUP7 DUP7 DUP7 PUSH2 0x3A70 JUMP JUMPDEST PUSH1 0xB SLOAD PUSH1 0x1 PUSH1 0x1 PUSH1 0xA0 SHL SUB AND CALLER EQ PUSH2 0x2B0A JUMPI PUSH1 0x40 MLOAD PUSH3 0x461BCD PUSH1 0xE5 SHL DUP2 MSTORE PUSH1 0x4 ADD PUSH2 0xF0A SWAP1 PUSH2 0x4EB3 JUMP JUMPDEST PUSH1 0x10 DUP1 SLOAD PUSH1 0xFF NOT AND SWAP2 ISZERO ISZERO SWAP2 SWAP1 SWAP2 OR SWAP1 SSTORE JUMP JUMPDEST CALLER PUSH1 0x0 DUP2 DUP2 MSTORE PUSH1 0x13 PUSH1 0x20 MSTORE PUSH1 0x40 SWAP1 KECCAK256 SLOAD DUP1 PUSH2 0x2B4A JUMPI PUSH1 0x40 MLOAD PUSH3 0x461BCD PUSH1 0xE5 SHL DUP2 MSTORE PUSH1 0x4 ADD PUSH2 0xF0A SWAP1 PUSH2 0x5078 JUMP JUMPDEST POP PUSH1 0x1 PUSH1 0x1 PUSH1 0xA0 SHL SUB AND PUSH1 0x0 SWAP1 DUP2 MSTORE PUSH1 0x13 PUSH1 0x20 MSTORE PUSH1 0x40 DUP2 KECCAK256 SSTORE JUMP JUMPDEST PUSH1 0xB SLOAD PUSH1 0x1 PUSH1 0x1 PUSH1 0xA0 SHL SUB AND CALLER EQ PUSH2 0x2B8F JUMPI PUSH1 0x40 MLOAD PUSH3 0x461BCD PUSH1 0xE5 SHL DUP2 MSTORE PUSH1 0x4 ADD PUSH2 0xF0A SWAP1 PUSH2 0x4EB3 JUMP JUMPDEST PUSH1 0x1 PUSH1 0x1 PUSH1 0xA0 SHL SUB DUP2 AND PUSH2 0x2BF4 JUMPI PUSH1 0x40 MLOAD PUSH3 0x461BCD PUSH1 0xE5 SHL DUP2 MSTORE PUSH1 0x20 PUSH1 0x4 DUP3 ADD MSTORE PUSH1 0x26 PUSH1 0x24 DUP3 ADD MSTORE PUSH32 0x4F776E61626C653A206E6577206F776E657220697320746865207A65726F2061 PUSH1 0x44 DUP3 ADD MSTORE PUSH6 0x646472657373 PUSH1 0xD0 SHL PUSH1 0x64 DUP3 ADD MSTORE PUSH1 0x84 ADD PUSH2 0xF0A JUMP JUMPDEST PUSH2 0x157D DUP2 PUSH2 0x3668 JUMP JUMPDEST PUSH1 0x60 DUP2 PUSH1 0x1 PUSH1 0x1 PUSH1 0x40 SHL SUB DUP2 GT ISZERO PUSH2 0x2C17 JUMPI PUSH2 0x2C17 PUSH2 0x4953 JUMP JUMPDEST PUSH1 0x40 MLOAD SWAP1 DUP1 DUP3 MSTORE DUP1 PUSH1 0x20 MUL PUSH1 0x20 ADD DUP3 ADD PUSH1 0x40 MSTORE DUP1 ISZERO PUSH2 0x2C4A JUMPI DUP2 PUSH1 0x20 ADD JUMPDEST PUSH1 0x60 DUP2 MSTORE PUSH1 0x20 ADD SWAP1 PUSH1 0x1 SWAP1 SUB SWAP1 DUP2 PUSH2 0x2C35 JUMPI SWAP1 POP JUMPDEST POP SWAP1 POP PUSH1 0x0 JUMPDEST DUP3 DUP2 LT ISZERO PUSH2 0x2AB9 JUMPI PUSH2 0x2C79 DUP5 DUP5 DUP4 DUP2 DUP2 LT PUSH2 0x2C6D JUMPI PUSH2 0x2C6D PUSH2 0x4E26 JUMP JUMPDEST SWAP1 POP PUSH1 0x20 MUL ADD CALLDATALOAD PUSH2 0x2646 JUMP JUMPDEST DUP3 DUP3 DUP2 MLOAD DUP2 LT PUSH2 0x2C8B JUMPI PUSH2 0x2C8B PUSH2 0x4E26 JUMP JUMPDEST PUSH1 0x20 MUL PUSH1 0x20 ADD ADD DUP2 SWAP1 MSTORE POP DUP1 DUP1 PUSH2 0x2CA1 SWAP1 PUSH2 0x4E52 JUMP JUMPDEST SWAP2 POP POP PUSH2 0x2C50 JUMP JUMPDEST PUSH2 0x2CB3 DUP3 DUP3 PUSH2 0x36C4 JUMP JUMPDEST ISZERO PUSH2 0x2D00 JUMPI PUSH1 0x40 MLOAD PUSH3 0x461BCD PUSH1 0xE5 SHL DUP2 MSTORE PUSH1 0x20 PUSH1 0x4 DUP3 ADD MSTORE PUSH1 0x1F PUSH1 0x24 DUP3 ADD MSTORE PUSH32 0x526F6C65733A206163636F756E7420616C72656164792068617320726F6C6500 PUSH1 0x44 DUP3 ADD MSTORE PUSH1 0x64 ADD PUSH2 0xF0A JUMP JUMPDEST PUSH1 0x1 PUSH1 0x1 PUSH1 0xA0 SHL SUB AND PUSH1 0x0 SWAP1 DUP2 MSTORE PUSH1 0x20 SWAP2 SWAP1 SWAP2 MSTORE PUSH1 0x40 SWAP1 KECCAK256 DUP1 SLOAD PUSH1 0xFF NOT AND PUSH1 0x1 OR SWAP1 SSTORE JUMP JUMPDEST PUSH1 0x0 PUSH1 0x1 PUSH1 0x1 PUSH1 0xE0 SHL SUB NOT DUP3 AND PUSH4 0x780E9D63 PUSH1 0xE0 SHL EQ DUP1 PUSH2 0xE0A JUMPI POP PUSH2 0xE0A DUP3 PUSH2 0x3A86 JUMP JUMPDEST PUSH1 0x0 SWAP1 DUP2 MSTORE PUSH1 0x2 PUSH1 0x20 MSTORE PUSH1 0x40 SWAP1 KECCAK256 SLOAD PUSH1 0x1 PUSH1 0x1 PUSH1 0xA0 SHL SUB AND ISZERO ISZERO SWAP1 JUMP JUMPDEST PUSH1 0x0 DUP2 DUP2 MSTORE PUSH1 0x4 PUSH1 0x20 MSTORE PUSH1 0x40 SWAP1 KECCAK256 DUP1 SLOAD PUSH1 0x1 PUSH1 0x1 PUSH1 0xA0 SHL SUB NOT AND PUSH1 0x1 PUSH1 0x1 PUSH1 0xA0 SHL SUB DUP5 AND SWAP1 DUP2 OR SWAP1 SWAP2 SSTORE DUP2 SWAP1 PUSH2 0x2D9C DUP3 PUSH2 0x18B5 JUMP JUMPDEST PUSH1 0x1 PUSH1 0x1 PUSH1 0xA0 SHL SUB AND PUSH32 0x8C5BE1E5EBEC7D5BD14F71427D1E84F3DD0314C0F7B2291E5B200AC8C7C3B925 PUSH1 0x40 MLOAD PUSH1 0x40 MLOAD DUP1 SWAP2 SUB SWAP1 LOG4 POP POP JUMP JUMPDEST PUSH1 0x0 PUSH2 0x13FC DUP3 DUP5 PUSH2 0x5111 JUMP JUMPDEST PUSH1 0x60 PUSH2 0x13FC DUP4 PUSH1 0x40 MLOAD PUSH1 0x20 ADD PUSH2 0x2DF7 SWAP2 SWAP1 PUSH2 0x4F89 JUMP JUMPDEST PUSH1 0x40 MLOAD PUSH1 0x20 DUP2 DUP4 SUB SUB DUP2 MSTORE SWAP1 PUSH1 0x40 MSTORE DUP1 MLOAD SWAP1 PUSH1 0x20 ADD KECCAK256 PUSH1 0x0 SHR DUP4 PUSH2 0x3AD6 JUMP JUMPDEST PUSH1 0x0 PUSH2 0x2E21 DUP3 PUSH2 0x2D4A JUMP JUMPDEST PUSH2 0x2E82 JUMPI PUSH1 0x40 MLOAD PUSH3 0x461BCD PUSH1 0xE5 SHL DUP2 MSTORE PUSH1 0x20 PUSH1 0x4 DUP3 ADD MSTORE PUSH1 0x2C PUSH1 0x24 DUP3 ADD MSTORE PUSH32 0x4552433732313A206F70657261746F7220717565727920666F72206E6F6E6578 PUSH1 0x44 DUP3 ADD MSTORE PUSH12 0x34B9BA32B73A103A37B5B2B7 PUSH1 0xA1 SHL PUSH1 0x64 DUP3 ADD MSTORE PUSH1 0x84 ADD PUSH2 0xF0A JUMP JUMPDEST PUSH1 0x0 PUSH2 0x2E8D DUP4 PUSH2 0x18B5 JUMP JUMPDEST SWAP1 POP DUP1 PUSH1 0x1 PUSH1 0x1 PUSH1 0xA0 SHL SUB AND DUP5 PUSH1 0x1 PUSH1 0x1 PUSH1 0xA0 SHL SUB AND EQ DUP1 PUSH2 0x2EC8 JUMPI POP DUP4 PUSH1 0x1 PUSH1 0x1 PUSH1 0xA0 SHL SUB AND PUSH2 0x2EBD DUP5 PUSH2 0xEA2 JUMP JUMPDEST PUSH1 0x1 PUSH1 0x1 PUSH1 0xA0 SHL SUB AND EQ JUMPDEST DUP1 PUSH2 0x1325 JUMPI POP PUSH1 0x1 PUSH1 0x1 PUSH1 0xA0 SHL SUB DUP1 DUP3 AND PUSH1 0x0 SWAP1 DUP2 MSTORE PUSH1 0x5 PUSH1 0x20 SWAP1 DUP2 MSTORE PUSH1 0x40 DUP1 DUP4 KECCAK256 SWAP4 DUP9 AND DUP4 MSTORE SWAP3 SWAP1 MSTORE KECCAK256 SLOAD PUSH1 0xFF AND PUSH2 0x1325 JUMP JUMPDEST PUSH2 0x2F05 DUP2 PUSH2 0x3B95 JUMP JUMPDEST PUSH1 0x40 MLOAD PUSH1 0x20 ADD PUSH2 0x2F17 SWAP2 DUP2 MSTORE PUSH1 0x20 ADD SWAP1 JUMP JUMPDEST PUSH1 0x40 DUP1 MLOAD PUSH1 0x1F NOT DUP2 DUP5 SUB ADD DUP2 MSTORE DUP3 DUP3 MSTORE DUP1 MLOAD PUSH1 0x20 SWAP2 DUP3 ADD KECCAK256 PUSH1 0x0 DUP6 DUP2 MSTORE PUSH1 0xE SWAP1 SWAP3 MSTORE SWAP2 DUP2 KECCAK256 SWAP2 SWAP1 SWAP2 SSTORE DUP3 SWAP2 PUSH32 0x185C30856DADB58BF097C1F665A52ADA7029752DBCAD008EA3FEFC73BEE8C9FE SWAP2 SWAP1 LOG2 POP JUMP JUMPDEST DUP3 PUSH1 0x1 PUSH1 0x1 PUSH1 0xA0 SHL SUB AND PUSH2 0x2F7C DUP3 PUSH2 0x18B5 JUMP JUMPDEST PUSH1 0x1 PUSH1 0x1 PUSH1 0xA0 SHL SUB AND EQ PUSH2 0x2FE4 JUMPI PUSH1 0x40 MLOAD PUSH3 0x461BCD PUSH1 0xE5 SHL DUP2 MSTORE PUSH1 0x20 PUSH1 0x4 DUP3 ADD MSTORE PUSH1 0x29 PUSH1 0x24 DUP3 ADD MSTORE PUSH32 0x4552433732313A207472616E73666572206F6620746F6B656E20746861742069 PUSH1 0x44 DUP3 ADD MSTORE PUSH9 0x39903737BA1037BBB7 PUSH1 0xB9 SHL PUSH1 0x64 DUP3 ADD MSTORE PUSH1 0x84 ADD PUSH2 0xF0A JUMP JUMPDEST PUSH1 0x1 PUSH1 0x1 PUSH1 0xA0 SHL SUB DUP3 AND PUSH2 0x3046 JUMPI PUSH1 0x40 MLOAD PUSH3 0x461BCD PUSH1 0xE5 SHL DUP2 MSTORE PUSH1 0x20 PUSH1 0x4 DUP3 ADD MSTORE PUSH1 0x24 DUP1 DUP3 ADD MSTORE PUSH32 0x4552433732313A207472616E7366657220746F20746865207A65726F20616464 PUSH1 0x44 DUP3 ADD MSTORE PUSH4 0x72657373 PUSH1 0xE0 SHL PUSH1 0x64 DUP3 ADD MSTORE PUSH1 0x84 ADD PUSH2 0xF0A JUMP JUMPDEST PUSH2 0x3051 DUP4 DUP4 DUP4 PUSH2 0x3BC1 JUMP JUMPDEST PUSH2 0x305C PUSH1 0x0 DUP3 PUSH2 0x2D67 JUMP JUMPDEST PUSH1 0x1 PUSH1 0x1 PUSH1 0xA0 SHL SUB DUP4 AND PUSH1 0x0 SWAP1 DUP2 MSTORE PUSH1 0x3 PUSH1 0x20 MSTORE PUSH1 0x40 DUP2 KECCAK256 DUP1 SLOAD PUSH1 0x1 SWAP3 SWAP1 PUSH2 0x3085 SWAP1 DUP5 SWAP1 PUSH2 0x5130 JUMP JUMPDEST SWAP1 SWAP2 SSTORE POP POP PUSH1 0x1 PUSH1 0x1 PUSH1 0xA0 SHL SUB DUP3 AND PUSH1 0x0 SWAP1 DUP2 MSTORE PUSH1 0x3 PUSH1 0x20 MSTORE PUSH1 0x40 DUP2 KECCAK256 DUP1 SLOAD PUSH1 0x1 SWAP3 SWAP1 PUSH2 0x30B3 SWAP1 DUP5 SWAP1 PUSH2 0x5147 JUMP JUMPDEST SWAP1 SWAP2 SSTORE POP POP PUSH1 0x0 DUP2 DUP2 MSTORE PUSH1 0x2 PUSH1 0x20 MSTORE PUSH1 0x40 DUP1 DUP3 KECCAK256 DUP1 SLOAD PUSH1 0x1 PUSH1 0x1 PUSH1 0xA0 SHL SUB NOT AND PUSH1 0x1 PUSH1 0x1 PUSH1 0xA0 SHL SUB DUP7 DUP2 AND SWAP2 DUP3 OR SWAP1 SWAP3 SSTORE SWAP2 MLOAD DUP5 SWAP4 SWAP2 DUP8 AND SWAP2 PUSH32 0xDDF252AD1BE2C89B69C2B068FC378DAA952BA7F163C4A11628F55A4DF523B3EF SWAP2 LOG4 POP POP POP JUMP JUMPDEST PUSH1 0x0 JUMPDEST DUP5 DUP2 LT ISZERO PUSH2 0x13C6 JUMPI PUSH2 0x3165 DUP7 DUP7 DUP4 DUP2 DUP2 LT PUSH2 0x3134 JUMPI PUSH2 0x3134 PUSH2 0x4E26 JUMP JUMPDEST SWAP1 POP PUSH1 0x20 MUL ADD CALLDATALOAD DUP6 DUP6 DUP5 DUP2 DUP2 LT PUSH2 0x314D JUMPI PUSH2 0x314D PUSH2 0x4E26 JUMP JUMPDEST SWAP1 POP PUSH1 0x20 MUL DUP2 ADD SWAP1 PUSH2 0x315F SWAP2 SWAP1 PUSH2 0x4E6D JUMP JUMPDEST DUP6 PUSH2 0x3314 JUMP JUMPDEST DUP1 PUSH2 0x316F DUP2 PUSH2 0x4E52 JUMP JUMPDEST SWAP2 POP POP PUSH2 0x3117 JUMP JUMPDEST PUSH1 0x0 PUSH2 0x13FC DUP4 DUP4 PUSH2 0x3BCC JUMP JUMPDEST PUSH2 0x157D PUSH1 0xC DUP3 PUSH2 0x2CA9 JUMP JUMPDEST PUSH1 0x0 PUSH2 0x3199 DUP3 PUSH2 0x18B5 JUMP JUMPDEST SWAP1 POP PUSH2 0x31A7 DUP2 PUSH1 0x0 DUP5 PUSH2 0x3BC1 JUMP JUMPDEST PUSH2 0x31B2 PUSH1 0x0 DUP4 PUSH2 0x2D67 JUMP JUMPDEST PUSH1 0x1 PUSH1 0x1 PUSH1 0xA0 SHL SUB DUP2 AND PUSH1 0x0 SWAP1 DUP2 MSTORE PUSH1 0x3 PUSH1 0x20 MSTORE PUSH1 0x40 DUP2 KECCAK256 DUP1 SLOAD PUSH1 0x1 SWAP3 SWAP1 PUSH2 0x31DB SWAP1 DUP5 SWAP1 PUSH2 0x5130 JUMP JUMPDEST SWAP1 SWAP2 SSTORE POP POP PUSH1 0x0 DUP3 DUP2 MSTORE PUSH1 0x2 PUSH1 0x20 MSTORE PUSH1 0x40 DUP1 DUP3 KECCAK256 DUP1 SLOAD PUSH1 0x1 PUSH1 0x1 PUSH1 0xA0 SHL SUB NOT AND SWAP1 SSTORE MLOAD DUP4 SWAP2 SWAP1 PUSH1 0x1 PUSH1 0x1 PUSH1 0xA0 SHL SUB DUP5 AND SWAP1 PUSH32 0xDDF252AD1BE2C89B69C2B068FC378DAA952BA7F163C4A11628F55A4DF523B3EF SWAP1 DUP4 SWAP1 LOG4 POP POP JUMP JUMPDEST PUSH1 0x0 DUP6 DUP6 PUSH1 0x40 MLOAD PUSH1 0x20 ADD PUSH2 0x324A SWAP3 SWAP2 SWAP1 PUSH2 0x515F JUMP JUMPDEST PUSH1 0x40 DUP1 MLOAD PUSH1 0x1F NOT DUP2 DUP5 SUB ADD DUP2 MSTORE DUP3 DUP3 MSTORE DUP1 MLOAD PUSH1 0x20 SWAP2 DUP3 ADD KECCAK256 PUSH1 0x1F DUP10 ADD DUP3 SWAP1 DIV DUP3 MUL DUP5 ADD DUP3 ADD SWAP1 SWAP3 MSTORE DUP8 DUP4 MSTORE SWAP1 SWAP3 POP PUSH2 0x329E SWAP2 DUP4 SWAP2 DUP10 SWAP1 DUP10 SWAP1 DUP2 SWAP1 DUP5 ADD DUP4 DUP3 DUP1 DUP3 DUP5 CALLDATACOPY PUSH1 0x0 SWAP3 ADD SWAP2 SWAP1 SWAP2 MSTORE POP PUSH2 0x350E SWAP3 POP POP POP JUMP JUMPDEST PUSH2 0x13C6 DUP2 DUP8 DUP8 DUP1 DUP1 PUSH1 0x1F ADD PUSH1 0x20 DUP1 SWAP2 DIV MUL PUSH1 0x20 ADD PUSH1 0x40 MLOAD SWAP1 DUP2 ADD PUSH1 0x40 MSTORE DUP1 SWAP4 SWAP3 SWAP2 SWAP1 DUP2 DUP2 MSTORE PUSH1 0x20 ADD DUP4 DUP4 DUP1 DUP3 DUP5 CALLDATACOPY PUSH1 0x0 SWAP3 ADD SWAP2 SWAP1 SWAP2 MSTORE POP POP PUSH1 0x40 DUP1 MLOAD PUSH1 0x20 PUSH1 0x1F DUP12 ADD DUP2 SWAP1 DIV DUP2 MUL DUP3 ADD DUP2 ADD SWAP1 SWAP3 MSTORE DUP10 DUP2 MSTORE SWAP3 POP DUP10 SWAP2 POP DUP9 SWAP1 DUP2 SWAP1 DUP5 ADD DUP4 DUP3 DUP1 DUP3 DUP5 CALLDATACOPY PUSH1 0x0 SWAP3 ADD SWAP2 SWAP1 SWAP2 MSTORE POP DUP9 SWAP3 POP PUSH2 0x3BF6 SWAP2 POP POP JUMP JUMPDEST PUSH2 0x331D DUP5 PUSH2 0x3D31 JUMP JUMPDEST PUSH2 0x3369 JUMPI PUSH1 0x40 MLOAD PUSH3 0x461BCD PUSH1 0xE5 SHL DUP2 MSTORE PUSH1 0x20 PUSH1 0x4 DUP3 ADD MSTORE PUSH1 0x1C PUSH1 0x24 DUP3 ADD MSTORE PUSH32 0x5265636F726453746F726167653A204B45595F4E4F545F464F554E4400000000 PUSH1 0x44 DUP3 ADD MSTORE PUSH1 0x64 ADD PUSH2 0xF0A JUMP JUMPDEST PUSH2 0x11CA DUP5 PUSH2 0x3376 DUP7 PUSH2 0x2646 JUMP JUMPDEST DUP6 DUP6 DUP1 DUP1 PUSH1 0x1F ADD PUSH1 0x20 DUP1 SWAP2 DIV MUL PUSH1 0x20 ADD PUSH1 0x40 MLOAD SWAP1 DUP2 ADD PUSH1 0x40 MSTORE DUP1 SWAP4 SWAP3 SWAP2 SWAP1 DUP2 DUP2 MSTORE PUSH1 0x20 ADD DUP4 DUP4 DUP1 DUP3 DUP5 CALLDATACOPY PUSH1 0x0 SWAP3 ADD SWAP2 SWAP1 SWAP2 MSTORE POP DUP8 SWAP3 POP PUSH2 0x3BF6 SWAP2 POP POP JUMP JUMPDEST PUSH1 0x60 PUSH1 0x0 DUP3 SWAP1 POP PUSH1 0x0 DUP2 MLOAD PUSH1 0x1 PUSH1 0x1 PUSH1 0x40 SHL SUB DUP2 GT ISZERO PUSH2 0x33D6 JUMPI PUSH2 0x33D6 PUSH2 0x4953 JUMP JUMPDEST PUSH1 0x40 MLOAD SWAP1 DUP1 DUP3 MSTORE DUP1 PUSH1 0x1F ADD PUSH1 0x1F NOT AND PUSH1 0x20 ADD DUP3 ADD PUSH1 0x40 MSTORE DUP1 ISZERO PUSH2 0x3400 JUMPI PUSH1 0x20 DUP3 ADD DUP2 DUP1 CALLDATASIZE DUP4 CALLDATACOPY ADD SWAP1 POP JUMPDEST POP SWAP1 POP PUSH1 0x0 JUMPDEST DUP3 MLOAD DUP2 LT ISZERO PUSH2 0x12DA JUMPI PUSH1 0x41 DUP4 DUP3 DUP2 MLOAD DUP2 LT PUSH2 0x3423 JUMPI PUSH2 0x3423 PUSH2 0x4E26 JUMP JUMPDEST ADD PUSH1 0x20 ADD MLOAD PUSH1 0xF8 SHR LT DUP1 ISZERO SWAP1 PUSH2 0x3453 JUMPI POP PUSH1 0x5A DUP4 DUP3 DUP2 MLOAD DUP2 LT PUSH2 0x3448 JUMPI PUSH2 0x3448 PUSH2 0x4E26 JUMP JUMPDEST ADD PUSH1 0x20 ADD MLOAD PUSH1 0xF8 SHR GT ISZERO JUMPDEST ISZERO PUSH2 0x34B5 JUMPI DUP3 DUP2 DUP2 MLOAD DUP2 LT PUSH2 0x346A JUMPI PUSH2 0x346A PUSH2 0x4E26 JUMP JUMPDEST PUSH1 0x20 ADD ADD MLOAD PUSH1 0xF8 SHR PUSH1 0xF8 SHL PUSH1 0xF8 SHR PUSH1 0x20 PUSH2 0x3484 SWAP2 SWAP1 PUSH2 0x516F JUMP JUMPDEST PUSH1 0xF8 SHL DUP3 DUP3 DUP2 MLOAD DUP2 LT PUSH2 0x3499 JUMPI PUSH2 0x3499 PUSH2 0x4E26 JUMP JUMPDEST PUSH1 0x20 ADD ADD SWAP1 PUSH1 0x1 PUSH1 0x1 PUSH1 0xF8 SHL SUB NOT AND SWAP1 DUP2 PUSH1 0x0 BYTE SWAP1 MSTORE8 POP PUSH2 0x34FC JUMP JUMPDEST DUP3 DUP2 DUP2 MLOAD DUP2 LT PUSH2 0x34C7 JUMPI PUSH2 0x34C7 PUSH2 0x4E26 JUMP JUMPDEST PUSH1 0x20 ADD ADD MLOAD PUSH1 0xF8 SHR PUSH1 0xF8 SHL DUP3 DUP3 DUP2 MLOAD DUP2 LT PUSH2 0x34E4 JUMPI PUSH2 0x34E4 PUSH2 0x4E26 JUMP JUMPDEST PUSH1 0x20 ADD ADD SWAP1 PUSH1 0x1 PUSH1 0x1 PUSH1 0xF8 SHL SUB NOT AND SWAP1 DUP2 PUSH1 0x0 BYTE SWAP1 MSTORE8 POP JUMPDEST DUP1 PUSH2 0x3506 DUP2 PUSH2 0x4E52 JUMP JUMPDEST SWAP2 POP POP PUSH2 0x3406 JUMP JUMPDEST PUSH2 0x3517 DUP3 PUSH2 0x3D31 JUMP JUMPDEST PUSH2 0x14B5 JUMPI PUSH1 0x0 DUP3 DUP2 MSTORE PUSH1 0xA PUSH1 0x20 SWAP1 DUP2 MSTORE PUSH1 0x40 SWAP1 SWAP2 KECCAK256 DUP3 MLOAD PUSH2 0x1092 SWAP3 DUP5 ADD SWAP1 PUSH2 0x4425 JUMP JUMPDEST DUP1 MLOAD PUSH1 0x0 SWAP1 PUSH1 0x1 DUP4 DUP2 ADD SWAP2 DUP5 ADD ADD DUP3 DUP1 JUMPDEST DUP3 DUP5 LT ISZERO PUSH2 0x3590 JUMPI DUP4 MLOAD PUSH1 0xFF AND PUSH1 0x2E DUP2 EQ ISZERO PUSH2 0x356F JUMPI PUSH2 0x356C PUSH1 0x1 DUP5 PUSH2 0x5147 JUMP JUMPDEST SWAP3 POP JUMPDEST PUSH2 0x357A PUSH1 0x1 DUP7 PUSH2 0x5147 JUMP JUMPDEST SWAP5 POP POP DUP1 DUP1 PUSH2 0x3588 SWAP1 PUSH2 0x4E52 JUMP JUMPDEST SWAP2 POP POP PUSH2 0x354B JUMP JUMPDEST POP SWAP5 SWAP4 POP POP POP POP JUMP JUMPDEST PUSH2 0x14B5 DUP3 DUP3 PUSH1 0x40 MLOAD DUP1 PUSH1 0x20 ADD PUSH1 0x40 MSTORE DUP1 PUSH1 0x0 DUP2 MSTORE POP PUSH2 0x3D57 JUMP JUMPDEST PUSH2 0x35BC DUP3 PUSH2 0x2D4A JUMP JUMPDEST PUSH2 0x361D JUMPI PUSH1 0x40 MLOAD PUSH3 0x461BCD PUSH1 0xE5 SHL DUP2 MSTORE PUSH1 0x20 PUSH1 0x4 DUP3 ADD MSTORE PUSH1 0x2C PUSH1 0x24 DUP3 ADD MSTORE PUSH32 0x4552433732314D657461646174613A2055524920736574206F66206E6F6E6578 PUSH1 0x44 DUP3 ADD MSTORE PUSH12 0x34B9BA32B73A103A37B5B2B7 PUSH1 0xA1 SHL PUSH1 0x64 DUP3 ADD MSTORE PUSH1 0x84 ADD PUSH2 0xF0A JUMP JUMPDEST PUSH1 0x0 DUP3 DUP2 MSTORE PUSH1 0x12 PUSH1 0x20 SWAP1 DUP2 MSTORE PUSH1 0x40 SWAP1 SWAP2 KECCAK256 DUP3 MLOAD PUSH2 0x1092 SWAP3 DUP5 ADD SWAP1 PUSH2 0x4425 JUMP JUMPDEST PUSH1 0x60 DUP1 PUSH2 0x3648 DUP5 PUSH2 0x2646 JUMP JUMPDEST SWAP2 POP PUSH2 0x3654 DUP5 DUP5 PUSH2 0x3AD6 JUMP JUMPDEST SWAP1 POP SWAP3 POP SWAP3 SWAP1 POP JUMP JUMPDEST PUSH2 0x157D PUSH1 0xC DUP3 PUSH2 0x3D8A JUMP JUMPDEST PUSH1 0xB DUP1 SLOAD PUSH1 0x1 PUSH1 0x1 PUSH1 0xA0 SHL SUB DUP4 DUP2 AND PUSH1 0x1 PUSH1 0x1 PUSH1 0xA0 SHL SUB NOT DUP4 AND DUP2 OR SWAP1 SWAP4 SSTORE PUSH1 0x40 MLOAD SWAP2 AND SWAP2 SWAP1 DUP3 SWAP1 PUSH32 0x8BE0079C531659141344CD1FD0A4F28419497F9722A3DAAFE3B4186F6B6457E0 SWAP1 PUSH1 0x0 SWAP1 LOG3 POP POP JUMP JUMPDEST PUSH1 0x0 PUSH2 0xE0A DUP3 SLOAD SWAP1 JUMP JUMPDEST PUSH1 0x0 PUSH1 0x1 PUSH1 0x1 PUSH1 0xA0 SHL SUB DUP3 AND PUSH2 0x3727 JUMPI PUSH1 0x40 MLOAD PUSH3 0x461BCD PUSH1 0xE5 SHL DUP2 MSTORE PUSH1 0x20 PUSH1 0x4 DUP3 ADD MSTORE PUSH1 0x22 PUSH1 0x24 DUP3 ADD MSTORE PUSH32 0x526F6C65733A206163636F756E7420697320746865207A65726F206164647265 PUSH1 0x44 DUP3 ADD MSTORE PUSH2 0x7373 PUSH1 0xF0 SHL PUSH1 0x64 DUP3 ADD MSTORE PUSH1 0x84 ADD PUSH2 0xF0A JUMP JUMPDEST POP PUSH1 0x1 PUSH1 0x1 PUSH1 0xA0 SHL SUB AND PUSH1 0x0 SWAP1 DUP2 MSTORE PUSH1 0x20 SWAP2 SWAP1 SWAP2 MSTORE PUSH1 0x40 SWAP1 KECCAK256 SLOAD PUSH1 0xFF AND SWAP1 JUMP JUMPDEST PUSH1 0x1 PUSH1 0x1 PUSH1 0xA0 SHL SUB DUP5 AND PUSH2 0x375A JUMPI PUSH1 0x0 DUP1 REVERT JUMPDEST DUP2 MLOAD PUSH2 0x3765 JUMPI PUSH1 0x0 DUP1 REVERT JUMPDEST PUSH2 0x376E DUP3 PUSH2 0x353A JUMP JUMPDEST ISZERO PUSH2 0x3778 JUMPI PUSH1 0x0 DUP1 REVERT JUMPDEST PUSH2 0x3781 DUP4 PUSH2 0x2D4A JUMP JUMPDEST PUSH2 0x378A JUMPI PUSH1 0x0 DUP1 REVERT JUMPDEST PUSH1 0x0 PUSH2 0x3795 DUP4 PUSH2 0x33B4 JUMP JUMPDEST SWAP1 POP PUSH1 0x0 DUP2 PUSH1 0x12 PUSH1 0x0 DUP8 DUP2 MSTORE PUSH1 0x20 ADD SWAP1 DUP2 MSTORE PUSH1 0x20 ADD PUSH1 0x0 KECCAK256 PUSH1 0x40 MLOAD PUSH1 0x20 ADD PUSH2 0x37BE SWAP3 SWAP2 SWAP1 PUSH2 0x5194 JUMP JUMPDEST PUSH1 0x40 MLOAD PUSH1 0x20 DUP2 DUP4 SUB SUB DUP2 MSTORE SWAP1 PUSH1 0x40 MSTORE SWAP1 POP PUSH1 0x0 PUSH2 0x37DA DUP3 PUSH2 0x1838 JUMP JUMPDEST SWAP1 POP PUSH1 0x0 PUSH2 0x3882 PUSH1 0x12 PUSH1 0x0 DUP10 DUP2 MSTORE PUSH1 0x20 ADD SWAP1 DUP2 MSTORE PUSH1 0x20 ADD PUSH1 0x0 KECCAK256 DUP1 SLOAD PUSH2 0x37FF SWAP1 PUSH2 0x4DA1 JUMP JUMPDEST DUP1 PUSH1 0x1F ADD PUSH1 0x20 DUP1 SWAP2 DIV MUL PUSH1 0x20 ADD PUSH1 0x40 MLOAD SWAP1 DUP2 ADD PUSH1 0x40 MSTORE DUP1 SWAP3 SWAP2 SWAP1 DUP2 DUP2 MSTORE PUSH1 0x20 ADD DUP3 DUP1 SLOAD PUSH2 0x382B SWAP1 PUSH2 0x4DA1 JUMP JUMPDEST DUP1 ISZERO PUSH2 0x3878 JUMPI DUP1 PUSH1 0x1F LT PUSH2 0x384D JUMPI PUSH2 0x100 DUP1 DUP4 SLOAD DIV MUL DUP4 MSTORE SWAP2 PUSH1 0x20 ADD SWAP2 PUSH2 0x3878 JUMP JUMPDEST DUP3 ADD SWAP2 SWAP1 PUSH1 0x0 MSTORE PUSH1 0x20 PUSH1 0x0 KECCAK256 SWAP1 JUMPDEST DUP2 SLOAD DUP2 MSTORE SWAP1 PUSH1 0x1 ADD SWAP1 PUSH1 0x20 ADD DUP1 DUP4 GT PUSH2 0x385B JUMPI DUP3 SWAP1 SUB PUSH1 0x1F AND DUP3 ADD SWAP2 JUMPDEST POP POP POP POP POP PUSH2 0x353A JUMP JUMPDEST SWAP1 POP DUP1 PUSH1 0x1 EQ ISZERO PUSH2 0x38A7 JUMPI PUSH1 0x0 DUP8 DUP2 MSTORE PUSH1 0x11 PUSH1 0x20 MSTORE PUSH1 0x40 SWAP1 KECCAK256 PUSH2 0x38A5 SWAP1 DUP4 PUSH2 0x3E0C JUMP JUMPDEST POP JUMPDEST DUP5 MLOAD ISZERO PUSH2 0x38BE JUMPI PUSH2 0x38B9 DUP9 DUP4 DUP8 PUSH2 0x3D57 JUMP JUMPDEST PUSH2 0x38C8 JUMP JUMPDEST PUSH2 0x38C8 DUP9 DUP4 PUSH2 0x3599 JUMP JUMPDEST PUSH2 0x38D2 DUP3 DUP5 PUSH2 0x35B3 JUMP JUMPDEST DUP2 PUSH32 0xC5BEEF08F693B11C316C0C8394A377A0033C9CF701B8CD8AFD79CECEF60C3952 DUP5 PUSH1 0x40 MLOAD PUSH2 0x3902 SWAP2 SWAP1 PUSH2 0x4578 JUMP JUMPDEST PUSH1 0x40 MLOAD DUP1 SWAP2 SUB SWAP1 LOG2 POP POP POP POP POP POP POP POP JUMP JUMPDEST PUSH2 0x391F DUP5 DUP5 DUP5 PUSH2 0x2F69 JUMP JUMPDEST PUSH2 0x392B DUP5 DUP5 DUP5 DUP5 PUSH2 0x3E18 JUMP JUMPDEST PUSH2 0x11CA JUMPI PUSH1 0x40 MLOAD PUSH3 0x461BCD PUSH1 0xE5 SHL DUP2 MSTORE PUSH1 0x4 ADD PUSH2 0xF0A SWAP1 PUSH2 0x5254 JUMP JUMPDEST PUSH1 0x0 PUSH2 0x3952 DUP3 PUSH2 0x33B4 JUMP JUMPDEST SWAP1 POP PUSH1 0x0 DUP2 PUSH1 0x12 PUSH1 0x0 DUP7 DUP2 MSTORE PUSH1 0x20 ADD SWAP1 DUP2 MSTORE PUSH1 0x20 ADD PUSH1 0x0 KECCAK256 PUSH1 0x40 MLOAD PUSH1 0x20 ADD PUSH2 0x397B SWAP3 SWAP2 SWAP1 PUSH2 0x5194 JUMP JUMPDEST PUSH1 0x40 MLOAD PUSH1 0x20 DUP2 DUP4 SUB SUB DUP2 MSTORE SWAP1 PUSH1 0x40 MSTORE SWAP1 POP PUSH1 0x0 PUSH2 0x3997 DUP3 PUSH2 0x1838 JUMP JUMPDEST PUSH1 0x0 DUP7 DUP2 MSTORE PUSH1 0x11 PUSH1 0x20 MSTORE PUSH1 0x40 SWAP1 KECCAK256 SWAP1 SWAP2 POP PUSH2 0x39B2 SWAP1 DUP3 PUSH2 0x3F16 JUMP JUMPDEST POP PUSH1 0x0 DUP2 DUP2 MSTORE PUSH1 0x12 PUSH1 0x20 MSTORE PUSH1 0x40 SWAP1 KECCAK256 DUP1 SLOAD PUSH2 0x39CC SWAP1 PUSH2 0x4DA1 JUMP JUMPDEST ISZERO SWAP1 POP PUSH2 0x39EA JUMPI PUSH1 0x0 DUP2 DUP2 MSTORE PUSH1 0x12 PUSH1 0x20 MSTORE PUSH1 0x40 DUP2 KECCAK256 PUSH2 0x39EA SWAP2 PUSH2 0x43EB JUMP JUMPDEST PUSH2 0x170A DUP2 PUSH2 0x318E JUMP JUMPDEST PUSH1 0x60 PUSH1 0x15 DUP1 SLOAD PUSH2 0xE1F SWAP1 PUSH2 0x4DA1 JUMP JUMPDEST PUSH1 0x0 JUMPDEST DUP5 DUP2 LT ISZERO PUSH2 0x13C6 JUMPI PUSH2 0x3A5E DUP7 DUP7 DUP4 DUP2 DUP2 LT PUSH2 0x3A22 JUMPI PUSH2 0x3A22 PUSH2 0x4E26 JUMP JUMPDEST SWAP1 POP PUSH1 0x20 MUL DUP2 ADD SWAP1 PUSH2 0x3A34 SWAP2 SWAP1 PUSH2 0x4E6D JUMP JUMPDEST DUP7 DUP7 DUP6 DUP2 DUP2 LT PUSH2 0x3A46 JUMPI PUSH2 0x3A46 PUSH2 0x4E26 JUMP JUMPDEST SWAP1 POP PUSH1 0x20 MUL DUP2 ADD SWAP1 PUSH2 0x3A58 SWAP2 SWAP1 PUSH2 0x4E6D JUMP JUMPDEST DUP7 PUSH2 0x3235 JUMP JUMPDEST DUP1 PUSH2 0x3A68 DUP2 PUSH2 0x4E52 JUMP JUMPDEST SWAP2 POP POP PUSH2 0x3A05 JUMP JUMPDEST PUSH2 0x3A79 DUP2 PUSH2 0x2EFC JUMP JUMPDEST PUSH2 0x170A DUP6 DUP6 DUP6 DUP6 DUP6 PUSH2 0x3A02 JUMP JUMPDEST PUSH1 0x0 PUSH1 0x1 PUSH1 0x1 PUSH1 0xE0 SHL SUB NOT DUP3 AND PUSH4 0x80AC58CD PUSH1 0xE0 SHL EQ DUP1 PUSH2 0x3AB7 JUMPI POP PUSH1 0x1 PUSH1 0x1 PUSH1 0xE0 SHL SUB NOT DUP3 AND PUSH4 0x5B5E139F PUSH1 0xE0 SHL EQ JUMPDEST DUP1 PUSH2 0xE0A JUMPI POP PUSH4 0x1FFC9A7 PUSH1 0xE0 SHL PUSH1 0x1 PUSH1 0x1 PUSH1 0xE0 SHL SUB NOT DUP4 AND EQ PUSH2 0xE0A JUMP JUMPDEST PUSH1 0x60 PUSH1 0xD PUSH1 0x0 PUSH2 0x3AE5 DUP5 PUSH2 0x3B95 JUMP JUMPDEST DUP2 MSTORE PUSH1 0x20 ADD SWAP1 DUP2 MSTORE PUSH1 0x20 ADD PUSH1 0x0 KECCAK256 PUSH1 0x0 DUP5 DUP2 MSTORE PUSH1 0x20 ADD SWAP1 DUP2 MSTORE PUSH1 0x20 ADD PUSH1 0x0 KECCAK256 DUP1 SLOAD PUSH2 0x3B0F SWAP1 PUSH2 0x4DA1 JUMP JUMPDEST DUP1 PUSH1 0x1F ADD PUSH1 0x20 DUP1 SWAP2 DIV MUL PUSH1 0x20 ADD PUSH1 0x40 MLOAD SWAP1 DUP2 ADD PUSH1 0x40 MSTORE DUP1 SWAP3 SWAP2 SWAP1 DUP2 DUP2 MSTORE PUSH1 0x20 ADD DUP3 DUP1 SLOAD PUSH2 0x3B3B SWAP1 PUSH2 0x4DA1 JUMP JUMPDEST DUP1 ISZERO PUSH2 0x3B88 JUMPI DUP1 PUSH1 0x1F LT PUSH2 0x3B5D JUMPI PUSH2 0x100 DUP1 DUP4 SLOAD DIV MUL DUP4 MSTORE SWAP2 PUSH1 0x20 ADD SWAP2 PUSH2 0x3B88 JUMP JUMPDEST DUP3 ADD SWAP2 SWAP1 PUSH1 0x0 MSTORE PUSH1 0x20 PUSH1 0x0 KECCAK256 SWAP1 JUMPDEST DUP2 SLOAD DUP2 MSTORE SWAP1 PUSH1 0x1 ADD SWAP1 PUSH1 0x20 ADD DUP1 DUP4 GT PUSH2 0x3B6B JUMPI DUP3 SWAP1 SUB PUSH1 0x1F AND DUP3 ADD SWAP2 JUMPDEST POP POP POP POP POP SWAP1 POP SWAP3 SWAP2 POP POP JUMP JUMPDEST PUSH1 0x0 DUP2 DUP2 MSTORE PUSH1 0xE PUSH1 0x20 MSTORE PUSH1 0x40 DUP2 KECCAK256 SLOAD ISZERO PUSH2 0x3BBD JUMPI PUSH1 0x0 DUP3 DUP2 MSTORE PUSH1 0xE PUSH1 0x20 MSTORE PUSH1 0x40 SWAP1 KECCAK256 SLOAD PUSH2 0xE0A JUMP JUMPDEST POP SWAP1 JUMP JUMPDEST PUSH2 0x1092 DUP4 DUP4 DUP4 PUSH2 0x3F22 JUMP JUMPDEST PUSH1 0x0 DUP3 PUSH1 0x0 ADD DUP3 DUP2 SLOAD DUP2 LT PUSH2 0x3BE3 JUMPI PUSH2 0x3BE3 PUSH2 0x4E26 JUMP JUMPDEST SWAP1 PUSH1 0x0 MSTORE PUSH1 0x20 PUSH1 0x0 KECCAK256 ADD SLOAD SWAP1 POP SWAP3 SWAP2 POP POP JUMP JUMPDEST PUSH1 0xD PUSH1 0x0 PUSH2 0x3C03 DUP4 PUSH2 0x3B95 JUMP JUMPDEST DUP2 MSTORE PUSH1 0x20 ADD SWAP1 DUP2 MSTORE PUSH1 0x20 ADD PUSH1 0x0 KECCAK256 PUSH1 0x0 DUP6 DUP2 MSTORE PUSH1 0x20 ADD SWAP1 DUP2 MSTORE PUSH1 0x20 ADD PUSH1 0x0 KECCAK256 DUP1 SLOAD PUSH2 0x3C2D SWAP1 PUSH2 0x4DA1 JUMP JUMPDEST ISZERO ISZERO SWAP1 POP PUSH2 0x3C84 JUMPI DUP3 PUSH1 0x40 MLOAD PUSH2 0x3C43 SWAP2 SWAP1 PUSH2 0x4F89 JUMP JUMPDEST PUSH1 0x40 MLOAD DUP1 SWAP2 SUB SWAP1 KECCAK256 DUP2 PUSH32 0x7AE4F661958FBECC2F77BE6B0EB280D2A6F604B29E1E7221C82B9DA0C4AF7F86 DUP6 PUSH1 0x40 MLOAD PUSH2 0x3C7B SWAP2 SWAP1 PUSH2 0x4578 JUMP JUMPDEST PUSH1 0x40 MLOAD DUP1 SWAP2 SUB SWAP1 LOG3 JUMPDEST DUP2 PUSH1 0xD PUSH1 0x0 PUSH2 0x3C92 DUP5 PUSH2 0x3B95 JUMP JUMPDEST DUP2 MSTORE PUSH1 0x20 ADD SWAP1 DUP2 MSTORE PUSH1 0x20 ADD PUSH1 0x0 KECCAK256 PUSH1 0x0 DUP7 DUP2 MSTORE PUSH1 0x20 ADD SWAP1 DUP2 MSTORE PUSH1 0x20 ADD PUSH1 0x0 KECCAK256 SWAP1 DUP1 MLOAD SWAP1 PUSH1 0x20 ADD SWAP1 PUSH2 0x3CC4 SWAP3 SWAP2 SWAP1 PUSH2 0x4425 JUMP JUMPDEST POP DUP2 PUSH1 0x40 MLOAD PUSH2 0x3CD3 SWAP2 SWAP1 PUSH2 0x4F89 JUMP JUMPDEST PUSH1 0x40 MLOAD DUP1 SWAP2 SUB SWAP1 KECCAK256 DUP4 PUSH1 0x40 MLOAD PUSH2 0x3CE9 SWAP2 SWAP1 PUSH2 0x4F89 JUMP JUMPDEST PUSH1 0x40 MLOAD DUP1 SWAP2 SUB SWAP1 KECCAK256 DUP3 PUSH32 0x851FFE8E74D5015261DBA0A1F9E1B0E5D42C5AF5D2AD1908FEE897C7D80A0D92 DUP7 DUP7 PUSH1 0x40 MLOAD PUSH2 0x3D23 SWAP3 SWAP2 SWAP1 PUSH2 0x4A95 JUMP JUMPDEST PUSH1 0x40 MLOAD DUP1 SWAP2 SUB SWAP1 LOG4 POP POP POP POP JUMP JUMPDEST PUSH1 0x0 DUP2 DUP2 MSTORE PUSH1 0xA PUSH1 0x20 MSTORE PUSH1 0x40 DUP2 KECCAK256 DUP1 SLOAD DUP3 SWAP2 SWAP1 PUSH2 0x3D4D SWAP1 PUSH2 0x4DA1 JUMP JUMPDEST SWAP1 POP GT SWAP1 POP SWAP2 SWAP1 POP JUMP JUMPDEST PUSH2 0x3D61 DUP4 DUP4 PUSH2 0x3FDA JUMP JUMPDEST PUSH2 0x3D6E PUSH1 0x0 DUP5 DUP5 DUP5 PUSH2 0x3E18 JUMP JUMPDEST PUSH2 0x1092 JUMPI PUSH1 0x40 MLOAD PUSH3 0x461BCD PUSH1 0xE5 SHL DUP2 MSTORE PUSH1 0x4 ADD PUSH2 0xF0A SWAP1 PUSH2 0x5254 JUMP JUMPDEST PUSH2 0x3D94 DUP3 DUP3 PUSH2 0x36C4 JUMP JUMPDEST PUSH2 0x3DEA JUMPI PUSH1 0x40 MLOAD PUSH3 0x461BCD PUSH1 0xE5 SHL DUP2 MSTORE PUSH1 0x20 PUSH1 0x4 DUP3 ADD MSTORE PUSH1 0x21 PUSH1 0x24 DUP3 ADD MSTORE PUSH32 0x526F6C65733A206163636F756E7420646F6573206E6F74206861766520726F6C PUSH1 0x44 DUP3 ADD MSTORE PUSH1 0x65 PUSH1 0xF8 SHL PUSH1 0x64 DUP3 ADD MSTORE PUSH1 0x84 ADD PUSH2 0xF0A JUMP JUMPDEST PUSH1 0x1 PUSH1 0x1 PUSH1 0xA0 SHL SUB AND PUSH1 0x0 SWAP1 DUP2 MSTORE PUSH1 0x20 SWAP2 SWAP1 SWAP2 MSTORE PUSH1 0x40 SWAP1 KECCAK256 DUP1 SLOAD PUSH1 0xFF NOT AND SWAP1 SSTORE JUMP JUMPDEST PUSH1 0x0 PUSH2 0x13FC DUP4 DUP4 PUSH2 0x4119 JUMP JUMPDEST PUSH1 0x0 PUSH1 0x1 PUSH1 0x1 PUSH1 0xA0 SHL SUB DUP5 AND EXTCODESIZE ISZERO PUSH2 0x3F0B JUMPI PUSH1 0x40 MLOAD PUSH4 0xA85BD01 PUSH1 0xE1 SHL DUP2 MSTORE PUSH1 0x1 PUSH1 0x1 PUSH1 0xA0 SHL SUB DUP6 AND SWAP1 PUSH4 0x150B7A02 SWAP1 PUSH2 0x3E5C SWAP1 CALLER SWAP1 DUP10 SWAP1 DUP9 SWAP1 DUP9 SWAP1 PUSH1 0x4 ADD PUSH2 0x52A6 JUMP JUMPDEST PUSH1 0x20 PUSH1 0x40 MLOAD DUP1 DUP4 SUB DUP2 PUSH1 0x0 DUP8 GAS CALL SWAP3 POP POP POP DUP1 ISZERO PUSH2 0x3E97 JUMPI POP PUSH1 0x40 DUP1 MLOAD PUSH1 0x1F RETURNDATASIZE SWAP1 DUP2 ADD PUSH1 0x1F NOT AND DUP3 ADD SWAP1 SWAP3 MSTORE PUSH2 0x3E94 SWAP2 DUP2 ADD SWAP1 PUSH2 0x52D9 JUMP JUMPDEST PUSH1 0x1 JUMPDEST PUSH2 0x3EF1 JUMPI RETURNDATASIZE DUP1 DUP1 ISZERO PUSH2 0x3EC5 JUMPI PUSH1 0x40 MLOAD SWAP2 POP PUSH1 0x1F NOT PUSH1 0x3F RETURNDATASIZE ADD AND DUP3 ADD PUSH1 0x40 MSTORE RETURNDATASIZE DUP3 MSTORE RETURNDATASIZE PUSH1 0x0 PUSH1 0x20 DUP5 ADD RETURNDATACOPY PUSH2 0x3ECA JUMP JUMPDEST PUSH1 0x60 SWAP2 POP JUMPDEST POP DUP1 MLOAD PUSH2 0x3EE9 JUMPI PUSH1 0x40 MLOAD PUSH3 0x461BCD PUSH1 0xE5 SHL DUP2 MSTORE PUSH1 0x4 ADD PUSH2 0xF0A SWAP1 PUSH2 0x5254 JUMP JUMPDEST DUP1 MLOAD DUP2 PUSH1 0x20 ADD REVERT JUMPDEST PUSH1 0x1 PUSH1 0x1 PUSH1 0xE0 SHL SUB NOT AND PUSH4 0xA85BD01 PUSH1 0xE1 SHL EQ SWAP1 POP PUSH2 0x1325 JUMP JUMPDEST POP PUSH1 0x1 SWAP5 SWAP4 POP POP POP POP JUMP JUMPDEST PUSH1 0x0 PUSH2 0x13FC DUP4 DUP4 PUSH2 0x4168 JUMP JUMPDEST PUSH1 0x1 PUSH1 0x1 PUSH1 0xA0 SHL SUB DUP4 AND PUSH2 0x3F7D JUMPI PUSH2 0x3F78 DUP2 PUSH1 0x8 DUP1 SLOAD PUSH1 0x0 DUP4 DUP2 MSTORE PUSH1 0x9 PUSH1 0x20 MSTORE PUSH1 0x40 DUP2 KECCAK256 DUP3 SWAP1 SSTORE PUSH1 0x1 DUP3 ADD DUP4 SSTORE SWAP2 SWAP1 SWAP2 MSTORE PUSH32 0xF3F7A9FE364FAAB93B216DA50A3214154F22A0A2B415B23A84C8169E8B636EE3 ADD SSTORE JUMP JUMPDEST PUSH2 0x3FA0 JUMP JUMPDEST DUP2 PUSH1 0x1 PUSH1 0x1 PUSH1 0xA0 SHL SUB AND DUP4 PUSH1 0x1 PUSH1 0x1 PUSH1 0xA0 SHL SUB AND EQ PUSH2 0x3FA0 JUMPI PUSH2 0x3FA0 DUP4 DUP3 PUSH2 0x425B JUMP JUMPDEST PUSH1 0x1 PUSH1 0x1 PUSH1 0xA0 SHL SUB DUP3 AND PUSH2 0x3FB7 JUMPI PUSH2 0x1092 DUP2 PUSH2 0x42F8 JUMP JUMPDEST DUP3 PUSH1 0x1 PUSH1 0x1 PUSH1 0xA0 SHL SUB AND DUP3 PUSH1 0x1 PUSH1 0x1 PUSH1 0xA0 SHL SUB AND EQ PUSH2 0x1092 JUMPI PUSH2 0x1092 DUP3 DUP3 PUSH2 0x43A7 JUMP JUMPDEST PUSH1 0x1 PUSH1 0x1 PUSH1 0xA0 SHL SUB DUP3 AND PUSH2 0x4030 JUMPI PUSH1 0x40 MLOAD PUSH3 0x461BCD PUSH1 0xE5 SHL DUP2 MSTORE PUSH1 0x20 PUSH1 0x4 DUP3 ADD DUP2 SWAP1 MSTORE PUSH1 0x24 DUP3 ADD MSTORE PUSH32 0x4552433732313A206D696E7420746F20746865207A65726F2061646472657373 PUSH1 0x44 DUP3 ADD MSTORE PUSH1 0x64 ADD PUSH2 0xF0A JUMP JUMPDEST PUSH2 0x4039 DUP2 PUSH2 0x2D4A JUMP JUMPDEST ISZERO PUSH2 0x4086 JUMPI PUSH1 0x40 MLOAD PUSH3 0x461BCD PUSH1 0xE5 SHL DUP2 MSTORE PUSH1 0x20 PUSH1 0x4 DUP3 ADD MSTORE PUSH1 0x1C PUSH1 0x24 DUP3 ADD MSTORE PUSH32 0x4552433732313A20746F6B656E20616C7265616479206D696E74656400000000 PUSH1 0x44 DUP3 ADD MSTORE PUSH1 0x64 ADD PUSH2 0xF0A JUMP JUMPDEST PUSH2 0x4092 PUSH1 0x0 DUP4 DUP4 PUSH2 0x3BC1 JUMP JUMPDEST PUSH1 0x1 PUSH1 0x1 PUSH1 0xA0 SHL SUB DUP3 AND PUSH1 0x0 SWAP1 DUP2 MSTORE PUSH1 0x3 PUSH1 0x20 MSTORE PUSH1 0x40 DUP2 KECCAK256 DUP1 SLOAD PUSH1 0x1 SWAP3 SWAP1 PUSH2 0x40BB SWAP1 DUP5 SWAP1 PUSH2 0x5147 JUMP JUMPDEST SWAP1 SWAP2 SSTORE POP POP PUSH1 0x0 DUP2 DUP2 MSTORE PUSH1 0x2 PUSH1 0x20 MSTORE PUSH1 0x40 DUP1 DUP3 KECCAK256 DUP1 SLOAD PUSH1 0x1 PUSH1 0x1 PUSH1 0xA0 SHL SUB NOT AND PUSH1 0x1 PUSH1 0x1 PUSH1 0xA0 SHL SUB DUP7 AND SWAP1 DUP2 OR SWAP1 SWAP2 SSTORE SWAP1 MLOAD DUP4 SWAP3 SWAP1 PUSH32 0xDDF252AD1BE2C89B69C2B068FC378DAA952BA7F163C4A11628F55A4DF523B3EF SWAP1 DUP3 SWAP1 LOG4 POP POP JUMP JUMPDEST PUSH1 0x0 DUP2 DUP2 MSTORE PUSH1 0x1 DUP4 ADD PUSH1 0x20 MSTORE PUSH1 0x40 DUP2 KECCAK256 SLOAD PUSH2 0x4160 JUMPI POP DUP2 SLOAD PUSH1 0x1 DUP2 DUP2 ADD DUP5 SSTORE PUSH1 0x0 DUP5 DUP2 MSTORE PUSH1 0x20 DUP1 DUP3 KECCAK256 SWAP1 SWAP4 ADD DUP5 SWAP1 SSTORE DUP5 SLOAD DUP5 DUP3 MSTORE DUP3 DUP7 ADD SWAP1 SWAP4 MSTORE PUSH1 0x40 SWAP1 KECCAK256 SWAP2 SWAP1 SWAP2 SSTORE PUSH2 0xE0A JUMP JUMPDEST POP PUSH1 0x0 PUSH2 0xE0A JUMP JUMPDEST PUSH1 0x0 DUP2 DUP2 MSTORE PUSH1 0x1 DUP4 ADD PUSH1 0x20 MSTORE PUSH1 0x40 DUP2 KECCAK256 SLOAD DUP1 ISZERO PUSH2 0x4251 JUMPI PUSH1 0x0 PUSH2 0x418C PUSH1 0x1 DUP4 PUSH2 0x5130 JUMP JUMPDEST DUP6 SLOAD SWAP1 SWAP2 POP PUSH1 0x0 SWAP1 PUSH2 0x41A0 SWAP1 PUSH1 0x1 SWAP1 PUSH2 0x5130 JUMP JUMPDEST SWAP1 POP DUP2 DUP2 EQ PUSH2 0x4205 JUMPI PUSH1 0x0 DUP7 PUSH1 0x0 ADD DUP3 DUP2 SLOAD DUP2 LT PUSH2 0x41C0 JUMPI PUSH2 0x41C0 PUSH2 0x4E26 JUMP JUMPDEST SWAP1 PUSH1 0x0 MSTORE PUSH1 0x20 PUSH1 0x0 KECCAK256 ADD SLOAD SWAP1 POP DUP1 DUP8 PUSH1 0x0 ADD DUP5 DUP2 SLOAD DUP2 LT PUSH2 0x41E3 JUMPI PUSH2 0x41E3 PUSH2 0x4E26 JUMP JUMPDEST PUSH1 0x0 SWAP2 DUP3 MSTORE PUSH1 0x20 DUP1 DUP4 KECCAK256 SWAP1 SWAP2 ADD SWAP3 SWAP1 SWAP3 SSTORE SWAP2 DUP3 MSTORE PUSH1 0x1 DUP9 ADD SWAP1 MSTORE PUSH1 0x40 SWAP1 KECCAK256 DUP4 SWAP1 SSTORE JUMPDEST DUP6 SLOAD DUP7 SWAP1 DUP1 PUSH2 0x4216 JUMPI PUSH2 0x4216 PUSH2 0x52F6 JUMP JUMPDEST PUSH1 0x1 SWAP1 SUB DUP2 DUP2 SWAP1 PUSH1 0x0 MSTORE PUSH1 0x20 PUSH1 0x0 KECCAK256 ADD PUSH1 0x0 SWAP1 SSTORE SWAP1 SSTORE DUP6 PUSH1 0x1 ADD PUSH1 0x0 DUP7 DUP2 MSTORE PUSH1 0x20 ADD SWAP1 DUP2 MSTORE PUSH1 0x20 ADD PUSH1 0x0 KECCAK256 PUSH1 0x0 SWAP1 SSTORE PUSH1 0x1 SWAP4 POP POP POP POP PUSH2 0xE0A JUMP JUMPDEST PUSH1 0x0 SWAP2 POP POP PUSH2 0xE0A JUMP JUMPDEST PUSH1 0x0 PUSH1 0x1 PUSH2 0x4268 DUP5 PUSH2 0x1E58 JUMP JUMPDEST PUSH2 0x4272 SWAP2 SWAP1 PUSH2 0x5130 JUMP JUMPDEST PUSH1 0x0 DUP4 DUP2 MSTORE PUSH1 0x7 PUSH1 0x20 MSTORE PUSH1 0x40 SWAP1 KECCAK256 SLOAD SWAP1 SWAP2 POP DUP1 DUP3 EQ PUSH2 0x42C5 JUMPI PUSH1 0x1 PUSH1 0x1 PUSH1 0xA0 SHL SUB DUP5 AND PUSH1 0x0 SWAP1 DUP2 MSTORE PUSH1 0x6 PUSH1 0x20 SWAP1 DUP2 MSTORE PUSH1 0x40 DUP1 DUP4 KECCAK256 DUP6 DUP5 MSTORE DUP3 MSTORE DUP1 DUP4 KECCAK256 SLOAD DUP5 DUP5 MSTORE DUP2 DUP5 KECCAK256 DUP2 SWAP1 SSTORE DUP4 MSTORE PUSH1 0x7 SWAP1 SWAP2 MSTORE SWAP1 KECCAK256 DUP2 SWAP1 SSTORE JUMPDEST POP PUSH1 0x0 SWAP2 DUP3 MSTORE PUSH1 0x7 PUSH1 0x20 SWAP1 DUP2 MSTORE PUSH1 0x40 DUP1 DUP5 KECCAK256 DUP5 SWAP1 SSTORE PUSH1 0x1 PUSH1 0x1 PUSH1 0xA0 SHL SUB SWAP1 SWAP5 AND DUP4 MSTORE PUSH1 0x6 DUP2 MSTORE DUP4 DUP4 KECCAK256 SWAP2 DUP4 MSTORE MSTORE SWAP1 DUP2 KECCAK256 SSTORE JUMP JUMPDEST PUSH1 0x8 SLOAD PUSH1 0x0 SWAP1 PUSH2 0x430A SWAP1 PUSH1 0x1 SWAP1 PUSH2 0x5130 JUMP JUMPDEST PUSH1 0x0 DUP4 DUP2 MSTORE PUSH1 0x9 PUSH1 0x20 MSTORE PUSH1 0x40 DUP2 KECCAK256 SLOAD PUSH1 0x8 DUP1 SLOAD SWAP4 SWAP5 POP SWAP1 SWAP3 DUP5 SWAP1 DUP2 LT PUSH2 0x4332 JUMPI PUSH2 0x4332 PUSH2 0x4E26 JUMP JUMPDEST SWAP1 PUSH1 0x0 MSTORE PUSH1 0x20 PUSH1 0x0 KECCAK256 ADD SLOAD SWAP1 POP DUP1 PUSH1 0x8 DUP4 DUP2 SLOAD DUP2 LT PUSH2 0x4353 JUMPI PUSH2 0x4353 PUSH2 0x4E26 JUMP JUMPDEST PUSH1 0x0 SWAP2 DUP3 MSTORE PUSH1 0x20 DUP1 DUP4 KECCAK256 SWAP1 SWAP2 ADD SWAP3 SWAP1 SWAP3 SSTORE DUP3 DUP2 MSTORE PUSH1 0x9 SWAP1 SWAP2 MSTORE PUSH1 0x40 DUP1 DUP3 KECCAK256 DUP5 SWAP1 SSTORE DUP6 DUP3 MSTORE DUP2 KECCAK256 SSTORE PUSH1 0x8 DUP1 SLOAD DUP1 PUSH2 0x438B JUMPI PUSH2 0x438B PUSH2 0x52F6 JUMP JUMPDEST PUSH1 0x1 SWAP1 SUB DUP2 DUP2 SWAP1 PUSH1 0x0 MSTORE PUSH1 0x20 PUSH1 0x0 KECCAK256 ADD PUSH1 0x0 SWAP1 SSTORE SWAP1 SSTORE POP POP POP POP JUMP JUMPDEST PUSH1 0x0 PUSH2 0x43B2 DUP4 PUSH2 0x1E58 JUMP JUMPDEST PUSH1 0x1 PUSH1 0x1 PUSH1 0xA0 SHL SUB SWAP1 SWAP4 AND PUSH1 0x0 SWAP1 DUP2 MSTORE PUSH1 0x6 PUSH1 0x20 SWAP1 DUP2 MSTORE PUSH1 0x40 DUP1 DUP4 KECCAK256 DUP7 DUP5 MSTORE DUP3 MSTORE DUP1 DUP4 KECCAK256 DUP6 SWAP1 SSTORE SWAP4 DUP3 MSTORE PUSH1 0x7 SWAP1 MSTORE SWAP2 SWAP1 SWAP2 KECCAK256 SWAP2 SWAP1 SWAP2 SSTORE POP JUMP JUMPDEST POP DUP1 SLOAD PUSH2 0x43F7 SWAP1 PUSH2 0x4DA1 JUMP JUMPDEST PUSH1 0x0 DUP3 SSTORE DUP1 PUSH1 0x1F LT PUSH2 0x4407 JUMPI POP POP JUMP JUMPDEST PUSH1 0x1F ADD PUSH1 0x20 SWAP1 DIV SWAP1 PUSH1 0x0 MSTORE PUSH1 0x20 PUSH1 0x0 KECCAK256 SWAP1 DUP2 ADD SWAP1 PUSH2 0x157D SWAP2 SWAP1 PUSH2 0x44A1 JUMP JUMPDEST DUP3 DUP1 SLOAD PUSH2 0x4431 SWAP1 PUSH2 0x4DA1 JUMP JUMPDEST SWAP1 PUSH1 0x0 MSTORE PUSH1 0x20 PUSH1 0x0 KECCAK256 SWAP1 PUSH1 0x1F ADD PUSH1 0x20 SWAP1 DIV DUP2 ADD SWAP3 DUP3 PUSH2 0x4453 JUMPI PUSH1 0x0 DUP6 SSTORE PUSH2 0x4499 JUMP JUMPDEST DUP3 PUSH1 0x1F LT PUSH2 0x446C JUMPI DUP1 MLOAD PUSH1 0xFF NOT AND DUP4 DUP1 ADD OR DUP6 SSTORE PUSH2 0x4499 JUMP JUMPDEST DUP3 DUP1 ADD PUSH1 0x1 ADD DUP6 SSTORE DUP3 ISZERO PUSH2 0x4499 JUMPI SWAP2 DUP3 ADD JUMPDEST DUP3 DUP2 GT ISZERO PUSH2 0x4499 JUMPI DUP3 MLOAD DUP3 SSTORE SWAP2 PUSH1 0x20 ADD SWAP2 SWAP1 PUSH1 0x1 ADD SWAP1 PUSH2 0x447E JUMP JUMPDEST POP PUSH2 0x3BBD SWAP3 SWAP2 POP JUMPDEST JUMPDEST DUP1 DUP3 GT ISZERO PUSH2 0x3BBD JUMPI PUSH1 0x0 DUP2 SSTORE PUSH1 0x1 ADD PUSH2 0x44A2 JUMP JUMPDEST PUSH1 0x1 PUSH1 0x1 PUSH1 0xE0 SHL SUB NOT DUP2 AND DUP2 EQ PUSH2 0x157D JUMPI PUSH1 0x0 DUP1 REVERT JUMPDEST PUSH1 0x0 PUSH1 0x20 DUP3 DUP5 SUB SLT ISZERO PUSH2 0x44DE JUMPI PUSH1 0x0 DUP1 REVERT JUMPDEST DUP2 CALLDATALOAD PUSH2 0x13FC DUP2 PUSH2 0x44B6 JUMP JUMPDEST DUP1 CALLDATALOAD PUSH1 0x1 PUSH1 0x1 PUSH1 0xA0 SHL SUB DUP2 AND DUP2 EQ PUSH2 0x4500 JUMPI PUSH1 0x0 DUP1 REVERT JUMPDEST SWAP2 SWAP1 POP JUMP JUMPDEST PUSH1 0x0 PUSH1 0x20 DUP3 DUP5 SUB SLT ISZERO PUSH2 0x4517 JUMPI PUSH1 0x0 DUP1 REVERT JUMPDEST PUSH2 0x13FC DUP3 PUSH2 0x44E9 JUMP JUMPDEST PUSH1 0x0 JUMPDEST DUP4 DUP2 LT ISZERO PUSH2 0x453B JUMPI DUP2 DUP2 ADD MLOAD DUP4 DUP3 ADD MSTORE PUSH1 0x20 ADD PUSH2 0x4523 JUMP JUMPDEST DUP4 DUP2 GT ISZERO PUSH2 0x11CA JUMPI POP POP PUSH1 0x0 SWAP2 ADD MSTORE JUMP JUMPDEST PUSH1 0x0 DUP2 MLOAD DUP1 DUP5 MSTORE PUSH2 0x4564 DUP2 PUSH1 0x20 DUP7 ADD PUSH1 0x20 DUP7 ADD PUSH2 0x4520 JUMP JUMPDEST PUSH1 0x1F ADD PUSH1 0x1F NOT AND SWAP3 SWAP1 SWAP3 ADD PUSH1 0x20 ADD SWAP3 SWAP2 POP POP JUMP JUMPDEST PUSH1 0x20 DUP2 MSTORE PUSH1 0x0 PUSH2 0x13FC PUSH1 0x20 DUP4 ADD DUP5 PUSH2 0x454C JUMP JUMPDEST PUSH1 0x0 PUSH1 0x20 DUP3 DUP5 SUB SLT ISZERO PUSH2 0x459D JUMPI PUSH1 0x0 DUP1 REVERT JUMPDEST POP CALLDATALOAD SWAP2 SWAP1 POP JUMP JUMPDEST DUP1 CALLDATALOAD PUSH1 0xFF DUP2 AND DUP2 EQ PUSH2 0x4500 JUMPI PUSH1 0x0 DUP1 REVERT JUMPDEST PUSH1 0x0 DUP1 PUSH1 0x40 DUP4 DUP6 SUB SLT ISZERO PUSH2 0x45C8 JUMPI PUSH1 0x0 DUP1 REVERT JUMPDEST PUSH2 0x45D1 DUP4 PUSH2 0x44E9 JUMP JUMPDEST SWAP2 POP PUSH2 0x3654 PUSH1 0x20 DUP5 ADD PUSH2 0x45A4 JUMP JUMPDEST PUSH1 0x0 DUP1 PUSH1 0x40 DUP4 DUP6 SUB SLT ISZERO PUSH2 0x45F2 JUMPI PUSH1 0x0 DUP1 REVERT JUMPDEST PUSH2 0x45FB DUP4 PUSH2 0x44E9 JUMP JUMPDEST SWAP5 PUSH1 0x20 SWAP4 SWAP1 SWAP4 ADD CALLDATALOAD SWAP4 POP POP POP JUMP JUMPDEST PUSH1 0x0 DUP1 DUP4 PUSH1 0x1F DUP5 ADD SLT PUSH2 0x461B JUMPI PUSH1 0x0 DUP1 REVERT JUMPDEST POP DUP2 CALLDATALOAD PUSH1 0x1 PUSH1 0x1 PUSH1 0x40 SHL SUB DUP2 GT ISZERO PUSH2 0x4632 JUMPI PUSH1 0x0 DUP1 REVERT JUMPDEST PUSH1 0x20 DUP4 ADD SWAP2 POP DUP4 PUSH1 0x20 DUP3 PUSH1 0x5 SHL DUP6 ADD ADD GT ISZERO PUSH2 0x464D JUMPI PUSH1 0x0 DUP1 REVERT JUMPDEST SWAP3 POP SWAP3 SWAP1 POP JUMP JUMPDEST PUSH1 0x0 DUP1 PUSH1 0x0 PUSH1 0x40 DUP5 DUP7 SUB SLT ISZERO PUSH2 0x4669 JUMPI PUSH1 0x0 DUP1 REVERT JUMPDEST DUP4 CALLDATALOAD PUSH1 0x1 PUSH1 0x1 PUSH1 0x40 SHL SUB DUP2 GT ISZERO PUSH2 0x467F JUMPI PUSH1 0x0 DUP1 REVERT JUMPDEST PUSH2 0x468B DUP7 DUP3 DUP8 ADD PUSH2 0x4609 JUMP JUMPDEST SWAP1 SWAP5 POP SWAP3 POP PUSH2 0x469E SWAP1 POP PUSH1 0x20 DUP6 ADD PUSH2 0x45A4 JUMP JUMPDEST SWAP1 POP SWAP3 POP SWAP3 POP SWAP3 JUMP JUMPDEST PUSH1 0x0 DUP1 PUSH1 0x0 PUSH1 0x40 DUP5 DUP7 SUB SLT ISZERO PUSH2 0x46BC JUMPI PUSH1 0x0 DUP1 REVERT JUMPDEST DUP4 CALLDATALOAD PUSH1 0x1 PUSH1 0x1 PUSH1 0x40 SHL SUB DUP2 GT ISZERO PUSH2 0x46D2 JUMPI PUSH1 0x0 DUP1 REVERT JUMPDEST PUSH2 0x46DE DUP7 DUP3 DUP8 ADD PUSH2 0x4609 JUMP JUMPDEST SWAP1 SWAP8 SWAP1 SWAP7 POP PUSH1 0x20 SWAP6 SWAP1 SWAP6 ADD CALLDATALOAD SWAP5 SWAP4 POP POP POP POP JUMP JUMPDEST PUSH1 0x0 DUP2 MLOAD DUP1 DUP5 MSTORE PUSH1 0x20 DUP1 DUP6 ADD SWAP5 POP DUP5 DUP3 PUSH1 0x5 SHL DUP7 ADD DUP3 DUP7 ADD PUSH1 0x0 JUMPDEST DUP6 DUP2 LT ISZERO PUSH2 0x4737 JUMPI DUP4 DUP4 SUB DUP10 MSTORE PUSH2 0x4725 DUP4 DUP4 MLOAD PUSH2 0x454C JUMP JUMPDEST SWAP9 DUP6 ADD SWAP9 SWAP3 POP SWAP1 DUP5 ADD SWAP1 PUSH1 0x1 ADD PUSH2 0x470D JUMP JUMPDEST POP SWAP1 SWAP8 SWAP7 POP POP POP POP POP POP POP JUMP JUMPDEST PUSH1 0x20 DUP2 MSTORE PUSH1 0x0 PUSH2 0x13FC PUSH1 0x20 DUP4 ADD DUP5 PUSH2 0x46F2 JUMP JUMPDEST PUSH1 0x0 DUP1 DUP4 PUSH1 0x1F DUP5 ADD SLT PUSH2 0x4769 JUMPI PUSH1 0x0 DUP1 REVERT JUMPDEST POP DUP2 CALLDATALOAD PUSH1 0x1 PUSH1 0x1 PUSH1 0x40 SHL SUB DUP2 GT ISZERO PUSH2 0x4780 JUMPI PUSH1 0x0 DUP1 REVERT JUMPDEST PUSH1 0x20 DUP4 ADD SWAP2 POP DUP4 PUSH1 0x20 DUP3 DUP6 ADD ADD GT ISZERO PUSH2 0x464D JUMPI PUSH1 0x0 DUP1 REVERT JUMPDEST PUSH1 0x0 DUP1 PUSH1 0x0 PUSH1 0x40 DUP5 DUP7 SUB SLT ISZERO PUSH2 0x47AD JUMPI PUSH1 0x0 DUP1 REVERT JUMPDEST DUP4 CALLDATALOAD PUSH1 0x1 PUSH1 0x1 PUSH1 0x40 SHL SUB DUP2 GT ISZERO PUSH2 0x47C3 JUMPI PUSH1 0x0 DUP1 REVERT JUMPDEST PUSH2 0x46DE DUP7 DUP3 DUP8 ADD PUSH2 0x4757 JUMP JUMPDEST PUSH1 0x0 DUP1 PUSH1 0x0 PUSH1 0x60 DUP5 DUP7 SUB SLT ISZERO PUSH2 0x47E4 JUMPI PUSH1 0x0 DUP1 REVERT JUMPDEST PUSH2 0x47ED DUP5 PUSH2 0x44E9 JUMP JUMPDEST SWAP3 POP PUSH2 0x47FB PUSH1 0x20 DUP6 ADD PUSH2 0x44E9 JUMP JUMPDEST SWAP2 POP PUSH1 0x40 DUP5 ADD CALLDATALOAD SWAP1 POP SWAP3 POP SWAP3 POP SWAP3 JUMP JUMPDEST PUSH1 0x0 DUP1 PUSH1 0x0 DUP1 PUSH1 0x0 PUSH1 0x60 DUP7 DUP9 SUB SLT ISZERO PUSH2 0x4823 JUMPI PUSH1 0x0 DUP1 REVERT JUMPDEST DUP6 CALLDATALOAD PUSH1 0x1 PUSH1 0x1 PUSH1 0x40 SHL SUB DUP1 DUP3 GT ISZERO PUSH2 0x483A JUMPI PUSH1 0x0 DUP1 REVERT JUMPDEST PUSH2 0x4846 DUP10 DUP4 DUP11 ADD PUSH2 0x4609 JUMP JUMPDEST SWAP1 SWAP8 POP SWAP6 POP PUSH1 0x20 DUP9 ADD CALLDATALOAD SWAP2 POP DUP1 DUP3 GT ISZERO PUSH2 0x485F JUMPI PUSH1 0x0 DUP1 REVERT JUMPDEST POP PUSH2 0x486C DUP9 DUP3 DUP10 ADD PUSH2 0x4609 JUMP JUMPDEST SWAP7 SWAP10 SWAP6 SWAP9 POP SWAP7 PUSH1 0x40 ADD CALLDATALOAD SWAP5 SWAP4 POP POP POP POP JUMP JUMPDEST PUSH1 0x0 DUP1 PUSH1 0x40 DUP4 DUP6 SUB SLT ISZERO PUSH2 0x4891 JUMPI PUSH1 0x0 DUP1 REVERT JUMPDEST POP POP DUP1 CALLDATALOAD SWAP3 PUSH1 0x20 SWAP1 SWAP2 ADD CALLDATALOAD SWAP2 POP JUMP JUMPDEST PUSH1 0x0 DUP1 PUSH1 0x0 DUP1 PUSH1 0x0 PUSH1 0x60 DUP7 DUP9 SUB SLT ISZERO PUSH2 0x48B8 JUMPI PUSH1 0x0 DUP1 REVERT JUMPDEST DUP6 CALLDATALOAD PUSH1 0x1 PUSH1 0x1 PUSH1 0x40 SHL SUB DUP1 DUP3 GT ISZERO PUSH2 0x48CF JUMPI PUSH1 0x0 DUP1 REVERT JUMPDEST PUSH2 0x48DB DUP10 DUP4 DUP11 ADD PUSH2 0x4757 JUMP JUMPDEST SWAP1 SWAP8 POP SWAP6 POP PUSH1 0x20 DUP9 ADD CALLDATALOAD SWAP2 POP DUP1 DUP3 GT ISZERO PUSH2 0x48F4 JUMPI PUSH1 0x0 DUP1 REVERT JUMPDEST POP PUSH2 0x486C DUP9 DUP3 DUP10 ADD PUSH2 0x4757 JUMP JUMPDEST PUSH1 0x0 DUP1 PUSH1 0x0 DUP1 PUSH1 0x60 DUP6 DUP8 SUB SLT ISZERO PUSH2 0x4917 JUMPI PUSH1 0x0 DUP1 REVERT JUMPDEST DUP5 CALLDATALOAD SWAP4 POP PUSH1 0x20 DUP6 ADD CALLDATALOAD PUSH1 0x1 PUSH1 0x1 PUSH1 0x40 SHL SUB DUP2 GT ISZERO PUSH2 0x4934 JUMPI PUSH1 0x0 DUP1 REVERT JUMPDEST PUSH2 0x4940 DUP8 DUP3 DUP9 ADD PUSH2 0x4757 JUMP JUMPDEST SWAP6 SWAP9 SWAP1 SWAP8 POP SWAP5 SWAP6 PUSH1 0x40 ADD CALLDATALOAD SWAP5 SWAP4 POP POP POP POP JUMP JUMPDEST PUSH4 0x4E487B71 PUSH1 0xE0 SHL PUSH1 0x0 MSTORE PUSH1 0x41 PUSH1 0x4 MSTORE PUSH1 0x24 PUSH1 0x0 REVERT JUMPDEST PUSH1 0x0 PUSH1 0x1 PUSH1 0x1 PUSH1 0x40 SHL SUB DUP1 DUP5 GT ISZERO PUSH2 0x4983 JUMPI PUSH2 0x4983 PUSH2 0x4953 JUMP JUMPDEST PUSH1 0x40 MLOAD PUSH1 0x1F DUP6 ADD PUSH1 0x1F NOT SWAP1 DUP2 AND PUSH1 0x3F ADD AND DUP2 ADD SWAP1 DUP3 DUP3 GT DUP2 DUP4 LT OR ISZERO PUSH2 0x49AB JUMPI PUSH2 0x49AB PUSH2 0x4953 JUMP JUMPDEST DUP2 PUSH1 0x40 MSTORE DUP1 SWAP4 POP DUP6 DUP2 MSTORE DUP7 DUP7 DUP7 ADD GT ISZERO PUSH2 0x49C4 JUMPI PUSH1 0x0 DUP1 REVERT JUMPDEST DUP6 DUP6 PUSH1 0x20 DUP4 ADD CALLDATACOPY PUSH1 0x0 PUSH1 0x20 DUP8 DUP4 ADD ADD MSTORE POP POP POP SWAP4 SWAP3 POP POP POP JUMP JUMPDEST PUSH1 0x0 DUP3 PUSH1 0x1F DUP4 ADD SLT PUSH2 0x49EF JUMPI PUSH1 0x0 DUP1 REVERT JUMPDEST PUSH2 0x13FC DUP4 DUP4 CALLDATALOAD PUSH1 0x20 DUP6 ADD PUSH2 0x4969 JUMP JUMPDEST PUSH1 0x0 PUSH1 0x20 DUP3 DUP5 SUB SLT ISZERO PUSH2 0x4A10 JUMPI PUSH1 0x0 DUP1 REVERT JUMPDEST DUP2 CALLDATALOAD PUSH1 0x1 PUSH1 0x1 PUSH1 0x40 SHL SUB DUP2 GT ISZERO PUSH2 0x4A26 JUMPI PUSH1 0x0 DUP1 REVERT JUMPDEST PUSH2 0x1325 DUP5 DUP3 DUP6 ADD PUSH2 0x49DE JUMP JUMPDEST PUSH1 0x0 DUP1 PUSH1 0x40 DUP4 DUP6 SUB SLT ISZERO PUSH2 0x4A45 JUMPI PUSH1 0x0 DUP1 REVERT JUMPDEST DUP3 CALLDATALOAD PUSH1 0x1 PUSH1 0x1 PUSH1 0x40 SHL SUB DUP1 DUP3 GT ISZERO PUSH2 0x4A5C JUMPI PUSH1 0x0 DUP1 REVERT JUMPDEST PUSH2 0x4A68 DUP7 DUP4 DUP8 ADD PUSH2 0x49DE JUMP JUMPDEST SWAP4 POP PUSH1 0x20 DUP6 ADD CALLDATALOAD SWAP2 POP DUP1 DUP3 GT ISZERO PUSH2 0x4A7E JUMPI PUSH1 0x0 DUP1 REVERT JUMPDEST POP PUSH2 0x4A8B DUP6 DUP3 DUP7 ADD PUSH2 0x49DE JUMP JUMPDEST SWAP2 POP POP SWAP3 POP SWAP3 SWAP1 POP JUMP JUMPDEST PUSH1 0x40 DUP2 MSTORE PUSH1 0x0 PUSH2 0x4AA8 PUSH1 0x40 DUP4 ADD DUP6 PUSH2 0x454C JUMP JUMPDEST DUP3 DUP2 SUB PUSH1 0x20 DUP5 ADD MSTORE PUSH2 0x4ABA DUP2 DUP6 PUSH2 0x454C JUMP JUMPDEST SWAP6 SWAP5 POP POP POP POP POP JUMP JUMPDEST PUSH1 0x0 DUP1 PUSH1 0x0 PUSH1 0x60 DUP5 DUP7 SUB SLT ISZERO PUSH2 0x4AD8 JUMPI PUSH1 0x0 DUP1 REVERT JUMPDEST PUSH2 0x4AE1 DUP5 PUSH2 0x44E9 JUMP JUMPDEST SWAP3 POP PUSH1 0x20 DUP5 ADD CALLDATALOAD PUSH1 0x1 PUSH1 0x1 PUSH1 0x40 SHL SUB DUP1 DUP3 GT ISZERO PUSH2 0x4AFD JUMPI PUSH1 0x0 DUP1 REVERT JUMPDEST PUSH2 0x4B09 DUP8 DUP4 DUP9 ADD PUSH2 0x49DE JUMP JUMPDEST SWAP4 POP PUSH1 0x40 DUP7 ADD CALLDATALOAD SWAP2 POP DUP1 DUP3 GT ISZERO PUSH2 0x4B1F JUMPI PUSH1 0x0 DUP1 REVERT JUMPDEST POP PUSH2 0x4B2C DUP7 DUP3 DUP8 ADD PUSH2 0x49DE JUMP JUMPDEST SWAP2 POP POP SWAP3 POP SWAP3 POP SWAP3 JUMP JUMPDEST PUSH1 0x0 DUP1 PUSH1 0x0 PUSH1 0x60 DUP5 DUP7 SUB SLT ISZERO PUSH2 0x4B4B JUMPI PUSH1 0x0 DUP1 REVERT JUMPDEST POP POP DUP2 CALLDATALOAD SWAP4 PUSH1 0x20 DUP4 ADD CALLDATALOAD SWAP4 POP PUSH1 0x40 SWAP1 SWAP3 ADD CALLDATALOAD SWAP2 SWAP1 POP JUMP JUMPDEST PUSH1 0x0 DUP1 PUSH1 0x0 PUSH1 0x60 DUP5 DUP7 SUB SLT ISZERO PUSH2 0x4B77 JUMPI PUSH1 0x0 DUP1 REVERT JUMPDEST PUSH2 0x4B80 DUP5 PUSH2 0x44E9 JUMP JUMPDEST SWAP3 POP PUSH1 0x20 DUP5 ADD CALLDATALOAD SWAP2 POP PUSH1 0x40 DUP5 ADD CALLDATALOAD PUSH1 0x1 PUSH1 0x1 PUSH1 0x40 SHL SUB DUP2 GT ISZERO PUSH2 0x4BA2 JUMPI PUSH1 0x0 DUP1 REVERT JUMPDEST PUSH2 0x4B2C DUP7 DUP3 DUP8 ADD PUSH2 0x49DE JUMP JUMPDEST DUP1 CALLDATALOAD DUP1 ISZERO ISZERO DUP2 EQ PUSH2 0x4500 JUMPI PUSH1 0x0 DUP1 REVERT JUMPDEST PUSH1 0x0 DUP1 PUSH1 0x40 DUP4 DUP6 SUB SLT ISZERO PUSH2 0x4BD1 JUMPI PUSH1 0x0 DUP1 REVERT JUMPDEST PUSH2 0x4BDA DUP4 PUSH2 0x44E9 JUMP JUMPDEST SWAP2 POP PUSH2 0x3654 PUSH1 0x20 DUP5 ADD PUSH2 0x4BAE JUMP JUMPDEST PUSH1 0x40 DUP2 MSTORE PUSH1 0x0 PUSH2 0x4BFB PUSH1 0x40 DUP4 ADD DUP6 PUSH2 0x46F2 JUMP JUMPDEST DUP3 DUP2 SUB PUSH1 0x20 DUP5 ADD MSTORE PUSH2 0x4ABA DUP2 DUP6 PUSH2 0x46F2 JUMP JUMPDEST PUSH1 0x0 DUP1 PUSH1 0x0 DUP1 PUSH1 0x80 DUP6 DUP8 SUB SLT ISZERO PUSH2 0x4C23 JUMPI PUSH1 0x0 DUP1 REVERT JUMPDEST PUSH2 0x4C2C DUP6 PUSH2 0x44E9 JUMP JUMPDEST SWAP4 POP PUSH2 0x4C3A PUSH1 0x20 DUP7 ADD PUSH2 0x44E9 JUMP JUMPDEST SWAP3 POP PUSH1 0x40 DUP6 ADD CALLDATALOAD SWAP2 POP PUSH1 0x60 DUP6 ADD CALLDATALOAD PUSH1 0x1 PUSH1 0x1 PUSH1 0x40 SHL SUB DUP2 GT ISZERO PUSH2 0x4C5C JUMPI PUSH1 0x0 DUP1 REVERT JUMPDEST DUP6 ADD PUSH1 0x1F DUP2 ADD DUP8 SGT PUSH2 0x4C6D JUMPI PUSH1 0x0 DUP1 REVERT JUMPDEST PUSH2 0x4C7C DUP8 DUP3 CALLDATALOAD PUSH1 0x20 DUP5 ADD PUSH2 0x4969 JUMP JUMPDEST SWAP2 POP POP SWAP3 SWAP6 SWAP2 SWAP5 POP SWAP3 POP JUMP JUMPDEST PUSH1 0x40 DUP1 DUP3 MSTORE DUP4 MLOAD SWAP1 DUP3 ADD DUP2 SWAP1 MSTORE PUSH1 0x0 SWAP1 PUSH1 0x20 SWAP1 PUSH1 0x60 DUP5 ADD SWAP1 DUP3 DUP8 ADD DUP5 JUMPDEST DUP3 DUP2 LT ISZERO PUSH2 0x4CC1 JUMPI DUP2 MLOAD DUP5 MSTORE SWAP3 DUP5 ADD SWAP3 SWAP1 DUP5 ADD SWAP1 PUSH1 0x1 ADD PUSH2 0x4CA5 JUMP JUMPDEST POP POP POP DUP4 DUP2 SUB DUP3 DUP6 ADD MSTORE PUSH2 0x4CD5 DUP2 DUP7 PUSH2 0x46F2 JUMP JUMPDEST SWAP7 SWAP6 POP POP POP POP POP POP JUMP JUMPDEST PUSH1 0x0 DUP1 PUSH1 0x40 DUP4 DUP6 SUB SLT ISZERO PUSH2 0x4CF2 JUMPI PUSH1 0x0 DUP1 REVERT JUMPDEST DUP3 CALLDATALOAD SWAP2 POP PUSH1 0x20 DUP4 ADD CALLDATALOAD PUSH1 0x1 PUSH1 0x1 PUSH1 0x40 SHL SUB DUP2 GT ISZERO PUSH2 0x4D0F JUMPI PUSH1 0x0 DUP1 REVERT JUMPDEST PUSH2 0x4A8B DUP6 DUP3 DUP7 ADD PUSH2 0x49DE JUMP JUMPDEST PUSH1 0x0 DUP1 PUSH1 0x40 DUP4 DUP6 SUB SLT ISZERO PUSH2 0x4D2E JUMPI PUSH1 0x0 DUP1 REVERT JUMPDEST PUSH2 0x4D37 DUP4 PUSH2 0x44E9 JUMP JUMPDEST SWAP2 POP PUSH2 0x3654 PUSH1 0x20 DUP5 ADD PUSH2 0x44E9 JUMP JUMPDEST PUSH1 0x0 PUSH1 0x20 DUP3 DUP5 SUB SLT ISZERO PUSH2 0x4D57 JUMPI PUSH1 0x0 DUP1 REVERT JUMPDEST PUSH2 0x13FC DUP3 PUSH2 0x4BAE JUMP JUMPDEST PUSH1 0x0 DUP1 PUSH1 0x20 DUP4 DUP6 SUB SLT ISZERO PUSH2 0x4D73 JUMPI PUSH1 0x0 DUP1 REVERT JUMPDEST DUP3 CALLDATALOAD PUSH1 0x1 PUSH1 0x1 PUSH1 0x40 SHL SUB DUP2 GT ISZERO PUSH2 0x4D89 JUMPI PUSH1 0x0 DUP1 REVERT JUMPDEST PUSH2 0x4D95 DUP6 DUP3 DUP7 ADD PUSH2 0x4609 JUMP JUMPDEST SWAP1 SWAP7 SWAP1 SWAP6 POP SWAP4 POP POP POP POP JUMP JUMPDEST PUSH1 0x1 DUP2 DUP2 SHR SWAP1 DUP3 AND DUP1 PUSH2 0x4DB5 JUMPI PUSH1 0x7F DUP3 AND SWAP2 POP JUMPDEST PUSH1 0x20 DUP3 LT DUP2 EQ ISZERO PUSH2 0x4DD6 JUMPI PUSH4 0x4E487B71 PUSH1 0xE0 SHL PUSH1 0x0 MSTORE PUSH1 0x22 PUSH1 0x4 MSTORE PUSH1 0x24 PUSH1 0x0 REVERT JUMPDEST POP SWAP2 SWAP1 POP JUMP JUMPDEST PUSH1 0x20 DUP1 DUP3 MSTORE PUSH1 0x2A SWAP1 DUP3 ADD MSTORE PUSH32 0x41646D696E436F6E74726F6C3A2073656E646572206D75737420686173206D69 PUSH1 0x40 DUP3 ADD MSTORE PUSH10 0x6E74696E6720726F6C65 PUSH1 0xB0 SHL PUSH1 0x60 DUP3 ADD MSTORE PUSH1 0x80 ADD SWAP1 JUMP JUMPDEST PUSH4 0x4E487B71 PUSH1 0xE0 SHL PUSH1 0x0 MSTORE PUSH1 0x32 PUSH1 0x4 MSTORE PUSH1 0x24 PUSH1 0x0 REVERT JUMPDEST PUSH4 0x4E487B71 PUSH1 0xE0 SHL PUSH1 0x0 MSTORE PUSH1 0x11 PUSH1 0x4 MSTORE PUSH1 0x24 PUSH1 0x0 REVERT JUMPDEST PUSH1 0x0 PUSH1 0x0 NOT DUP3 EQ ISZERO PUSH2 0x4E66 JUMPI PUSH2 0x4E66 PUSH2 0x4E3C JUMP JUMPDEST POP PUSH1 0x1 ADD SWAP1 JUMP JUMPDEST PUSH1 0x0 DUP1 DUP4 CALLDATALOAD PUSH1 0x1E NOT DUP5 CALLDATASIZE SUB ADD DUP2 SLT PUSH2 0x4E84 JUMPI PUSH1 0x0 DUP1 REVERT JUMPDEST DUP4 ADD DUP1 CALLDATALOAD SWAP2 POP PUSH1 0x1 PUSH1 0x1 PUSH1 0x40 SHL SUB DUP3 GT ISZERO PUSH2 0x4E9E JUMPI PUSH1 0x0 DUP1 REVERT JUMPDEST PUSH1 0x20 ADD SWAP2 POP CALLDATASIZE DUP2 SWAP1 SUB DUP3 SGT ISZERO PUSH2 0x464D JUMPI PUSH1 0x0 DUP1 REVERT JUMPDEST PUSH1 0x20 DUP1 DUP3 MSTORE DUP2 DUP2 ADD MSTORE PUSH32 0x4F776E61626C653A2063616C6C6572206973206E6F7420746865206F776E6572 PUSH1 0x40 DUP3 ADD MSTORE PUSH1 0x60 ADD SWAP1 JUMP JUMPDEST PUSH1 0x20 DUP1 DUP3 MSTORE PUSH1 0x31 SWAP1 DUP3 ADD MSTORE PUSH32 0x4552433732313A207472616E736665722063616C6C6572206973206E6F74206F PUSH1 0x40 DUP3 ADD MSTORE PUSH17 0x1DDB995C881B9BDC88185C1C1C9BDD9959 PUSH1 0x7A SHL PUSH1 0x60 DUP3 ADD MSTORE PUSH1 0x80 ADD SWAP1 JUMP JUMPDEST PUSH1 0x20 DUP1 DUP3 MSTORE PUSH1 0x30 SWAP1 DUP3 ADD MSTORE PUSH32 0x526576657273655265736F6C7665723A2053454E4445525F49535F4E4F545F41 PUSH1 0x40 DUP3 ADD MSTORE PUSH16 0x28282927AB22A22FA7A92FA7ABA722A9 PUSH1 0x81 SHL PUSH1 0x60 DUP3 ADD MSTORE PUSH1 0x80 ADD SWAP1 JUMP JUMPDEST PUSH1 0x0 DUP3 MLOAD PUSH2 0x4F9B DUP2 DUP5 PUSH1 0x20 DUP8 ADD PUSH2 0x4520 JUMP JUMPDEST SWAP2 SWAP1 SWAP2 ADD SWAP3 SWAP2 POP POP JUMP JUMPDEST PUSH1 0x20 DUP1 DUP3 MSTORE PUSH1 0x22 SWAP1 DUP3 ADD MSTORE PUSH32 0x546F70206C6576656C20646F6D61696E206D757374206265206E6F6E2D656D70 PUSH1 0x40 DUP3 ADD MSTORE PUSH2 0x7479 PUSH1 0xF0 SHL PUSH1 0x60 DUP3 ADD MSTORE PUSH1 0x80 ADD SWAP1 JUMP JUMPDEST PUSH1 0x20 DUP1 DUP3 MSTORE PUSH1 0x35 SWAP1 DUP3 ADD MSTORE PUSH32 0x496E73756666696369656E7420546F6B656E206F7220546F6B656E2076616C75 PUSH1 0x40 DUP3 ADD MSTORE PUSH21 0x19481CD95B9D081A5CC81B9BDD0818DBDC9C9958DD PUSH1 0x5A SHL PUSH1 0x60 DUP3 ADD MSTORE PUSH1 0x80 ADD SWAP1 JUMP JUMPDEST PUSH1 0x0 DUP4 MLOAD PUSH2 0x504E DUP2 DUP5 PUSH1 0x20 DUP9 ADD PUSH2 0x4520 JUMP JUMPDEST PUSH1 0x17 PUSH1 0xF9 SHL SWAP1 DUP4 ADD SWAP1 DUP2 MSTORE DUP4 MLOAD PUSH2 0x506C DUP2 PUSH1 0x1 DUP5 ADD PUSH1 0x20 DUP9 ADD PUSH2 0x4520 JUMP JUMPDEST ADD PUSH1 0x1 ADD SWAP5 SWAP4 POP POP POP POP JUMP JUMPDEST PUSH1 0x20 DUP1 DUP3 MSTORE PUSH1 0x28 SWAP1 DUP3 ADD MSTORE PUSH32 0x526576657273655265736F6C7665723A20524556455253455F5245434F52445F PUSH1 0x40 DUP3 ADD MSTORE PUSH8 0x49535F454D505459 PUSH1 0xC0 SHL PUSH1 0x60 DUP3 ADD MSTORE PUSH1 0x80 ADD SWAP1 JUMP JUMPDEST PUSH1 0x0 DUP4 MLOAD PUSH2 0x50D2 DUP2 DUP5 PUSH1 0x20 DUP9 ADD PUSH2 0x4520 JUMP JUMPDEST DUP4 MLOAD SWAP1 DUP4 ADD SWAP1 PUSH2 0x50E6 DUP2 DUP4 PUSH1 0x20 DUP9 ADD PUSH2 0x4520 JUMP JUMPDEST ADD SWAP5 SWAP4 POP POP POP POP JUMP JUMPDEST PUSH1 0x0 DUP4 MLOAD PUSH2 0x5101 DUP2 DUP5 PUSH1 0x20 DUP9 ADD PUSH2 0x4520 JUMP JUMPDEST SWAP2 SWAP1 SWAP2 ADD SWAP2 DUP3 MSTORE POP PUSH1 0x20 ADD SWAP2 SWAP1 POP JUMP JUMPDEST PUSH1 0x0 DUP2 PUSH1 0x0 NOT DIV DUP4 GT DUP3 ISZERO ISZERO AND ISZERO PUSH2 0x512B JUMPI PUSH2 0x512B PUSH2 0x4E3C JUMP JUMPDEST POP MUL SWAP1 JUMP JUMPDEST PUSH1 0x0 DUP3 DUP3 LT ISZERO PUSH2 0x5142 JUMPI PUSH2 0x5142 PUSH2 0x4E3C JUMP JUMPDEST POP SUB SWAP1 JUMP JUMPDEST PUSH1 0x0 DUP3 NOT DUP3 GT ISZERO PUSH2 0x515A JUMPI PUSH2 0x515A PUSH2 0x4E3C JUMP JUMPDEST POP ADD SWAP1 JUMP JUMPDEST DUP2 DUP4 DUP3 CALLDATACOPY PUSH1 0x0 SWAP2 ADD SWAP1 DUP2 MSTORE SWAP2 SWAP1 POP JUMP JUMPDEST PUSH1 0x0 PUSH1 0xFF DUP3 AND PUSH1 0xFF DUP5 AND DUP1 PUSH1 0xFF SUB DUP3 GT ISZERO PUSH2 0x518C JUMPI PUSH2 0x518C PUSH2 0x4E3C JUMP JUMPDEST ADD SWAP4 SWAP3 POP POP POP JUMP JUMPDEST PUSH1 0x0 DUP4 MLOAD PUSH1 0x20 PUSH2 0x51A7 DUP3 DUP6 DUP4 DUP10 ADD PUSH2 0x4520 JUMP JUMPDEST PUSH1 0x17 PUSH1 0xF9 SHL SWAP2 DUP5 ADD SWAP2 DUP3 MSTORE DUP5 SLOAD PUSH1 0x1 SWAP1 PUSH1 0x0 SWAP1 DUP1 DUP4 SHR DUP2 DUP5 AND DUP1 PUSH2 0x51CC JUMPI PUSH1 0x7F DUP3 AND SWAP2 POP JUMPDEST DUP6 DUP3 LT DUP2 EQ ISZERO PUSH2 0x51EA JUMPI PUSH4 0x4E487B71 PUSH1 0xE0 SHL DUP5 MSTORE PUSH1 0x22 PUSH1 0x4 MSTORE PUSH1 0x24 DUP5 REVERT JUMPDEST DUP1 DUP1 ISZERO PUSH2 0x51FE JUMPI PUSH1 0x1 DUP2 EQ PUSH2 0x5213 JUMPI PUSH2 0x5244 JUMP JUMPDEST PUSH1 0xFF NOT DUP5 AND DUP9 DUP8 ADD MSTORE DUP3 DUP9 ADD DUP7 ADD SWAP5 POP PUSH2 0x5244 JUMP JUMPDEST PUSH1 0x0 DUP12 DUP2 MSTORE PUSH1 0x20 SWAP1 KECCAK256 PUSH1 0x0 JUMPDEST DUP5 DUP2 LT ISZERO PUSH2 0x523A JUMPI DUP2 SLOAD DUP11 DUP3 ADD DUP10 ADD MSTORE SWAP1 DUP8 ADD SWAP1 DUP9 ADD PUSH2 0x521F JUMP JUMPDEST POP POP DUP6 DUP4 DUP10 ADD ADD SWAP5 POP JUMPDEST POP SWAP3 SWAP11 SWAP10 POP POP POP POP POP POP POP POP POP POP JUMP JUMPDEST PUSH1 0x20 DUP1 DUP3 MSTORE PUSH1 0x32 SWAP1 DUP3 ADD MSTORE PUSH32 0x4552433732313A207472616E7366657220746F206E6F6E204552433732315265 PUSH1 0x40 DUP3 ADD MSTORE PUSH18 0x31B2B4BB32B91034B6B83632B6B2B73A32B9 PUSH1 0x71 SHL PUSH1 0x60 DUP3 ADD MSTORE PUSH1 0x80 ADD SWAP1 JUMP JUMPDEST PUSH1 0x1 PUSH1 0x1 PUSH1 0xA0 SHL SUB DUP6 DUP2 AND DUP3 MSTORE DUP5 AND PUSH1 0x20 DUP3 ADD MSTORE PUSH1 0x40 DUP2 ADD DUP4 SWAP1 MSTORE PUSH1 0x80 PUSH1 0x60 DUP3 ADD DUP2 SWAP1 MSTORE PUSH1 0x0 SWAP1 PUSH2 0x4CD5 SWAP1 DUP4 ADD DUP5 PUSH2 0x454C JUMP JUMPDEST PUSH1 0x0 PUSH1 0x20 DUP3 DUP5 SUB SLT ISZERO PUSH2 0x52EB JUMPI PUSH1 0x0 DUP1 REVERT JUMPDEST DUP2 MLOAD PUSH2 0x13FC DUP2 PUSH2 0x44B6 JUMP JUMPDEST PUSH4 0x4E487B71 PUSH1 0xE0 SHL PUSH1 0x0 MSTORE PUSH1 0x31 PUSH1 0x4 MSTORE PUSH1 0x24 PUSH1 0x0 REVERT INVALID LOG2 PUSH5 0x6970667358 0x22 SLT KECCAK256 0xC1 EQ PUSH3 0xC2C5AD 0xC6 LOG4 0x2E CHAINID LT 0xEE PUSH21 0xB2BBF3E6384B77A34069967DFE83CFEF5EB9B56473 PUSH16 0x6C634300080C00330000000000000000 "
		},
		"gasEstimates": {
			"creation": {
				"codeDepositCost": "4262800",
				"executionCost": "infinite",
				"totalCost": "infinite"
			},
			"external": {
				"_saleIsActive()": "2432",
				"_tokenURIs(uint256)": "infinite",
				"_whiteList(address)": "2626",
				"addKey(string)": "infinite",
				"addWhiteList(address,uint8)": "infinite",
				"addWhiteLists(address[],uint8)": "infinite",
				"approve(address,uint256)": "infinite",
				"balanceOf(address)": "2657",
				"burn(uint256)": "infinite",
				"burnSubDomain(uint256,string)": "infinite",
				"buyDomain(string,string)": "infinite",
				"chkInWhiteList(address)": "2655",
				"exists(uint256)": "2621",
				"genTokenId(string)": "infinite",
				"get(string,uint256)": "infinite",
				"get2charTimes()": "2427",
				"get3charTimes()": "2448",
				"get4charTimes()": "2381",
				"getApproved(uint256)": "4867",
				"getByHash(uint256,uint256)": "infinite",
				"getDomainbyAddress(address)": "infinite",
				"getKey(uint256)": "infinite",
				"getKeys(uint256[])": "infinite",
				"getMany(string[],uint256)": "infinite",
				"getManyByHash(uint256[],uint256)": "infinite",
				"getOwner(string)": "infinite",
				"getPrice()": "2381",
				"getPrice2Char()": "4724",
				"getPrice3Char()": "4700",
				"getPrice4Char()": "4657",
				"grantMinterRole(address)": "infinite",
				"hasRole(address)": "2707",
				"isApprovedForAll(address,address)": "infinite",
				"isApprovedOrOwner(address,uint256)": "infinite",
				"isTLD(string)": "infinite",
				"isWhiteListActive()": "2410",
				"name()": "infinite",
				"numberInWhiteList(address)": "2707",
				"owner()": "2421",
				"ownerOf(uint256)": "2711",
				"reconfigure(string[],string[],uint256)": "infinite",
				"registerDomain(address,string,string)": "infinite",
				"registerSubDomain(address,uint256,string)": "infinite",
				"removeReverse()": "7531",
				"renounceOwnership()": "28207",
				"reset(uint256)": "infinite",
				"reverseOf(address)": "infinite",
				"revokeMinterRole(address)": "infinite",
				"safeTransferFrom(address,address,uint256)": "infinite",
				"safeTransferFrom(address,address,uint256,bytes)": "infinite",
				"set(string,string,uint256)": "infinite",
				"setApprovalForAll(address,bool)": "infinite",
				"setBaseURI(string)": "infinite",
				"setByHash(uint256,string,uint256)": "infinite",
				"setMany(string[],string[],uint256)": "infinite",
				"setManyByHash(uint256[],string[],uint256)": "infinite",
				"setOwner(address,uint256)": "infinite",
				"setPrice(uint256)": "24598",
				"setReverse(string)": "infinite",
				"setReverse(uint256)": "infinite",
				"setSaleState()": "26658",
				"setSaleStateTwoChar()": "26657",
				"setTLD(string)": "infinite",
				"setTimes(uint256,uint256,uint256)": "68837",
				"setWhiteListActive(bool)": "26757",
				"subTokenIdByIndex(uint256,uint256)": "infinite",
				"subTokenIdCount(uint256)": "infinite",
				"supportsInterface(bytes4)": "infinite",
				"symbol()": "infinite",
				"tokenByIndex(uint256)": "6849",
				"tokenOfOwnerByIndex(address,uint256)": "5042",
				"tokenURI(uint256)": "infinite",
				"totalSupply()": "2361",
				"transferFrom(address,address,uint256)": "infinite",
				"transferOwnership(address)": "28444",
				"withdraw()": "infinite"
			},
			"internal": {
				"_baseURI()": "infinite",
				"_beforeTokenTransfer(address,address,uint256)": "infinite",
				"_burnSubDomain(uint256,string memory)": "infinite",
				"_safeMintSubDomain(address,uint256,string memory,bytes memory)": "infinite",
				"_setTokenURI(uint256,string memory)": "infinite"
			}
		},
		"methodIdentifiers": {
			"_saleIsActive()": "5d893ba0",
			"_tokenURIs(uint256)": "0bb78ec1",
			"_whiteList(address)": "05d60ffb",
			"addKey(string)": "50382c1a",
			"addWhiteList(address,uint8)": "0826a0bd",
			"addWhiteLists(address[],uint8)": "0cf89145",
			"approve(address,uint256)": "095ea7b3",
			"balanceOf(address)": "70a08231",
			"burn(uint256)": "42966c68",
			"burnSubDomain(uint256,string)": "c479a804",
			"buyDomain(string,string)": "65064370",
			"chkInWhiteList(address)": "d439daa2",
			"exists(uint256)": "4f558e79",
			"genTokenId(string)": "50b3a144",
			"get(string,uint256)": "1be5e7ed",
			"get2charTimes()": "6bc2290f",
			"get3charTimes()": "358deb1c",
			"get4charTimes()": "d2315630",
			"getApproved(uint256)": "081812fc",
			"getByHash(uint256,uint256)": "672b9f81",
			"getDomainbyAddress(address)": "bc7c8ceb",
			"getKey(uint256)": "bb5b27e1",
			"getKeys(uint256[])": "f5c1f76e",
			"getMany(string[],uint256)": "1bd8cc1a",
			"getManyByHash(uint256[],uint256)": "b85afd28",
			"getOwner(string)": "4aaf4a12",
			"getPrice()": "98d5fdca",
			"getPrice2Char()": "157c6138",
			"getPrice3Char()": "c6438cb8",
			"getPrice4Char()": "4cd637b5",
			"grantMinterRole(address)": "3dd1eb61",
			"hasRole(address)": "7ef09bca",
			"isApprovedForAll(address,address)": "e985e9c5",
			"isApprovedOrOwner(address,uint256)": "430c2081",
			"isTLD(string)": "e5f9da88",
			"isWhiteListActive()": "573f5dae",
			"name()": "06fdde03",
			"numberInWhiteList(address)": "a736868b",
			"owner()": "8da5cb5b",
			"ownerOf(uint256)": "6352211e",
			"reconfigure(string[],string[],uint256)": "ec129eea",
			"registerDomain(address,string,string)": "77e9d00b",
			"registerSubDomain(address,uint256,string)": "98a60243",
			"removeReverse()": "f25eb5c1",
			"renounceOwnership()": "715018a6",
			"reset(uint256)": "310bd74b",
			"reverseOf(address)": "7e37479e",
			"revokeMinterRole(address)": "69e2f0fb",
			"safeTransferFrom(address,address,uint256)": "42842e0e",
			"safeTransferFrom(address,address,uint256,bytes)": "b88d4fde",
			"set(string,string,uint256)": "47c81699",
			"setApprovalForAll(address,bool)": "a22cb465",
			"setBaseURI(string)": "55f804b3",
			"setByHash(uint256,string,uint256)": "4a72584d",
			"setMany(string[],string[],uint256)": "ce92b33e",
			"setManyByHash(uint256[],string[],uint256)": "27f18975",
			"setOwner(address,uint256)": "ab3b87fe",
			"setPrice(uint256)": "91b7f5ed",
			"setReverse(string)": "9cbf529d",
			"setReverse(uint256)": "384e9a55",
			"setSaleState()": "1ed40559",
			"setSaleStateTwoChar()": "4500d449",
			"setTLD(string)": "ad59e226",
			"setTimes(uint256,uint256,uint256)": "8f704aec",
			"setWhiteListActive(bool)": "eceb7d52",
			"subTokenIdByIndex(uint256,uint256)": "2dc50d9a",
			"subTokenIdCount(uint256)": "76f909ae",
			"supportsInterface(bytes4)": "01ffc9a7",
			"symbol()": "95d89b41",
			"tokenByIndex(uint256)": "4f6ccce7",
			"tokenOfOwnerByIndex(address,uint256)": "2f745c59",
			"tokenURI(uint256)": "c87b56dd",
			"totalSupply()": "18160ddd",
			"transferFrom(address,address,uint256)": "23b872dd",
			"transferOwnership(address)": "f2fde38b",
			"withdraw()": "3ccfd60b"
		}
	},
	"abi": [
		{
			"inputs": [],
			"stateMutability": "nonpayable",
			"type": "constructor"
		},
		{
			"anonymous": false,
			"inputs": [
				{
					"indexed": true,
					"internalType": "address",
					"name": "owner",
					"type": "address"
				},
				{
					"indexed": true,
					"internalType": "address",
					"name": "approved",
					"type": "address"
				},
				{
					"indexed": true,
					"internalType": "uint256",
					"name": "tokenId",
					"type": "uint256"
				}
			],
			"name": "Approval",
			"type": "event"
		},
		{
			"anonymous": false,
			"inputs": [
				{
					"indexed": true,
					"internalType": "address",
					"name": "owner",
					"type": "address"
				},
				{
					"indexed": true,
					"internalType": "address",
					"name": "operator",
					"type": "address"
				},
				{
					"indexed": false,
					"internalType": "bool",
					"name": "approved",
					"type": "bool"
				}
			],
			"name": "ApprovalForAll",
			"type": "event"
		},
		{
			"anonymous": false,
			"inputs": [
				{
					"indexed": true,
					"internalType": "uint256",
					"name": "tokenId",
					"type": "uint256"
				},
				{
					"indexed": true,
					"internalType": "string",
					"name": "keyIndex",
					"type": "string"
				},
				{
					"indexed": false,
					"internalType": "string",
					"name": "key",
					"type": "string"
				}
			],
			"name": "NewKey",
			"type": "event"
		},
		{
			"anonymous": false,
			"inputs": [
				{
					"indexed": true,
					"internalType": "uint256",
					"name": "tokenId",
					"type": "uint256"
				},
				{
					"indexed": false,
					"internalType": "string",
					"name": "tokenUri",
					"type": "string"
				}
			],
			"name": "NewURI",
			"type": "event"
		},
		{
			"anonymous": false,
			"inputs": [
				{
					"indexed": true,
					"internalType": "address",
					"name": "previousOwner",
					"type": "address"
				},
				{
					"indexed": true,
					"internalType": "address",
					"name": "newOwner",
					"type": "address"
				}
			],
			"name": "OwnershipTransferred",
			"type": "event"
		},
		{
			"anonymous": false,
			"inputs": [
				{
					"indexed": true,
					"internalType": "uint256",
					"name": "tokenId",
					"type": "uint256"
				}
			],
			"name": "ResetRecords",
			"type": "event"
		},
		{
			"anonymous": false,
			"inputs": [
				{
					"indexed": true,
					"internalType": "uint256",
					"name": "tokenId",
					"type": "uint256"
				},
				{
					"indexed": true,
					"internalType": "string",
					"name": "keyIndex",
					"type": "string"
				},
				{
					"indexed": true,
					"internalType": "string",
					"name": "valueIndex",
					"type": "string"
				},
				{
					"indexed": false,
					"internalType": "string",
					"name": "key",
					"type": "string"
				},
				{
					"indexed": false,
					"internalType": "string",
					"name": "value",
					"type": "string"
				}
			],
			"name": "Set",
			"type": "event"
		},
		{
			"anonymous": false,
			"inputs": [
				{
					"indexed": true,
					"internalType": "address",
					"name": "from",
					"type": "address"
				},
				{
					"indexed": true,
					"internalType": "address",
					"name": "to",
					"type": "address"
				},
				{
					"indexed": true,
					"internalType": "uint256",
					"name": "tokenId",
					"type": "uint256"
				}
			],
			"name": "Transfer",
			"type": "event"
		},
		{
			"inputs": [],
			"name": "_saleIsActive",
			"outputs": [
				{
					"internalType": "bool",
					"name": "",
					"type": "bool"
				}
			],
			"stateMutability": "view",
			"type": "function"
		},
		{
			"inputs": [
				{
					"internalType": "uint256",
					"name": "",
					"type": "uint256"
				}
			],
			"name": "_tokenURIs",
			"outputs": [
				{
					"internalType": "string",
					"name": "",
					"type": "string"
				}
			],
			"stateMutability": "view",
			"type": "function"
		},
		{
			"inputs": [
				{
					"internalType": "address",
					"name": "",
					"type": "address"
				}
			],
			"name": "_whiteList",
			"outputs": [
				{
					"internalType": "uint8",
					"name": "",
					"type": "uint8"
				}
			],
			"stateMutability": "view",
			"type": "function"
		},
		{
			"inputs": [
				{
					"internalType": "string",
					"name": "key",
					"type": "string"
				}
			],
			"name": "addKey",
			"outputs": [],
			"stateMutability": "nonpayable",
			"type": "function"
		},
		{
			"inputs": [
				{
					"internalType": "address",
					"name": "account",
					"type": "address"
				},
				{
					"internalType": "uint8",
					"name": "numbers",
					"type": "uint8"
				}
			],
			"name": "addWhiteList",
			"outputs": [],
			"stateMutability": "nonpayable",
			"type": "function"
		},
		{
			"inputs": [
				{
					"internalType": "address[]",
					"name": "accounts",
					"type": "address[]"
				},
				{
					"internalType": "uint8",
					"name": "numbers",
					"type": "uint8"
				}
			],
			"name": "addWhiteLists",
			"outputs": [],
			"stateMutability": "nonpayable",
			"type": "function"
		},
		{
			"inputs": [
				{
					"internalType": "address",
					"name": "to",
					"type": "address"
				},
				{
					"internalType": "uint256",
					"name": "tokenId",
					"type": "uint256"
				}
			],
			"name": "approve",
			"outputs": [],
			"stateMutability": "nonpayable",
			"type": "function"
		},
		{
			"inputs": [
				{
					"internalType": "address",
					"name": "owner",
					"type": "address"
				}
			],
			"name": "balanceOf",
			"outputs": [
				{
					"internalType": "uint256",
					"name": "",
					"type": "uint256"
				}
			],
			"stateMutability": "view",
			"type": "function"
		},
		{
			"inputs": [
				{
					"internalType": "uint256",
					"name": "tokenId",
					"type": "uint256"
				}
			],
			"name": "burn",
			"outputs": [],
			"stateMutability": "nonpayable",
			"type": "function"
		},
		{
			"inputs": [
				{
					"internalType": "uint256",
					"name": "tokenId",
					"type": "uint256"
				},
				{
					"internalType": "string",
					"name": "sub",
					"type": "string"
				}
			],
			"name": "burnSubDomain",
			"outputs": [],
			"stateMutability": "nonpayable",
			"type": "function"
		},
		{
			"inputs": [
				{
					"internalType": "string",
					"name": "domain",
					"type": "string"
				},
				{
					"internalType": "string",
					"name": "tld",
					"type": "string"
				}
			],
			"name": "buyDomain",
			"outputs": [],
			"stateMutability": "payable",
			"type": "function"
		},
		{
			"inputs": [
				{
					"internalType": "address",
					"name": "addr",
					"type": "address"
				}
			],
			"name": "chkInWhiteList",
			"outputs": [
				{
					"internalType": "bool",
					"name": "",
					"type": "bool"
				}
			],
			"stateMutability": "view",
			"type": "function"
		},
		{
			"inputs": [
				{
					"internalType": "uint256",
					"name": "tokenId",
					"type": "uint256"
				}
			],
			"name": "exists",
			"outputs": [
				{
					"internalType": "bool",
					"name": "",
					"type": "bool"
				}
			],
			"stateMutability": "view",
			"type": "function"
		},
		{
			"inputs": [
				{
					"internalType": "string",
					"name": "label",
					"type": "string"
				}
			],
			"name": "genTokenId",
			"outputs": [
				{
					"internalType": "uint256",
					"name": "",
					"type": "uint256"
				}
			],
			"stateMutability": "pure",
			"type": "function"
		},
		{
			"inputs": [
				{
					"internalType": "string",
					"name": "key",
					"type": "string"
				},
				{
					"internalType": "uint256",
					"name": "tokenId",
					"type": "uint256"
				}
			],
			"name": "get",
			"outputs": [
				{
					"internalType": "string",
					"name": "value",
					"type": "string"
				}
			],
			"stateMutability": "view",
			"type": "function"
		},
		{
			"inputs": [],
			"name": "get2charTimes",
			"outputs": [
				{
					"internalType": "uint256",
					"name": "",
					"type": "uint256"
				}
			],
			"stateMutability": "view",
			"type": "function"
		},
		{
			"inputs": [],
			"name": "get3charTimes",
			"outputs": [
				{
					"internalType": "uint256",
					"name": "",
					"type": "uint256"
				}
			],
			"stateMutability": "view",
			"type": "function"
		},
		{
			"inputs": [],
			"name": "get4charTimes",
			"outputs": [
				{
					"internalType": "uint256",
					"name": "",
					"type": "uint256"
				}
			],
			"stateMutability": "view",
			"type": "function"
		},
		{
			"inputs": [
				{
					"internalType": "uint256",
					"name": "tokenId",
					"type": "uint256"
				}
			],
			"name": "getApproved",
			"outputs": [
				{
					"internalType": "address",
					"name": "",
					"type": "address"
				}
			],
			"stateMutability": "view",
			"type": "function"
		},
		{
			"inputs": [
				{
					"internalType": "uint256",
					"name": "keyHash",
					"type": "uint256"
				},
				{
					"internalType": "uint256",
					"name": "tokenId",
					"type": "uint256"
				}
			],
			"name": "getByHash",
			"outputs": [
				{
					"internalType": "string",
					"name": "key",
					"type": "string"
				},
				{
					"internalType": "string",
					"name": "value",
					"type": "string"
				}
			],
			"stateMutability": "view",
			"type": "function"
		},
		{
			"inputs": [
				{
					"internalType": "address",
					"name": "account",
					"type": "address"
				}
			],
			"name": "getDomainbyAddress",
			"outputs": [
				{
					"internalType": "uint256[]",
					"name": "tokenIds",
					"type": "uint256[]"
				},
				{
					"internalType": "string[]",
					"name": "domains",
					"type": "string[]"
				}
			],
			"stateMutability": "view",
			"type": "function"
		},
		{
			"inputs": [
				{
					"internalType": "uint256",
					"name": "keyHash",
					"type": "uint256"
				}
			],
			"name": "getKey",
			"outputs": [
				{
					"internalType": "string",
					"name": "",
					"type": "string"
				}
			],
			"stateMutability": "view",
			"type": "function"
		},
		{
			"inputs": [
				{
					"internalType": "uint256[]",
					"name": "hashes",
					"type": "uint256[]"
				}
			],
			"name": "getKeys",
			"outputs": [
				{
					"internalType": "string[]",
					"name": "values",
					"type": "string[]"
				}
			],
			"stateMutability": "view",
			"type": "function"
		},
		{
			"inputs": [
				{
					"internalType": "string[]",
					"name": "keys",
					"type": "string[]"
				},
				{
					"internalType": "uint256",
					"name": "tokenId",
					"type": "uint256"
				}
			],
			"name": "getMany",
			"outputs": [
				{
					"internalType": "string[]",
					"name": "values",
					"type": "string[]"
				}
			],
			"stateMutability": "view",
			"type": "function"
		},
		{
			"inputs": [
				{
					"internalType": "uint256[]",
					"name": "keyHashes",
					"type": "uint256[]"
				},
				{
					"internalType": "uint256",
					"name": "tokenId",
					"type": "uint256"
				}
			],
			"name": "getManyByHash",
			"outputs": [
				{
					"internalType": "string[]",
					"name": "keys",
					"type": "string[]"
				},
				{
					"internalType": "string[]",
					"name": "values",
					"type": "string[]"
				}
			],
			"stateMutability": "view",
			"type": "function"
		},
		{
			"inputs": [
				{
					"internalType": "string",
					"name": "domain",
					"type": "string"
				}
			],
			"name": "getOwner",
			"outputs": [
				{
					"internalType": "address",
					"name": "",
					"type": "address"
				}
			],
			"stateMutability": "view",
			"type": "function"
		},
		{
			"inputs": [],
			"name": "getPrice",
			"outputs": [
				{
					"internalType": "uint256",
					"name": "",
					"type": "uint256"
				}
			],
			"stateMutability": "view",
			"type": "function"
		},
		{
			"inputs": [],
			"name": "getPrice2Char",
			"outputs": [
				{
					"internalType": "uint256",
					"name": "",
					"type": "uint256"
				}
			],
			"stateMutability": "view",
			"type": "function"
		},
		{
			"inputs": [],
			"name": "getPrice3Char",
			"outputs": [
				{
					"internalType": "uint256",
					"name": "",
					"type": "uint256"
				}
			],
			"stateMutability": "view",
			"type": "function"
		},
		{
			"inputs": [],
			"name": "getPrice4Char",
			"outputs": [
				{
					"internalType": "uint256",
					"name": "",
					"type": "uint256"
				}
			],
			"stateMutability": "view",
			"type": "function"
		},
		{
			"inputs": [
				{
					"internalType": "address",
					"name": "account",
					"type": "address"
				}
			],
			"name": "grantMinterRole",
			"outputs": [],
			"stateMutability": "nonpayable",
			"type": "function"
		},
		{
			"inputs": [
				{
					"internalType": "address",
					"name": "account",
					"type": "address"
				}
			],
			"name": "hasRole",
			"outputs": [
				{
					"internalType": "bool",
					"name": "",
					"type": "bool"
				}
			],
			"stateMutability": "view",
			"type": "function"
		},
		{
			"inputs": [
				{
					"internalType": "address",
					"name": "owner",
					"type": "address"
				},
				{
					"internalType": "address",
					"name": "operator",
					"type": "address"
				}
			],
			"name": "isApprovedForAll",
			"outputs": [
				{
					"internalType": "bool",
					"name": "",
					"type": "bool"
				}
			],
			"stateMutability": "view",
			"type": "function"
		},
		{
			"inputs": [
				{
					"internalType": "address",
					"name": "account",
					"type": "address"
				},
				{
					"internalType": "uint256",
					"name": "tokenId",
					"type": "uint256"
				}
			],
			"name": "isApprovedOrOwner",
			"outputs": [
				{
					"internalType": "bool",
					"name": "",
					"type": "bool"
				}
			],
			"stateMutability": "view",
			"type": "function"
		},
		{
			"inputs": [
				{
					"internalType": "string",
					"name": "_tld",
					"type": "string"
				}
			],
			"name": "isTLD",
			"outputs": [
				{
					"internalType": "bool",
					"name": "",
					"type": "bool"
				}
			],
			"stateMutability": "view",
			"type": "function"
		},
		{
			"inputs": [],
			"name": "isWhiteListActive",
			"outputs": [
				{
					"internalType": "bool",
					"name": "",
					"type": "bool"
				}
			],
			"stateMutability": "view",
			"type": "function"
		},
		{
			"inputs": [],
			"name": "name",
			"outputs": [
				{
					"internalType": "string",
					"name": "",
					"type": "string"
				}
			],
			"stateMutability": "view",
			"type": "function"
		},
		{
			"inputs": [
				{
					"internalType": "address",
					"name": "addr",
					"type": "address"
				}
			],
			"name": "numberInWhiteList",
			"outputs": [
				{
					"internalType": "uint8",
					"name": "",
					"type": "uint8"
				}
			],
			"stateMutability": "view",
			"type": "function"
		},
		{
			"inputs": [],
			"name": "owner",
			"outputs": [
				{
					"internalType": "address",
					"name": "",
					"type": "address"
				}
			],
			"stateMutability": "view",
			"type": "function"
		},
		{
			"inputs": [
				{
					"internalType": "uint256",
					"name": "tokenId",
					"type": "uint256"
				}
			],
			"name": "ownerOf",
			"outputs": [
				{
					"internalType": "address",
					"name": "",
					"type": "address"
				}
			],
			"stateMutability": "view",
			"type": "function"
		},
		{
			"inputs": [
				{
					"internalType": "string[]",
					"name": "keys",
					"type": "string[]"
				},
				{
					"internalType": "string[]",
					"name": "values",
					"type": "string[]"
				},
				{
					"internalType": "uint256",
					"name": "tokenId",
					"type": "uint256"
				}
			],
			"name": "reconfigure",
			"outputs": [],
			"stateMutability": "nonpayable",
			"type": "function"
		},
		{
			"inputs": [
				{
					"internalType": "address",
					"name": "to",
					"type": "address"
				},
				{
					"internalType": "string",
					"name": "domain",
					"type": "string"
				},
				{
					"internalType": "string",
					"name": "tld",
					"type": "string"
				}
			],
			"name": "registerDomain",
			"outputs": [],
			"stateMutability": "nonpayable",
			"type": "function"
		},
		{
			"inputs": [
				{
					"internalType": "address",
					"name": "to",
					"type": "address"
				},
				{
					"internalType": "uint256",
					"name": "tokenId",
					"type": "uint256"
				},
				{
					"internalType": "string",
					"name": "sub",
					"type": "string"
				}
			],
			"name": "registerSubDomain",
			"outputs": [],
			"stateMutability": "nonpayable",
			"type": "function"
		},
		{
			"inputs": [],
			"name": "removeReverse",
			"outputs": [],
			"stateMutability": "nonpayable",
			"type": "function"
		},
		{
			"inputs": [],
			"name": "renounceOwnership",
			"outputs": [],
			"stateMutability": "nonpayable",
			"type": "function"
		},
		{
			"inputs": [
				{
					"internalType": "uint256",
					"name": "tokenId",
					"type": "uint256"
				}
			],
			"name": "reset",
			"outputs": [],
			"stateMutability": "nonpayable",
			"type": "function"
		},
		{
			"inputs": [
				{
					"internalType": "address",
					"name": "account",
					"type": "address"
				}
			],
			"name": "reverseOf",
			"outputs": [
				{
					"internalType": "string",
					"name": "",
					"type": "string"
				}
			],
			"stateMutability": "view",
			"type": "function"
		},
		{
			"inputs": [
				{
					"internalType": "address",
					"name": "account",
					"type": "address"
				}
			],
			"name": "revokeMinterRole",
			"outputs": [],
			"stateMutability": "nonpayable",
			"type": "function"
		},
		{
			"inputs": [
				{
					"internalType": "address",
					"name": "from",
					"type": "address"
				},
				{
					"internalType": "address",
					"name": "to",
					"type": "address"
				},
				{
					"internalType": "uint256",
					"name": "tokenId",
					"type": "uint256"
				}
			],
			"name": "safeTransferFrom",
			"outputs": [],
			"stateMutability": "nonpayable",
			"type": "function"
		},
		{
			"inputs": [
				{
					"internalType": "address",
					"name": "from",
					"type": "address"
				},
				{
					"internalType": "address",
					"name": "to",
					"type": "address"
				},
				{
					"internalType": "uint256",
					"name": "tokenId",
					"type": "uint256"
				},
				{
					"internalType": "bytes",
					"name": "_data",
					"type": "bytes"
				}
			],
			"name": "safeTransferFrom",
			"outputs": [],
			"stateMutability": "nonpayable",
			"type": "function"
		},
		{
			"inputs": [
				{
					"internalType": "string",
					"name": "key",
					"type": "string"
				},
				{
					"internalType": "string",
					"name": "value",
					"type": "string"
				},
				{
					"internalType": "uint256",
					"name": "tokenId",
					"type": "uint256"
				}
			],
			"name": "set",
			"outputs": [],
			"stateMutability": "nonpayable",
			"type": "function"
		},
		{
			"inputs": [
				{
					"internalType": "address",
					"name": "operator",
					"type": "address"
				},
				{
					"internalType": "bool",
					"name": "approved",
					"type": "bool"
				}
			],
			"name": "setApprovalForAll",
			"outputs": [],
			"stateMutability": "nonpayable",
			"type": "function"
		},
		{
			"inputs": [
				{
					"internalType": "string",
					"name": "_uri",
					"type": "string"
				}
			],
			"name": "setBaseURI",
			"outputs": [],
			"stateMutability": "nonpayable",
			"type": "function"
		},
		{
			"inputs": [
				{
					"internalType": "uint256",
					"name": "keyHash",
					"type": "uint256"
				},
				{
					"internalType": "string",
					"name": "value",
					"type": "string"
				},
				{
					"internalType": "uint256",
					"name": "tokenId",
					"type": "uint256"
				}
			],
			"name": "setByHash",
			"outputs": [],
			"stateMutability": "nonpayable",
			"type": "function"
		},
		{
			"inputs": [
				{
					"internalType": "string[]",
					"name": "keys",
					"type": "string[]"
				},
				{
					"internalType": "string[]",
					"name": "values",
					"type": "string[]"
				},
				{
					"internalType": "uint256",
					"name": "tokenId",
					"type": "uint256"
				}
			],
			"name": "setMany",
			"outputs": [],
			"stateMutability": "nonpayable",
			"type": "function"
		},
		{
			"inputs": [
				{
					"internalType": "uint256[]",
					"name": "keyHashes",
					"type": "uint256[]"
				},
				{
					"internalType": "string[]",
					"name": "values",
					"type": "string[]"
				},
				{
					"internalType": "uint256",
					"name": "tokenId",
					"type": "uint256"
				}
			],
			"name": "setManyByHash",
			"outputs": [],
			"stateMutability": "nonpayable",
			"type": "function"
		},
		{
			"inputs": [
				{
					"internalType": "address",
					"name": "to",
					"type": "address"
				},
				{
					"internalType": "uint256",
					"name": "tokenId",
					"type": "uint256"
				}
			],
			"name": "setOwner",
			"outputs": [],
			"stateMutability": "nonpayable",
			"type": "function"
		},
		{
			"inputs": [
				{
					"internalType": "uint256",
					"name": "price",
					"type": "uint256"
				}
			],
			"name": "setPrice",
			"outputs": [],
			"stateMutability": "nonpayable",
			"type": "function"
		},
		{
			"inputs": [
				{
					"internalType": "uint256",
					"name": "tokenId",
					"type": "uint256"
				}
			],
			"name": "setReverse",
			"outputs": [],
			"stateMutability": "nonpayable",
			"type": "function"
		},
		{
			"inputs": [
				{
					"internalType": "string",
					"name": "domain",
					"type": "string"
				}
			],
			"name": "setReverse",
			"outputs": [],
			"stateMutability": "nonpayable",
			"type": "function"
		},
		{
			"inputs": [],
			"name": "setSaleState",
			"outputs": [],
			"stateMutability": "nonpayable",
			"type": "function"
		},
		{
			"inputs": [],
			"name": "setSaleStateTwoChar",
			"outputs": [],
			"stateMutability": "nonpayable",
			"type": "function"
		},
		{
			"inputs": [
				{
					"internalType": "string",
					"name": "_tld",
					"type": "string"
				}
			],
			"name": "setTLD",
			"outputs": [],
			"stateMutability": "nonpayable",
			"type": "function"
		},
		{
			"inputs": [
				{
					"internalType": "uint256",
					"name": "_2chartimenew",
					"type": "uint256"
				},
				{
					"internalType": "uint256",
					"name": "_3chartimenew",
					"type": "uint256"
				},
				{
					"internalType": "uint256",
					"name": "_4chartimenew",
					"type": "uint256"
				}
			],
			"name": "setTimes",
			"outputs": [],
			"stateMutability": "nonpayable",
			"type": "function"
		},
		{
			"inputs": [
				{
					"internalType": "bool",
					"name": "_isWhiteListActive",
					"type": "bool"
				}
			],
			"name": "setWhiteListActive",
			"outputs": [],
			"stateMutability": "nonpayable",
			"type": "function"
		},
		{
			"inputs": [
				{
					"internalType": "uint256",
					"name": "tokenId",
					"type": "uint256"
				},
				{
					"internalType": "uint256",
					"name": "index",
					"type": "uint256"
				}
			],
			"name": "subTokenIdByIndex",
			"outputs": [
				{
					"internalType": "uint256",
					"name": "",
					"type": "uint256"
				}
			],
			"stateMutability": "view",
			"type": "function"
		},
		{
			"inputs": [
				{
					"internalType": "uint256",
					"name": "tokenId",
					"type": "uint256"
				}
			],
			"name": "subTokenIdCount",
			"outputs": [
				{
					"internalType": "uint256",
					"name": "",
					"type": "uint256"
				}
			],
			"stateMutability": "view",
			"type": "function"
		},
		{
			"inputs": [
				{
					"internalType": "bytes4",
					"name": "interfaceId",
					"type": "bytes4"
				}
			],
			"name": "supportsInterface",
			"outputs": [
				{
					"internalType": "bool",
					"name": "",
					"type": "bool"
				}
			],
			"stateMutability": "view",
			"type": "function"
		},
		{
			"inputs": [],
			"name": "symbol",
			"outputs": [
				{
					"internalType": "string",
					"name": "",
					"type": "string"
				}
			],
			"stateMutability": "view",
			"type": "function"
		},
		{
			"inputs": [
				{
					"internalType": "uint256",
					"name": "index",
					"type": "uint256"
				}
			],
			"name": "tokenByIndex",
			"outputs": [
				{
					"internalType": "uint256",
					"name": "",
					"type": "uint256"
				}
			],
			"stateMutability": "view",
			"type": "function"
		},
		{
			"inputs": [
				{
					"internalType": "address",
					"name": "owner",
					"type": "address"
				},
				{
					"internalType": "uint256",
					"name": "index",
					"type": "uint256"
				}
			],
			"name": "tokenOfOwnerByIndex",
			"outputs": [
				{
					"internalType": "uint256",
					"name": "",
					"type": "uint256"
				}
			],
			"stateMutability": "view",
			"type": "function"
		},
		{
			"inputs": [
				{
					"internalType": "uint256",
					"name": "tokenId",
					"type": "uint256"
				}
			],
			"name": "tokenURI",
			"outputs": [
				{
					"internalType": "string",
					"name": "",
					"type": "string"
				}
			],
			"stateMutability": "view",
			"type": "function"
		},
		{
			"inputs": [],
			"name": "totalSupply",
			"outputs": [
				{
					"internalType": "uint256",
					"name": "",
					"type": "uint256"
				}
			],
			"stateMutability": "view",
			"type": "function"
		},
		{
			"inputs": [
				{
					"internalType": "address",
					"name": "from",
					"type": "address"
				},
				{
					"internalType": "address",
					"name": "to",
					"type": "address"
				},
				{
					"internalType": "uint256",
					"name": "tokenId",
					"type": "uint256"
				}
			],
			"name": "transferFrom",
			"outputs": [],
			"stateMutability": "nonpayable",
			"type": "function"
		},
		{
			"inputs": [
				{
					"internalType": "address",
					"name": "newOwner",
					"type": "address"
				}
			],
			"name": "transferOwnership",
			"outputs": [],
			"stateMutability": "nonpayable",
			"type": "function"
		},
		{
			"inputs": [],
			"name": "withdraw",
			"outputs": [],
			"stateMutability": "payable",
			"type": "function"
		}
	]
}